:020000040800F2
:1000000000900020B5DA0008753900087B39000837
:1000100000000000000000000000000000000000E0
:10002000000000000000000000000000813900080E
:1000300000000000000000008B390008953900081E
:1000400005DB0008A339000805DB0008B13900080A
:10005000BF39000805DB000805DB000805DB0008E8
:1000600005DB000805DB000805DB000805DB0008F0
:10007000C9390008E1390008F939000805DB000832
:10008000113A000805DB0008293A000805DB0008E2
:10009000453A000805DB000805DB00085D3A00086A
:1000A0008D3A0008BD3A000805DB000805DB0008B2
:0C00B000D53A000805DB000805DB00085D
:1000BC0010B5064C2378002B07D1054B002B02D032
:1000CC00044800E000BF0123237010BD7000002025
:1000DC0000000000D0E90008044B10B5002B03D041
:1000EC000349044800E000BF10BDC04600000000FA
:1000FC0074000020D0E90008002243088B4274D31E
:10010C0003098B425FD3030A8B4244D3030B8B420C
:10011C0028D3030C8B420DD3FF22090212BA030C15
:10012C008B4202D31212090265D0030B8B4219D3F6
:10013C0000E0090AC30B8B4201D3CB03C01A524116
:10014C00830B8B4201D38B03C01A5241430B8B425E
:10015C0001D34B03C01A5241030B8B4201D30B0347
:10016C00C01A5241C30A8B4201D3CB02C01A52416E
:10017C00830A8B4201D38B02C01A5241430A8B4231
:10018C0001D34B02C01A5241030A8B4201D30B021A
:10019C00C01A5241CDD2C3098B4201D3CB01C01A34
:1001AC00524183098B4201D38B01C01A524143093E
:1001BC008B4201D34B01C01A524103098B4201D32C
:1001CC000B01C01A5241C3088B4201D3CB00C01A99
:1001DC00524183088B4201D38B00C01A5241430811
:1001EC008B4201D34B00C01A5241411A00D2014636
:1001FC00524110467047FFE701B5002000F0F0F8BF
:10020C0002BDC0460029F7D076E7704703460B4382
:10021C007FD4002243088B4274D303098B425FD3F3
:10022C00030A8B4244D3030B8B4228D3030C8B421F
:10023C000DD3FF22090212BA030C8B4202D3121205
:10024C00090265D0030B8B4219D300E0090AC30BDA
:10025C008B4201D3CB03C01A5241830B8B4201D387
:10026C008B03C01A5241430B8B4201D34B03C01A70
:10027C005241030B8B4201D30B03C01A5241C30AE8
:10028C008B4201D3CB02C01A5241830A8B4201D359
:10029C008B02C01A5241430A8B4201D34B02C01A43
:1002AC005241030A8B4201D30B02C01A5241CDD2E8
:1002BC00C3098B4201D3CB01C01A524183098B4233
:1002CC0001D38B01C01A524143098B4201D34B011C
:1002DC00C01A524103098B4201D30B01C01A52417F
:1002EC00C3088B4201D3CB00C01A524183088B4206
:1002FC0001D38B00C01A524143088B4201D34B00EF
:10030C00C01A5241411A00D2014652411046704760
:10031C005DE0CA0F00D04942031000D34042534065
:10032C0000229C4603098B422DD3030A8B4212D325
:10033C00FC22890112BA030A8B420CD38901921157
:10034C008B4208D3890192118B4204D389013AD094
:10035C00921100E08909C3098B4201D3CB01C01A69
:10036C00524183098B4201D38B01C01A524143097C
:10037C008B4201D34B01C01A524103098B4201D36A
:10038C000B01C01A5241C3088B4201D3CB00C01AD7
:10039C00524183088B4201D38B00C01A5241D9D2EF
:1003AC0043088B4201D34B00C01A5241411A00D270
:1003BC000146634652415B10104601D34042002B6C
:1003CC0000D54942704763465B1000D3404201B5EB
:1003DC00002000F005F802BD0029F8D016E77047A0
:1003EC007047C0468446101C62468C46191C6346F6
:1003FC0000E0C0461FB500F0C1FC002801D400216C
:10040C00C8421FBD10B500F01BFC4042013010BDAE
:10041C0010B500F0B3FC002801DB002010BD01205A
:10042C0010BDC04610B500F0A9FC002801DD00206D
:10043C0010BD012010BDC04610B500F03BFC0028DB
:10044C0001DC002010BD012010BDC04610B500F02D
:10045C0031FC002801DA002010BD012010BDC0467F
:10046C00002B11D1002A0FD1002900D1002802D075
:10047C000021C943081C07B4024802A1401802908D
:10048C0003BDC0465DFFFFFF03B4684601B502988B
:10049C0000F006F8019B9E4602B00CBC7047C046AB
:1004AC00F0B557464E464546DE46E0B5040083B0EF
:1004BC000D00924699468B422FD82CD04946504677
:1004CC0000F0DCFC29000600200000F0D7FC331AF9
:1004DC009846203B9B4600D574E053465A469340C1
:1004EC001F005346424693401E00AF4229D826D0E7
:1004FC005B46A41BBD41002B00DA79E000220023EF
:10050C000092019301235A469340019301234246E2
:10051C009340009319E08242D0D90022002300922C
:10052C0001930C9B002B01D01C605D60009801991D
:10053C0003B03CBC90469946A246AB46F0BDA342E4
:10054C00D6D900220023009201934346002BE8D019
:10055C00FB0772081A4346467B080EE0AB4201D1FA
:10056C00A2420CD8A41A9D41012024196D410021EE
:10057C00013E24184D41002E06D0AB42EED9013E6F
:10058C0024196D41002EF8D15B4600980199001991
:10059C006941002B22DB2B005A46D3402A004446EB
:1005AC00E2401C005B461500002B2CDB26009E4015
:1005BC00330026004746BE403200801A9941009015
:1005CC000191AEE7424620239B1A5246DA4041463F
:1005DC0013004A468A4017001F4382E742462023F5
:1005EC009B1A2A0046469A402300F3401343D5E752
:1005FC004246202300219B1A0022009101920122E5
:10060C00DA40019282E74246202326009B1ADE4004
:10061C002F00B446974066463B003343C9E7C046BB
:10062C00F8B54546DE4657464E460C03E0B54E003F
:10063C00C90F88460D00610A440F0C43C70019030B
:10064C005800DB0F9B464B0A510F0B43760D400DA8
:10065C001900D200D84500D1AEE0351A002D00DCCF
:10066C00F6E000280FD1134300D1DBE06B1E002B0A
:10067C0000D037E1BA1A9742BF41641A7F42E41B9B
:10068C000126170024E0C64B9E424DD080231B044C
:10069C001943382D00DD07E11F2D00DD38E1202046
:1006AC00431B9A460B00504683409946130048461C
:1006BC00EB401843030050468240501E8241E940F3
:1006CC001A43BA1A611A9742A441170064420C1BD0
:1006DC00230262D56402650A002D00D1DFE02800F8
:1006EC0000F0AEFB0300083B1F2B00DDD2E0202204
:1006FC003C00D21A9D40D4409F4025439E4200DDD1
:10070C00C4E09E1B731C1F2B00DDF1E0202238007F
:10071C002900D21AD840914097402C000143781EF2
:10072C008741DC4000260F437B0709D00F233B4059
:10073C00042B05D03B1DBB42BF417F42E4191F0077
:10074C0023022CD5964B01369E4200D19AE04546A9
:10075C00944BFF081C406007760564020743240B8A
:10076C00760D00212403230B0C0D8F4A24051C430A
:10077C001440330523435B00ED075B082B43380023
:10078C0019003CBC90469946A246AB46F8BD64465F
:10079C00044300D111E2040067467B07C6D14546ED
:1007AC006007FF080743E4087D4B9E4230D02403CA
:1007BC007605240B760DD4E7331A9A46002B78DD98
:1007CC00002831D076488642AED080200004014308
:1007DC005346382B00DCE9E00A43511E8A410021C4
:1007EC00D219BA42BF4109197C4217000C192302D5
:1007FC00D3D56B4B01369E4200D13AE10120694BB7
:10080C001C407B0807401F43E007074364088BE745
:10081C0023003B4300D1CBE1802212031443240379
:10082C00240B9EE72E007FE70800104300D1B4E0B4
:10083C00581E002800D0DEE0BA18BA429B4164185A
:10084C005B42E418170001262302A6D50226D5E741
:10085C00002D6ED1701C4005400D012800DCF9E024
:10086C00B81A844687428041E51A40422D1A280264
:10087C0000D489E0D71BBA4292411C1B5242A51AE4
:10088C00D84629E74546002400276AE7454CF61A66
:10089C002C4049E73D002838854000272EE73800DA
:1008AC0000F0CEFA20301DE70A43511E8A41002188
:1008BC0007E7002B00D0F3E0701C43055B0D012B08
:1008CC0000DCADE0364B984200D1D1E0BA18BA4208
:1008DC00BF4164187F42E419E707520817436408C4
:1008EC00060021E72E48854200D193E01D00D0E69A
:1008FC0029001F3EF140202B00D18DE04022D31A5D
:10090C009D402F437D1EAF4100240F43002644E73A
:10091C002B000800203BD8400300202D00D17DE0A7
:10092C004020451BA9400A43511E8A4100211A430D
:10093C00C7E6002E50D01A4EB04257D080266B42DC
:10094C009946360434434B46382B00DDD6E01F2B3A
:10095C0000DD35E12026F51A2600AE40B2463E00F9
:10096C00DE40AC46350056462E436546AF407D1EF4
:10097C00AF41DC403743D71BBA4292410C1B524269
:10098C00A41A0600D846A3E6644667462C4300D05A
:10099C00A2E600250026002706E71E00C4E6C04696
:1009AC00FF070000FFFF7FFFFFFF0F801F2B63DCA3
:1009BC002020C31A080098409C46834653461000DA
:1009CC00D84003005846184363469A40531E9A4138
:1009DC0053460243D94003E726003E4306D0EB437F
:1009EC009946002BC7D0944EB042ACD10C001700E6
:1009FC000600D84698E6904B9A450BD08246E7E61F
:100A0C00002800D09EE01800104300D1E9E01C0043
:100A1C001700D846884E87E6002572E7002182E74A
:100A2C0023003B43002E00D0ABE0002B00D1E7E0CD
:100A3C000B00134300D177E6BA18BA42BF416418D1
:100A4C007F42E419230200D4F2E07C4B17001C40D7
:100A5C00060069E620003843002ED1D100285BD176
:100A6C001C00144300D1A8E01C001700D8465BE61C
:100A7C0006000024002797E650460B002038C340A0
:100A8C0099465346202B00D195E0402350461B1A23
:100A9C0099400A43511E8A414B4600211A439FE656
:100AAC00002E30D126003E4367D0DB439A46002B04
:100ABC001CD0614EB04260D05346382B00DD96E01E
:100ACC001F2B00DD9FE02026F31A26009E409C463B
:100ADC00B34653463E00DE4033005E461E4363463B
:100AEC009F407B1E9F415346DC403743BF189742C3
:100AFC00924164185242A418060078E627437C1EE3
:100B0C00A741002437E74C4EB04236D080265B42DA
:100B1C0036049A463443CFE71800104300D103E65D
:100B2C00B81A84466745AD41E01A6D42401B050278
:100B3C0000D42CE6D71BBA4292411C1B5242A41A79
:100B4C00D846F1E51800104300D163E7F8086707B1
:100B5C0007438020E4080003044208D0DD08054266
:100B6C0005D1D208590711430F002C00D8467B0F32
:100B7C00E4001C43FF00304ED6E50C0017000600C5
:100B8C00D2E5002B38D00B00134300D142E7F80814
:100B9C00670707438020E40800030442E7D0CB0832
:100BAC000342E4D1D208490711430F001C00DEE7D1
:100BBC0000270024D5E500216BE700250027F3E58D
:100BCC004E462500203EF5404B462E00202B2DD0C6
:100BDC004025ED1AAC4027437C1EA7410024374327
:100BEC00C9E6802400252403134E0027DCE52743A7
:100BFC007C1EA741002479E70C0017000E4E93E5EC
:100C0C000C00170090E556462300203EF340994611
:100C1C005346202B0ED0402356469B1B9C4027430B
:100C2C007C1EA7414B4600241F435FE70024D2E7FC
:100C3C001700B2E50024F2E7FF070000FFFF7FFF7B
:100C4C00F0B54F464646D6465C00C0B51F03DB0FD9
:100C5C009A46174B0E034D0084468046360B6D0D9D
:100C6C00C90F91463F0B640D01209D4208D09C4258
:100C7C0001D0A5420BD01CBC90469946A246F0BDB3
:100C8C0063463343F7D1AC42F5D13A43F3D101205B
:100C9C00BE42F0D1C845EED1514507D0002DEAD166
:100CAC0063461E433000461EB041E4E70020E2E7F5
:100CBC00FF070000F0B54546DE4657464E46E0B508
:100CCC001F033D0B2C4F0E034C00AB465D008446BE
:100CDC00360B640DC90F90466D0DDB0FBC422AD04C
:100CEC00254FBD422DD0002C0FD13043070081463B
:100CFC0078427841C0B2002D17D15F463A4314D1E7
:100D0C004B460020002B0AD006E0002D02D158469D
:100D1C00024301D0994218D04842012108433CBCFF
:100D2C0090469946A246AB46F0BD0028F2D0012071
:100D3C00013B1843F3E737000743D1D00220404270
:100D4C00EDE75F461743CED0F8E7AC42E4DC03DABC
:100D5C00481E01210843E2E75E45DDD806D000209D
:100D6C005E45DCD20123481E1843D8E7C445D3D8CE
:100D7C000020C445F6D3D2E7FF070000F0B54E467D
:100D8C004546DE4657465C00E0B51F03DB0F99462F
:100D9C002A4B0E034D00C90F8446360B6D0D8B4646
:100DAC0090463F0B640D9D4220D0244B9C4222D098
:100DBC00002D12D1304343424341DBB2002C1FD0F3
:100DCC00002B0CD04B460120013B034318003CBCCC
:100DDC0090469946A246AB46F0BD002C16D0CB45AA
:100DEC0017D05B46594201230B43EFE73100022336
:100DFC000143EBD1D9E7390002231143E6D1D7E700
:100E0C003A43DDD100230028E0D0EAE73A43E6D1AB
:100E1C00E7E7A542E5DC05DBBE42E2D807D00023BC
:100E2C00BE42D3D25946012301390B43CEE7C44508
:100E3C00D7D80023C445F5D3C8E7C046FF07000048
:100E4C001C2101231B04984201D3000C10391B0AEE
:100E5C00984201D3000A08391B09984201D30009B2
:100E6C00043902A2105C40187047C0460403020209
:100E7C0001010101000000000000000010B5002974
:100E8C0003D1FFF7DDFF203002E0081CFFF7D8FF8D
:100E9C0010BDC04680B584B000AF3B1D18000C23BC
:100EAC001A0000210CF054FE364B374A1A60354BB1
:100EBC008022D2025A60334B00229A60314B0022BE
:100ECC00DA60304B802212061A612E4B04225A61D2
:100EDC002C4B00221A762B4B00225A76294B0022DF
:100EEC009A76284B0222DA61264B20220121995452
:100EFC00244B00225A62234B00229A62214B2C2253
:100F0C00002199541F4B802252011A631D4B07225A
:100F1C005A631C4B04229A631A4B3C2200219954AD
:100F2C00184B0022DA64174B180003F0DFFD031E88
:100F3C0001D002F0CBFC3B1D01221A603B1D0022AC
:100F4C009A603A1D0F4B1100180004F009FC031EA7
:100F5C0001D002F0BBFC3B1D0C4A1A603B1D002269
:100F6C005A603B1D00229A603A1D064B1100180076
:100F7C0004F0F6FB031E01D002F0A8FCC046BD46EF
:100F8C0004B080BD6401002000240140004000B882
:100F9C0080B58AB000AF78601423FB1818001423B6
:100FAC001A0000210CF0D4FD7B681B682D4A93427B
:100FBC0054D12D4B2C4A126C802149030A431A64DC
:100FCC00294B1A6C80235B0313403B613B69264B16
:100FDC00254A526B01210A435A63234B5B6B012256
:100FEC001340FB60FB68204B1F4A526B02210A43E3
:100FFC005A631D4B5B6B02221340BB60BB6814230E
:10100C00FB1801221A601423FB1803225A601423C4
:10101C00FB1800229A601423FA18A023DB05110098
:10102C00180005F021FB1423FB1807221A60142367
:10103C00FB1803225A601423FB1800229A60142315
:10104C00FB180A4A1900100005F00EFB00220021C3
:10105C000C2005F01DF90C2005F03AF9C046BD46F0
:10106C000AB080BD00240140001002400004005072
:10107C0080B582B000AF144B00221A70FB1D002209
:10108C001A7011E0FB1D1A78104B52008021490197
:10109C00D152FB1D1A780E4B52000021D152FB1D70
:1010AC001A78FB1D01321A70FB1D1B78012BE9D934
:1010BC00084B180004F098F9064B180004F08CFF4C
:1010CC00C046BD4602B080BD5C010020E00000209F
:1010DC00AC0200206401002090B585B000AF020086
:1010EC00BB1D1A800F23FB1800221A700F23FB184C
:1010FC0000221A701EE0254B00221A70244B180097
:10110C0004F0E8F8C046214B1B78002BFBD00F23D2
:10111C00FB181C781E4B180004F0BEF9030099B2A2
:10112C001C4B6200D1520F23FB181A780F23FB18AB
:10113C0001321A700F23FB181B78012BDBD9144BCF
:10114C00180004F051F9134B1B881A00124B53432F
:10115C0012491800FEF7D0FF03009AB2104B1A8008
:10116C000C4B5B881A000C4B53430C491800FEF7D0
:10117C00C3FF03009BB21A1C131CDB189B189AB2FA
:10118C00074B5A80C046BD4605B090BD5C0100209F
:10119C0064010020E0000020E40C0000FF0F0000C0
:1011AC00AC02002080B58AB000AF1423FB181800E5
:1011BC0014231A0000210CF0CBFCC64BC54A526B11
:1011CC0004210A435A63C34B5B6B042213403B61FB
:1011DC003B69C04BBF4A526B20210A435A63BD4B3B
:1011EC005B6B20221340FB60FB68BA4BB94A526B15
:1011FC0001210A435A63B74B5B6B01221340BB605E
:10120C00BB68B44BB34A526B02210A435A63B14BCD
:10121C005B6B022213407B607B68AE4BAD4A526B1A
:10122C0008210A435A63AB4B5B6B082213403B60AB
:10123C003B68A94B00223921180005F06BFCA02358
:10124C00DB0501222021180005F064FC80235B01E2
:10125C00A2480122190005F05DFCCE239B009F489B
:10126C000022190005F056FC9D4B0022602118004D
:10127C0005F050FC1423FB18B02252011A60142301
:10128C00FB1803225A601423FB1800229A601423C3
:10129C00FB18914A1900100005F0E6F91423FB180D
:1012AC00802292011A601423FB1800225A60142326
:1012BC00FB1800229A601423FB18874A19001000AF
:1012CC0005F0D2F91423FB1806221A601423FB181C
:1012DC0003225A601423FB1800229A601423FB1873
:1012EC00804A1900100005F0BFF91423FB182922BD
:1012FC001A601423FB1801225A601423FB180022D5
:10130C009A601423FB180022DA601423FB18724A2B
:10131C001900100005F0A8F91423FB1810221A600C
:10132C001423FB1801225A601423FB1800229A6024
:10133C001423FB180022DA601423FB18664A1900E8
:10134C00100005F091F91423FB1820221A601423C5
:10135C00FB1801225A601423FB1800229A601423F4
:10136C00FB180222DA601423FA18A023DB05110003
:10137C00180005F079F91423FB18802252011A6029
:10138C001423FB1801225A601423FB1800229A60C4
:10139C001423FB180022DA601423FB184F4A19009F
:1013AC00100005F061F91423FB18CE2292001A608C
:1013BC001423FB1801225A601423FB1800229A6094
:1013CC001423FB180022DA601423FB18434A19007B
:1013DC00100005F049F91423FB18E02212021A60E0
:1013EC001423FB1803225A601423FB1800229A6062
:1013FC001423FB18394A1900100005F035F9142391
:10140C00FB18802252001A601423FB1800225A6029
:10141C001423FB1801229A601423FB18304A19007C
:10142C00100005F021F91423FB182F4A1A6014231D
:10143C00FB1800225A601423FB1800229A60142314
:10144C00FB18274A1900100005F00EF91423FB189D
:10145C00982212021A601423FB1803225A601423D8
:10146C00FB1800229A601423FA18A023DB05110044
:10147C00180005F0F9F81423FB1810221A60142335
:10148C00FB1803225A601423FB1800229A601423C1
:10149C00FB18134A1900100005F0E6F81423FB188A
:1014AC0060221A601423FB1801225A601423FB18C3
:1014BC0000229A601423FB180022DA601423FB1814
:1014CC00074A1900100005F0CFF8C046BD460AB017
:1014DC0080BDC046001002400008005000040050BF
:1014EC00000C0050001400500F02000080B582B0B8
:1014FC0000AF0200FB1D1A70BB1D0A1C1A70FB1DED
:10150C001B78052B36D89A001D4BD3181B689F46A9
:10151C00BB1D1A78A023DB052021180005F0FAFA70
:10152C0029E0BB1D1A7880235B011648190005F0D1
:10153C00F1FA20E0BB1D1B7813481A00102105F0AE
:10154C00E9FA18E0BB1D1B780F481A00202105F0A2
:10155C00E1FA10E0BB1D1B780B481A00082105F0BE
:10156C00D9FA08E0BB1D1B7808481A00402105F089
:10157C00D1FA00E0C046C046BD4602B080BDC046B0
:10158C00E4ED00080004005000080050000C00506E
:10159C00B0B582B000AF05000C0010001900FB1DA7
:1015AC002A1C1A703B1D221C1A80BB1C021C1A80A0
:1015BC003B000A1C1A80404B3A1D462112885A5295
:1015CC003D4BBA1C482112885A523B4B3A001288A8
:1015DC005A81FB1D1B789BB2DB1899B2364B5A22F1
:1015EC009952364B1A7804210A431A70FB1D1B784A
:1015FC000E2B04D1304B58220121995203E02E4B73
:10160C005822022199523B1D1B88012B0CD0022B16
:10161C0012D0002B00D020E080235B01284801224F
:10162C00190005F077FA18E080235B0124480022AA
:10163C00190005F06FFA10E01F4B58229A5A1E4BF6
:10164C009A81204B00221A701E4B1A7880235B0162
:10165C001B48190005F05EFAC046BB1C1B88012B09
:10166C000CD0022B12D0002B00D020E0A023DB05E5
:10167C0001222021180005F04DFA18E0A023DB050B
:10168C0000222021180005F045FA10E00A4B5822E0
:10169C009A5A094B9A810B4B00221A70094B1A78F3
:1016AC00A023DB052021180005F034FAC046C04603
:1016BC00BD4602B0B0BDC04644020020BC000020B4
:1016CC00000400505D01002080B582B000AF020024
:1016DC00FB1D1A70BB1D0A1C1A70BB1D1B78002B3E
:1016EC003FD0BB1D1B789BB2013B99B21F4B4222D2
:1016FC0099521E4BFA1D382112785A54FB1D1B7837
:10170C00012B20D0032B10D0002B00D029E0174B3D
:10171C000F22DA87164B0021180008F0DBFC154B62
:10172C001A7820210A431A701BE0104B2522DA8705
:10173C000F4B0021180008F0CDFC0E4B1A7820211D
:10174C000A431A700DE0094BE622DA87084B002198
:10175C00180008F0BFFC074B1A7820210A431A70B6
:10176C00C046C046BD4602B080BDC0464402002003
:10177C00CC0300202802002080B582B000AF02000C
:10178C00FB1D1A70FB1D1B78002B02D0012B07D000
:10179C001FE0124B00224021180005F0BBF918E0A5
:1017AC000E4B01224021180005F0B4F90C4B3222EB
:1017BC001A820C4B5B7802221340DBB2002B03D154
:1017CC00074BE12292009A82054B5F22002199542B
:1017DC00C046C046BD4602B080BDC046000C00509D
:1017EC00440200202802002080B500AF0B4B1B8A5E
:1017FC00002B05D10A4B00224021180005F08AF974
:10180C00064B9B8A002B05D1054B01222021180089
:10181C0005F080F9C046BD4680BDC046440200209C
:10182C00000C005080B500AF4E4B9B89002B2DD186
:10183C004C4B5A229B5A002B16D04A4B5A229B5A7D
:10184C00013B99B2474B5A229952464B58229A5A0D
:10185C00444B9A81444B1B78013B5A1E9341DBB29B
:10186C001A00414B1A7011E03E4B46229B5A022B38
:10187C0003D13C4B4622002199523A4B48229B5AA9
:10188C00022B03D1374B482200219952354B5B89EF
:10189C00002B11D1334B46229B5A012B03D1314BD8
:1018AC004622002199522F4B48229B5A012B03D1DF
:1018BC002C4B4822002199522A4B9B89002B08D192
:1018CC00284B5B89002B04D1284B1A7804218A43BE
:1018DC001A70244B46229B5A012B0CD0022B12D08F
:1018EC00002B00D018E080235B0121480122190055
:1018FC0005F010F910E080235B011D48002219004F
:10190C0005F008F908E0184B1A7880235B01184899
:10191C00190005F0FFF8C046124B48229B5A012BC8
:10192C000CD0022B12D0002B00D018E0A023DB052A
:10193C0001222021180005F0EDF810E0A023DB05B2
:10194C0000222021180005F0E5F808E0064B1A7873
:10195C00A023DB052021180005F0DCF8C046C046AA
:10196C00BD4680BD440200205D010020BC0000206B
:10197C000004005080B500AF2A4B1B782022134086
:10198C00DBB2002B4BD0284BDB8F002B1AD1264B14
:10199C0042229B5A002B0AD0234B3822985C224BB4
:1019AC0042229B5ADBB21900FFF78EFE37E01F4B29
:1019BC000021180008F0E4FC1A4B1A7820218A4305
:1019CC001A702CE0184B38229B5C012B18D0032B7F
:1019DC000CD0002B00D022E0134BDB8F042B19D83A
:1019EC00124B0021180008F0CBFC13E00E4BDB8FE0
:1019FC00062B11D80D4B0021180008F0C1FC0BE090
:101A0C00094BDB8F092B09D8084B0021180008F073
:101A1C00B7FC03E0C04602E0C04600E0C046C0464A
:101A2C00BD4680BD2802002044020020CC030020CB
:101A3C0080B500AF1B4B1C4A1A601A4B1B4A5A60EC
:101A4C00184B00229A60174B0122DA60154B0022CA
:101A5C001A61144B00225A61124B00229A61114BED
:101A6C000022DA610F4B00221A620E4B180005F0AF
:101A7C0091F8031E01D001F029FF0A4B0021180038
:101A8C0006F08CFC031E01D001F020FF054B002159
:101A9C00180006F0F1FC031E01D001F017FFC04640
:101AAC00BD4680BDC0020020005400405B3D3000AC
:101ABC0080B58CB000AF78601C23FB181800142381
:101ACC001A0000210CF044F87B681B68434A9342CF
:101ADC003DD1434B424A526B02210A435A63404B5D
:101AEC005B6B02221340BB61BB691C23FB18C02239
:101AFC001A601C23FB1812225A601C23FB180022AC
:101B0C009A601C23FB180022DA601C23FB180622A7
:101B1C001A611C23FB18334A1900100004F0A4FDB1
:101B2C002F4B2F4AD26B802189030A43DA632C4B4B
:101B3C00DA6B80239B0313407B617B6900220321BA
:101B4C00172004F0A5FB172004F0C2FB42E07B68D1
:101B5C001B68254A93423DD1214B214A526B0221ED
:101B6C000A435A631E4B5B6B022213403B613B6979
:101B7C001C23FB18C02212011A601C23FB18122212
:101B8C005A601C23FB1801229A601C23FB180022AC
:101B9C00DA601C23FB1806221A611C23FB18114A5D
:101BAC001900100004F060FD0D4B0D4AD26B802122
:101BBC00C9030A43DA630A4BDA6B8023DB03134055
:101BCC00FB60FB6800220321182004F061FB182045
:101BDC0004F07EFBC046BD460CB080BD00540040F6
:101BEC0000100240000400500058004090B583B033
:101BFC0000AF2D4B00221A70FC1D00F0CDF8030035
:101C0C002370FB1D1B78002B43D1274B9B8A402B49
:101C1C003CD1264B0C21180000F05AF903003B6014
:101C2C00214B1A6A3B689A4229D100F0DFF91E4B0E
:101C3C009A681F4B5A621C4BDA681D4B9A621A4BFE
:101C4C009B791B061B0FDBB21900194B5C229954B4
:101C5C00154B9B791B071B0FDBB21900144B36225B
:101C6C009954114BD979124B37229954104B5A6A0B
:101C7C000F4B9A610E4B9A6A0D4BDA610FE000F034
:101C8C0053F901210420FFF731FC08E000F04CF976
:101C9C0005E001210320FFF729FC00F045F9C046BF
:101CAC00BD4603B090BDC046E4000020F800002003
:101CBC004402002080B584B004AF0D4B1B78002B80
:101CCC0012D10B4BA0225A80094B40229A80084B10
:101CDC0059880848084B029310230193074B009333
:101CEC000223402205F088F8C046BD4680BDC046A0
:101CFC00E4000020C002002050C30000E8000020D7
:101D0C0090B583B000AFFB1D01221A70FC1D00F0D2
:101D1C0043F803002370FB1D1B78002B26D1FB1D01
:101D2C0001221A70164B9B8A402B1AD1154B0C2191
:101D3C00180000F0CDF803003B60114B1A693B68AA
:101D4C009A4203D1FB1D00221A7013E00E4B1800AF
:101D5C000BF006FF3A680D4B110018000BF000FF5A
:101D6C0008E00B4B18000BF0FBFE03E0094B1800CE
:101D7C000BF0F6FEFB1D1B781800BD4603B090BDA2
:101D8C00E4000020F8000020E8E9000800EA000860
:101D9C0010EA000828EA000890B587B004AFFB1DD4
:101DAC0001221A700C4BA0225A800B4B5988FC1D37
:101DBC000A480B4B02930F2301930A4B0093022307
:101DCC00402205F057F903002370FB1D1B78180007
:101DDC00BD4603B090BDC046E4000020C002002008
:101DEC0050C30000F800002080B500AF354B4022F6
:101DFC009A80354B5C229B5C1A1C0F231340DAB281
:101E0C00304B10019A790F210A40111C021C0A4315
:101E1C009A712D4B36229B5C1A1C0F231340DAB29D
:101E2C00284B0F210A4010009A790F218A43111C6C
:101E3C00021C0A439A71244B37229A5C214BDA71AB
:101E4C00214B9A691F4B9A601F4BDA691D4BDA6064
:101E5C001E4B0C21180000F03BF80200194B1A61C4
:101E6C00FFF728FF00F0E8F8FFF74AFF031E26D122
:101E7C00144B9A69144B5A62124BDA69124B9A62E0
:101E8C00104B9B7D1B061B0FDBB219000E4B5C220B
:101E9C0099540C4B9B7D1B071B0FDBB219000A4B93
:101EAC0036229954074BD97D074B37229954064B50
:101EBC005A6A054B9A61044B9A6A034BDA61C04625
:101ECC00BD4680BDE400002044020020E800002054
:101EDC0080B584B000AF78600A00FB1C1A70002338
:101EEC00FB600B23FB1800221A7010E00B23FB186D
:101EFC001B787A68D3181B781A00FB689B18FB6058
:101F0C000B23FB181A780B23FB1801321A700B23C6
:101F1C00FA18FB1C12781B789A42E7D3FB6818005E
:101F2C00BD4604B080BD000080B500AF2C4B4022F4
:101F3C009A802B4B9A790F210A409A71284B9A79E7
:101F4C000F218A43111C01220A439A71244BDA791E
:101F5C000F218A43111C01220A43DA71204BDA79D2
:101F6C000F210A40111C10220A43DA711C4B062265
:101F7C009A601B4B0922DA601A4B0C211800FFF7F0
:101F8C00A7FF0200164B1A61FFF794FE144B9A68D8
:101F9C00154B5A62124BDA68134B9A62104B9B79B1
:101FAC001B061B0FDBB219000F4B5C2299540C4B18
:101FBC009B791B071B0FDBB219000B4B3622995474
:101FCC00074BD979084B37229954074B5A6A064B61
:101FDC009A61054B9A6A044BDA61C046BD4680BDD6
:101FEC00E4000020E80000204402002080B500AF8F
:101FFC000F4B9A8A0E4B9A800D4B9A7D0C4B9A7113
:10200C000B4BDA7D0A4BDA71094B9A69084B9A60D3
:10201C00074BDA69064BDA60064B0C211800FFF708
:10202C0057FF0200024B1A61C046BD4680BDC04638
:10203C00E4000020E800002080B500AF054B05222D
:10204C001A81C046034B1B89002BFBD1C046BD46F1
:10205C0080BDC0464402002090B587B000AF02009E
:10206C00FB1D1A700023FB6000233B611723FB1838
:10207C0000221A700023FB603A6913009B009B1826
:10208C005B00FB601723FB181B78CC4A2C21D31860
:10209C005B181B781A00FB68D3183B611723FB18DD
:1020AC001B78C64A2C21D3185B1800221A701723F0
:1020BC00FB181A781723FB1801321A70BF4B352204
:1020CC009B5C1722BA1812789A42D5D31623FB18A8
:1020DC0001221A70FB1D1B78052B00D958E19A00C0
:1020EC00B74BD3181B689F46B44B5D229B5C002BEF
:1020FC001AD1B24B9A693B699A4200D04AE1AF4B74
:10210C0037229B5C1B071B0FDBB21900AB4B352234
:10211C009B5C1A000F231340994200D03AE116231E
:10212C00FB1800221A7035E1A44B9A6A3B699A425B
:10213C0020D1A24B36229A5CA04B35215B5C0F213F
:10214C000B40DBB29A4215D19C4B06229A619B4BF9
:10215C003722995C0F200140081C1021014399542F
:10216C00984B5A7801210A435A701623FB18002207
:10217C001A700FE1914B9A693B699A4200D009E1C0
:10218C008E4B37229B5C1B061B0FDBB219008B4B53
:10219C0035229B5C1A000F231340994200D0F9E0C2
:1021AC001623FB1800221A70F4E0844B5D229B5C12
:1021BC00002B1AD1814B9A693B699A4200D0EBE013
:1021CC007E4B37229B5C1B071B0FDBB219007B4B32
:1021DC0035229B5C1A000F231340994200D0DBE0A0
:1021EC001623FB1800221A70D6E0744B9A693B69CF
:1021FC009A4200D0D0E0714B37229B5C1B061B0F20
:10220C00DBB219006D4B35229B5C1A000F23134077
:10221C00994200D0C0E01623FB1800221A70BBE0D4
:10222C00664B3A691A621623FB1800221A70BAE040
:10223C00624B1A6A3B699A4200D0AFE05F4B5D2259
:10224C009B5C002B13D15D4B35229B5C1A1C0F231E
:10225C001340D9B2594B37220F2001400C00995C26
:10226C000F208143081C211C0143995410E0534B4F
:10227C0035229B5C1A1C0F231340D9B24F4B3722CB
:10228C000C01995C0F200140081C211C014399543E
:10229C004A4B3A699A611623FB1800221A707DE0AA
:1022AC00464B5D229B5C002B20D1444B62229B5CF5
:1022BC00042B00D974E0414B3A699A613F4B3522AB
:1022CC009B5C1A1C0F231340D9B23C4B37220F20B6
:1022DC0001400C00995C0F208143081C211C014318
:1022EC0099541623FB1800221A7059E0334B6222C2
:1022FC009B5C042B18D8314B3A699A612F4B3522D1
:10230C009B5C1A1C0F231340D9B22C4B37220C01A7
:10231C00995C0F200140081C211C01439954162381
:10232C00FB1800221A703BE0244B62229B5C052BAD
:10233C0036D1224B3A69DA61204B35229B5C0F2255
:10234C001340D9B21D4B362299541623FB18002288
:10235C001A7025E0194B5D229B5C012B22D1174B87
:10236C003A69DA61154B35229B5C1A1C0F2313401A
:10237C00D9B2124B37220C01995C0F200140081C7A
:10238C00211C014399541623FB1800221A7009E0F2
:10239C00C04608E0C04606E0C04604E0C04602E085
:1023AC00C04600E0C046054B352200219954162347
:1023BC00FB181B781800BD4607B090BD44020020E6
:1023CC0008EE00082802002080B500AF194B35221A
:1023DC0000219954174B00221A62164B62220021DD
:1023EC009954154B1A7810218A431A70124B5A784B
:1023FC0002218A435A70104B5A7840218A435A70F2
:10240C000D4B5A787F210A405A700B4B5A78202179
:10241C008A435A70084B1A7808218A431A70064B63
:10242C005A7810218A435A70044B00229A71C04684
:10243C00BD4680BD4402002028020020B8020020C6
:10244C0080B582B000AF0200FB1D1A70BB1D0A1CC8
:10245C001A70FB1D1B78042B79D89A003E4BD318AD
:10246C001B689F46BB1D1B783C481A00082104F0D2
:10247C0051FB3A4B394A126840210A431A6067E013
:10248C00BB1D1B7835481A00102104F043FB334B5D
:10249C00324A1268802149000A431A6058E0BB1D79
:1024AC001B782E481A00202104F034FB2B4B2B4AAE
:1024BC0012688021C9000A431A6049E0BB1D1A78D2
:1024CC0080235B002548190004F024FB234B234A8E
:1024DC001268802149020A431A6039E0BB1D1B783F
:1024EC001E481A00082104F015FBBB1D1B781B4865
:1024FC001A00102104F00EFBBB1D1B7817481A00A4
:10250C00202104F007FBBB1D1A7880235B001348C5
:10251C00190004F0FFFA114B104A126840210A43CB
:10252C001A600E4B0D4A1268802149000A431A604A
:10253C000A4B0A4A12688021C9000A431A60074BE9
:10254C00064A1268802149020A431A6000E0C0461C
:10255C00C046BD4602B080BD20EE0008000400500D
:10256C0080B582B000AF0200FB1D1A70FB1D1B78FA
:10257C00042B39D89A001F4BD3181B689F461E4B4F
:10258C001D4A1268C0218A431A602EE01A4B1A4A5F
:10259C0012681A490A401A6027E0174B164A12684B
:1025AC0017490A401A6020E0134B134A1268154968
:1025BC000A401A6019E0104B0F4A1268C0218A4376
:1025CC001A600D4B0C4A12680C490A401A600A4BEF
:1025DC00094A12680A490A401A60074B064A1268EF
:1025EC0008490A401A6000E0C046C046BD4602B029
:1025FC0080BDC04634EE000800040050FFFCFFFF15
:10260C00FFF3FFFFFFFFFCFF80B582B000AF0200BD
:10261C00FB1D1A70144B00220821180004F07AFAE2
:10262C00114B00221021180004F074FA0E4B0022FA
:10263C002021180004F06EFA80235B000A48002267
:10264C00190004F067FA0420FFF78AFFFB1D1B78C2
:10265C00032B05D8FB1D1B7801211800FFF7F0FE9A
:10266C00C046BD4602B080BD0004005080B588B0A5
:10267C0000AF0200FB1D1A700C23FB18180014236A
:10268C001A0000210BF064FA0C23FB180F221A60BD
:10269C000C23FB1800225A600C23FB1800229A60B2
:1026AC000C23FB18044A1900100003F0DDFFC04690
:1026BC00BD4608B080BDC046000C005090B585B03A
:1026CC0000AF0200FB1D1A700F23FB1801221A70B9
:1026DC00FB1D1B78052B44D89A00264BD3181B687E
:1026EC009F460F23FC18244B0121180004F0E2F93B
:1026FC000300237036E00F23FC181F4B0221180037
:10270C0004F0D8F9030023702CE00F23FC181A4BAB
:10271C000421180004F0CEF90300237022E00F23EB
:10272C00FC18154B0821180004F0C4F903002370A1
:10273C0018E00F23FC1880235B000F4A19001000CF
:10274C0004F0B8F9030023700CE00F23FC1880236D
:10275C009B00094A1900100004F0ACF90300237027
:10276C0000E0C0460F23FB181B781800BD4605B0CF
:10277C0090BDC04648EE0008000C0050B0B582B0C9
:10278C0000AF7B1D00221A700420FFF797FF030097
:10279C00013B5A1E9341DBB21900E14B5D22995467
:1027AC000520FFF78BFF03001900DD4B5E229954C7
:1027BC00DC4B1B7804221340DBB2002B01D000F061
:1027CC000CFDD94B00221A7000210420FFF738FEB3
:1027DC000020FFF74BFFFB1D00221A70D9E1FB1DF7
:1027EC001B781800FFF710FFBB1D00221A70C6E102
:1027FC00FB1D1B781A1C9218D318D9B27B1DBA1D5D
:10280C0012788A181A70FB1D1A78BB1D1878FB1DDC
:10281C001978BB1D1D78C54C0B005B005B185B1950
:10282C00DB001C5DC14913005B009B181B18DB000F
:10283C00CB180433221C1A70FB1D1C78BB1D1D7891
:10284C00BB1D1B781800FFF739FF03001900B74AAE
:10285C0023005B001B195B19DB0099547B1D1A7854
:10286C003B1DB3498A5C1A70FB1D1A78BB1D187886
:10287C00AE4913005B009B181B18DB00CB1804330C
:10288C001978FB1D1A78BB1D1C78A84813005B0037
:10289C009B181B19DB001B5C994200D0C2E0FB1D8E
:1028AC001A78BB1D1978A14813005B009B185B18A4
:1028BC00DB00C31802331B8801339CB29B48130006
:1028CC005B009B185B18DB00C3180233221C1A80B8
:1028DC00FB1D1A78BB1D1878944913005B009B18DC
:1028EC001B18DB005B5C012B00D043E18C4B64229A
:1028FC00DA808B4BE12292009A82FB1D1A78BB1D69
:10290C0018788A4913005B009B181B18DB00CB1846
:10291C00063301221A70FB1D1A78BB1D18788349E7
:10292C0013005B009B181B18DB00CB1802331B88B1
:10293C00052B42D17B4B1A7810218A431A70022343
:10294C00012200210020FEF723FE01210020FEF7CA
:10295C00BBFE3B1D1B78092B00D90BE1724B1B787E
:10296C00002B00D006E16E4B35229B5C072B19D84F
:10297C006B4B35229B5C1900694B2C225B189B1806
:10298C003A1D12781A70684B1B780133DAB2664B19
:10299C001A70634B35229B5C0133D9B2604B3522E4
:1029AC009954E7E05F4B1A7810210A431A705D4B7B
:1029BC001A7804210A431A70DCE03B1D1B780B2BA0
:1029CC0000D0D7E0FB1D1A78BB1D187857491300AF
:1029DC005B009B181B18DB00CB1802331A88FA23F8
:1029EC005B009A4200D0C5E04E4B1A7810218A4306
:1029FC001A70504B1B7802221340DBB2002B06D00E
:102A0C000223012200210020FEF7C2FD05E0022373
:102A1C00002201210020FEF7BBFD01210120FEF761
:102A2C0053FEA7E0FB1D1A78BB1D18783F49130015
:102A3C005B009B181B18DB00CB1806331B78012B93
:102A4C0000D089E0FB1D1A78BB1D1878374913009C
:102A5C005B009B181B18DB00CB18063300221A7086
:102A6C003B1D1B78092B00D876E02D4B6422DA80B5
:102A7C002B4BE12292009A823B1D1B780A2B0AD128
:102A8C00284B1A7810218A431A70264B1A78012188
:102A9C000A431A7060E03B1D1B780B2B1BD1FB1DEE
:102AAC001A78BB1D1878214913005B009B181B1862
:102ABC00DB00CB1802331A88F423FF339A420AD86E
:102ACC00184B1A7810218A431A70164B1A78022167
:102ADC000A431A7040E03B1D1B780B2B3CD1FB1DAD
:102AEC001A78BB1D1878114913005B009B181B1832
:102AFC00DB00CB1802331A88F423FF339A422BD90C
:102B0C000C4B1B7802221340DBB2002B16D1094B65
:102B1C001A7802210A431A70014B074A9A8216E06E
:102B2C00440200202802002042020020C80100209C
:102B3C00FCED0008BC000020E02E0000E04B1A78F1
:102B4C0002218A431A70DF4BE12292009A82DE4BFB
:102B5C001A787F210A401A70FB1D1A78BB1D187851
:102B6C00DA4913005B009B181B18DB00CB180233EF
:102B7C0000221A80BB1D1A78BB1D01321A70BB1DB6
:102B8C001B78022B00D833E6FB1D1A78FB1D013293
:102B9C001A70FB1D1B78032B00D820E60420FFF7CE
:102BAC0033FDCB4B1A78CA4B1A7180239B01C94A4F
:102BBC001900100003F07EFF03001A00C44B1A70BA
:102BCC00C34B1A79C24B1B789A4229D1C04B5B88F4
:102BDC00052B02D9BE4B05225A80BD4B5B880133B5
:102BEC009AB2BB4B5A80BA4B1B78012B2FD1B54BE9
:102BFC006422DA80B34BE12292009A8202230122F2
:102C0C0001210020FEF7C4FCB14B5B88052B1ED1C3
:102C1C0001210320FEF758FDAD4B01229A7116E0FD
:102C2C00AB4B00225A80AA4B9B79012B0FD1A64BA0
:102C3C001A7808210A431A70A54B00229A71A14BED
:102C4C0062229B5C0133D9B29E4B622299549C4BFD
:102C5C001B7801221340DBB2002B23D0994B5B88ED
:102C6C00002B1FD1974BFA2252005A80322301229B
:102C7C0000210020FEF78CFC01210320FEF724FD2F
:102C8C00914B5A7810210A435A708F4B1A780421B1
:102C9C000A431A700120FEF76FFD894B1A78012147
:102CAC008A431A70874BDB88002B01D1FFF78CFB12
:102CBC00854B1B7810221340DBB2002B00D055E261
:102CCC00814B1B7801221340DBB2002B53D07E4B7F
:102CDC005A7802218A435A707B4B1A7801218A4315
:102CEC001A700120FFF7B8F90300012B2ED1754B98
:102CFC005C229B5C0133D9B2724B5C229954714BB0
:102D0C005C229B5C022B0AD96E4B734A5A806D4B2A
:102D1C00724A9A826C4B1A7804210A431A70002367
:102D2C00002202210520FEF733FC01210120FEF7D1
:102D3C00CBFCFFF749FB644B5A7802210A435A70CB
:102D4C00614B5A7801210A435A70AEE15D4B5C220B
:102D5C00002199546423012201210020FEF718FC64
:102D6C00594B5A7810218A435A70574B5A78402144
:102D7C000A435A7099E1544B1B7802221340DBB280
:102D8C00002B00D162E1504B5A7802218A435A70D1
:102D9C004D4B1A7802218A431A704B4B5B782022D8
:102DAC001340DBB2002B4DD0474B5A7820218A437D
:102DBC005A700420FFF750F90300012B2ED1414B20
:102DCC005C229B5C0133D9B23E4B5C2299543D4B47
:102DDC005C229B5C022B0AD93A4B3F4A5A80394BF6
:102DEC003E4A9A82384B1A7804210A431A700823F7
:102DFC00002202210520FEF7CBFB01210120FEF76A
:102E0C0063FCFFF7E1FA304B5A7802210A435A70FF
:102E1C002D4B5A7801210A435A7046E1294B5C220A
:102E2C00002199540423012201210020FEF7B0FB5C
:102E3C0002210020FEF748FC234B5A7801210A435B
:102E4C005A7032E1204B5B7840221340DBB2002BEE
:102E5C0000D087E00020FFF7FFF80300012B3FD1E3
:102E6C00184B5C229B5C0133D9B2164B5C229954F3
:102E7C00144B5C229B5C022B0AD9124B164A5A80CB
:102E8C00104B164A9A82104B1A7804210A431A7076
:102E9C000823002202210520FEF77AFB01210120E4
:102EAC00FEF712FCFFF790FA074B5A7802210A43FF
:102EBC005A70054B5A7801210A435A70F5E0C04606
:102ECC00BC0000204402002028020020C801002081
:102EDC00B802002000080050983A0000E1050000FC
:102EEC00D14B5C2200219954D04B1B88D04A934281
:102EFC0017D8CD4B962252005A80CB4BE122920030
:102F0C009A823C23002202210E20FEF741FB122163
:102F1C000020FEF7D9FBC74B1A7801210A431A701F
:102F2C001AE0C14BFA2252005A80322301220021AE
:102F3C000020FEF72DFB01210320FEF7C5FBBE4B45
:102F4C005A7810210A435A70BB4B1A7804210A4351
:102F5C001A700120FEF710FCB74B5A7801210A4376
:102F6C005A70A2E0B44B5B787F229343DBB2002B08
:102F7C0013D10220FFF770F86423012201210020F5
:102F8C00FEF706FBA84B5C2200219954AA4B5A78F9
:102F9C00802149420A435A7087E00320FFF75CF80E
:102FAC00031E22D1A04B5C22002199540423012240
:102FBC0001210020FEF7ECFA02210020FEF784FB31
:102FCC009D4B5A7840218A435A709B4B5A787F21EB
:102FDC000A405A70984B5A7808218A435A70964B7B
:102FEC005A7801210A435A705FE08F4B5C229B5C3C
:102FFC000133D9B28C4B5C2299548B4B5C229B5C79
:10300C00022B07D9884B8D4A5A808B4B1A78042196
:10301C000A431A700823002202210520FEF7B8FA91
:10302C0001210120FEF750FBFFF7CEF9824B5A78B5
:10303C0002210A435A70804B5A7801210A435A7074
:10304C007D4B5A7810218A435A702EE07A4B1B78AC
:10305C0008221340DBB2002B27D0734B5C220021DB
:10306C009954754B5A7802218A435A70724B1A78CC
:10307C0008218A431A706423012201210020FEF7E3
:10308C0087FA6D4B5A7810218A435A706A4B5A78DA
:10309C0040218A435A70684B5A787F210A405A70F3
:1030AC00654B5A7820210A435A705F4B5E229B5C19
:1030BC00012B0DD15C4B9B88002B00D048E15A4B67
:1030CC0060229B5A013399B2574B602299523FE1CF
:1030DC00554B60229B5A0F2B3FD9534B60229B5A66
:1030EC00452B3AD8504B5F22012199544F4B1B88EA
:1030FC004F4A934213D84C4B962252005A803C2391
:10310C00002202210E20FEF743FA12210020FEF7C6
:10311C00DBFA484B1A7801210A431A701AE0424B29
:10312C00FA2252005A803223012200210020FEF79D
:10313C002FFA01210320FEF7C7FA3F4B5A781021D2
:10314C000A435A703C4B1A7804210A431A70012026
:10315C00FEF712FBFFF738F903E0334B5F22002137
:10316C009954314B602200219952F1E00020FEF776
:10317C0073FF0300012B2AD12F4B5A7802210A43EB
:10318C005A70294B5C229B5C0133D9B2264B5C22D2
:10319C009954254B5C229B5C022B02D9224B274A6B
:1031AC005A800823002201210520FEF7F1F90121A4
:1031BC000120FEF789FAFFF707F91F4B1A78042153
:1031CC000A431A701C4B5A7801210A435A701A4B45
:1031DC001A7810218A431A70BAE0174B5B780222D6
:1031EC001340DBB2002B00D1B2E0134B5A78022112
:1031FC000A435A700C4B5F229B5C002B00D076E08C
:10320C00094B5E229B5C012B1AD1074B9B88002B30
:10321C0000D09DE0044B60229B5A013399B2024BC3
:10322C006022995294E0C04644020020AC02002077
:10323C00BD0A0000BC00002028020020983A0000C3
:10324C00454B60229B5A0F2B48D9434B60229B5A0B
:10325C00452B43D8404B1B8A002B43D13E4B5F225E
:10326C00012199543D4B1B883D4A934213D83A4B4C
:10327C0096225200DA823C23002202210E20FEF715
:10328C0087F912210020FEF71FFA364B1A7801211C
:10329C000A431A701AE0304BFA225200DA823223B7
:1032AC00012200210020FEF773F901210320FEF713
:1032BC000BFA2D4B5A7810210A435A702A4B1A7864
:1032CC0004210A431A700120FEF756FAFFF77CF826
:1032DC00254B5A7802210A435A7003E01E4B5F2299
:1032EC00002199541C4B60220021995230E01D4B57
:1032FC001B7801221340DBB2002B29D0164B5A222B
:10330C009B5A002B24D1144BFA225200DA8232231E
:10331C00012200210020FEF73BF901210320FEF7DA
:10332C00D3F9114B5A7810210A435A700E4B1A7864
:10333C0004210A431A700120FEF71EFA094B1A7871
:10334C0001218A431A70084B5A7802210A435A7099
:10335C00C046BD4602B0B0BD44020020AC02002005
:10336C00BD0A0000BC00002028020020B0B582B0CD
:10337C0000AFFB1D00221A70944B00221A70002122
:10338C000420FFF75DF80020FFF770F9BB1D032246
:10339C001A70BB1D1B781800FFF736F97B1D022233
:1033AC001A70BB1D1B781A1C9218D318D9B2FB1DAE
:1033BC007A1D12788A181A70BB1D1A787B1D187822
:1033CC00BB1D19787B1D1D78814C0B005B005B18B5
:1033DC005B19DB001C5D7E4913005B009B181B18FE
:1033EC00DB00CB180433221C1A70BB1D1C787B1D10
:1033FC001D787B1D1B781800FFF760F9030019007E
:10340C00734A23005B001B195B19DB009954FB1DED
:10341C001A783B1D6F498A5C1A70BB1D1A787B1D8C
:10342C0018786B4913005B009B181B18DB00CB183A
:10343C0004331978BB1D1A787B1D1C786448130063
:10344C005B009B181B19DB001B5C994262D1BB1DF6
:10345C001A787B1D19785E4813005B009B185B186B
:10346C00DB00C31802331B8801339CB2584813008D
:10347C005B009B185B18DB00C3180233221C1A80FC
:10348C00BB1D1A787B1D1878514913005B009B18E3
:10349C001B18DB005B5C012B00D089E04E4B6422D7
:1034AC00DA804D4B4D4A9A82BB1D1A787B1D1878D9
:1034BC00474913005B009B181B18DB00CB18023329
:1034CC001A88FA235B009A4272D1BB1D1A787B1DB5
:1034DC0018783F4913005B009B181B18DB00CB18B6
:1034EC00063301221A703E4B1A7810218A431A7047
:1034FC003C4B1B7802221340DBB2002B05D002237D
:10350C00012200210020FEF743F801210120FEF7E3
:10351C00DBF84DE0BB1D1A787B1D18782C49130085
:10352C005B009B181B18DB00CB1806331B78012B98
:10353C0030D1BB1D1A787B1D1878254913005B0010
:10354C009B181B18DB00CB18063300221A703B1D8E
:10355C001B780B2B1ED1BB1D1A787B1D18781C49B0
:10356C0013005B009B181B18DB00CB1802331A8866
:10357C00F423FF339A420DD91A4B1A7802218A434D
:10358C001A70154BE12292009A82154B1A787F2102
:10359C000A401A70BB1D1A787B1D18780C49130051
:1035AC005B009B181B18DB00CB18023300221A801F
:1035BC000420FFF729F8084BDB88002B01D1FEF71C
:1035CC0003FFC046BD4602B0B0BDC046420200205B
:1035DC00C8010020FCED000844020020E02E000091
:1035EC0028020020BC00002080B500AF01F06EF86E
:1035FC0000F068F8FDF7D6FDFEF71AFA00F01CFB98
:10360C0000F0F0FB00F0BCFFFDF744FC00F026FCE2
:10361C00214B822252001A8000F04CFE1F4B1800E6
:10362C0000F01CFD1D4B180006F0D4FB1C4B1800C1
:10363C00FDF7AEFCFDF71CFD1A4B1800FEF738FA2F
:10364C00194B180004F082FF184B0021180006F0EB
:10365C0097FE174B0422012118000AF081FA154B32
:10366C0000221A70FEF7C2FA134B144A1A80124B3E
:10367C00124A5A800F4BE12292009A820020FDF7E9
:10368C002BFD0F4B1A7802218A431A70094B142216
:10369C009A8000F0A7F8FCE7B4020020B0040020E8
:1036AC0064010020C002002058030020CC0300203D
:1036BC0040EA000844020020AC020020E40C0000A8
:1036CC00BC00002080B5A0B000AF4823FB18180048
:1036DC0038231A0000210AF03BFA3823FB18180093
:1036EC0010231A0000210AF033FA3B1D1800342372
:1036FC001A0000210AF02CFA80239B00180004F019
:10370C0035FF4823FB180A221A604823FB18802235
:10371C005200DA604823FB1800221A614823FB1878
:10372C0040225A614823FB1801229A614823FB1856
:10373C000022DA614823FB18180004F09FFF031ED7
:10374C0001D000F0C3F83823FB1807221A60382385
:10375C00FB1800225A603823FB1800229A60382389
:10376C00FB180022DA603823FB180021180005F042
:10377C00DFFB031E01D000F0A9F83B1D0E4A1A60B6
:10378C003B1D00229A603B1D00221A613B1D00224A
:10379C001A623B1D00229A623B1D0022DA623B1D1D
:1037AC00180005F00FFE031E01D000F08FF8C04684
:1037BC00BD4620B080BDC0462240600080B582B0BE
:1037CC0000AF7860054B391D0548012208F0E6FD75
:1037DC007B681800BD4602B080BDC046FFFF0000EC
:1037EC00FC04002080B500AF344B3D229B5C002BC9
:1037FC0013D0334B9B8A002B0BD0324B1B780222FD
:10380C001340DBB2002B02D1FEF7B8FF01E0FFF74B
:10381C00ADFD2A4B3D2200219954284B3C229B5C48
:10382C00002B03D0254B3C2200219954234B3B22E7
:10383C009B5C002B06D00020FDF74EFC1F4B3B225F
:10384C0000219954FDF7D0FFFDF7ECFFFEF792F83D
:10385C001A4B3A229B5C002B1ED01A4B1B7804226D
:10386C001340DBB2002B13D1164B1B7802221340F2
:10387C00DBB2002B06D10223022200210120FDF72E
:10388C0087FE05E00223002202210120FDF780FEC5
:10389C000A4B3A22002199540B4B5B7801221340BE
:1038AC00DBB2002B06D0FEF79FFA074B5A780121AA
:1038BC008A435A70C046BD4680BDC04618010020E0
:1038CC0044020020BC0000202802002080B500AF7C
:1038DC0072B6FEE780B582B000AF78603960C04642
:1038EC00BD4602B080BD000080B582B000AF1D4B5C
:1038FC001C4A126C01210A431A641A4B1B6C0122DC
:10390C0013407B607B68174B164AD26B80214905AC
:10391C000A43DA63134BDA6B80235B0513403B607D
:10392C003B6800220321012002F0B2FC012002F0CE
:10393C00CFFC00220321032002F0AAFC032002F09A
:10394C00C7FC00220321042002F0A2FC042002F098
:10395C00BFFCC023DB00180000F03EFFC046BD4694
:10396C0002B080BD0010024080B500AFFEE780B50C
:10397C0000AFFEE780B500AFC046BD4680BD80B548
:10398C0000AFC046BD4680BD80B500AF00F008FF5B
:10399C00C046BD4680BD80B500AF04F039FEC046C0
:1039AC00BD4680BD80B500AF02F098FDC046BD4657
:1039BC0080BD80B500AFC046BD4680BD80B500AFB0
:1039CC00034B180001F084FDC046BD4680BDC046C7
:1039DC006401002080B500AF034B180006F0CAFD4F
:1039EC00C046BD4680BDC0466404002080B500AF13
:1039FC00034B180006F0BEFDC046BD4680BDC04658
:103A0C006404002080B500AF034B180006F0B2FD33
:103A1C00C046BD4680BDC0461804002080B500AF2E
:103A2C00044B180006F0A6FD00F08CFCC046BD4609
:103A3C0080BDC046B004002080B500AF034B180019
:103A4C0006F098FDC046BD4680BDC046CC030020A4
:103A5C0080B500AF094B1B689A69E023DB0013406B
:103A6C0004D0064B180003F065FC03E0034B180070
:103A7C0003F046FCC046BD4680BDC046C0020020D7
:103A8C0080B500AF094B1B689A69E023DB0013403B
:103A9C0004D0064B180003F04DFC03E0034B180058
:103AAC0003F02EFCC046BD4680BDC0460C03002072
:103ABC0080B500AF034B180005F0A2FFC046BD4611
:103ACC0080BDC0466803002080B500AF034B1800D2
:103ADC0008F00EFDC046BD4680BDC046FC0400206B
:103AEC0080B582B000AF7860034B01221A70C046DB
:103AFC00BD4602B080BDC0465C01002090B587B0C9
:103B0C0000AFF860B9607A6000237B610AE0BC68A2
:103B1C00631CBB6000E000BF0300DBB223707B6959
:103B2C0001337B617A697B689A42F0DB7B68180011
:103B3C00BD4607B090BD80B586B000AFF860B960E7
:103B4C007A6000237B6109E0BB685A1CBA601B7861
:103B5C001800FFF733FE7B6901337B617A697B6860
:103B6C009A42F1DB7B681800BD4606B080BD0000B0
:103B7C0080B584B000AF7860114B1B68002B02D16C
:103B8C000F4B104A1A600E4B1B68FB600C4B1A68EB
:103B9C007B68D3186A46934207D909F0AFFF03003C
:103BAC000C221A6001235B4206E0054B1A687B6805
:103BBC00D218034B1A60FB681800BD4604B080BDD8
:103BCC008C0000209405002080B582B000AF786096
:103BDC0001235B421800BD4602B080BD80B582B0A7
:103BEC0000AF786039603B68802292015A600023F4
:103BFC001800BD4602B080BD80B582B000AF7860C1
:103C0C0001231800BD4602B080BD80B584B000AF62
:103C1C00F860B9607A6000231800BD4604B080BD1E
:103C2C0080B500AF034B802212059A60C046BD469A
:103C3C0080BDC04600ED00E080B598B000AF5423C5
:103C4C00FB1818000C231A00002109F081FF3823FF
:103C5C00FB1818001C231A00002109F079FF3B1DEA
:103C6C00180034231A00002109F072FF5B4B5C4AE8
:103C7C001A605A4B03225A60584B00229A60574BD9
:103C8C009022FF32DA60554B00221A61534B00220E
:103C9C005A61524B00229A61504B180006F036F9CB
:103CAC00031E01D0FFF712FE5423FB1800221A60EA
:103CBC005423FB1800225A605423FB1800229A60EC
:103CCC005423FA18454B1100180007F0B9FF031ED6
:103CDC0001D0FFF7FBFD3823FB1860221A60382354
:103CEC00FB1800225A603823FB1800229A603823F4
:103CFC00FB180022DA603823FB1800221A613823E3
:103D0C00FB1800225A613823FB1800229A613823D1
:103D1C00F918324B0022180006F05EFD031E01D08C
:103D2C00FFF7D4FD3823F9182C4B0422180006F0A9
:103D3C0053FD031E01D0FFF7C9FD3823F918274B9B
:103D4C000822180006F048FD031E01D0FFF7BEFD47
:103D5C003823F918214B0C22180006F03DFD031EE8
:103D6C0001D0FFF7B3FD3B1D00221A603B1D002262
:103D7C005A603B1D00229A603B1D0022DA603B1DFD
:103D8C0000221A613B1D802292015A613B1D0022C8
:103D9C009A613B1D0022DA613B1D00221A623B1D19
:103DAC00802292045A623B1D00229A623B1D002223
:103DBC00DA623B1D00221A633A1D084B11001800F1
:103DCC0008F07EF8031E01D0FFF780FD034B1800AE
:103DDC0000F0A4F9C046BD4618B080BD64040020B4
:103DEC00002C014080B584B000AF3B1D18000C23A3
:103DFC001A00002109F0ACFE154B164A1A60144B40
:103E0C000F225A60124B00229A60114B124ADA6050
:103E1C000F4B80229A610E4B180005F0F9FE031E21
:103E2C0001D0FFF753FD3B1D00221A603B1D002201
:103E3C009A603A1D064B1100180007F001FF031E93
:103E4C0001D0FFF743FDC046BD4604B080BDC0465F
:103E5C00B004002000140040E703000080B59CB0C3
:103E6C0000AF6023FB18180010231A00002109F082
:103E7C006FFE5423FB1818000C231A00002109F0C4
:103E8C0067FE3823FB1818001C231A00002109F0C8
:103E9C005FFE3B1D180034231A00002109F058FE68
:103EAC00544B554A1A60534B0F225A60514B002207
:103EBC009A60504BF922DA604E4B00221A614D4B3E
:103ECC0000225A614B4B00229A614A4B180005F0B4
:103EDC009FFE031E01D0FFF7F9FC6023FB18802224
:103EEC0052011A606023FA18424B1100180006F0B8
:103EFC0073FE031E01D0FFF7E9FC3E4B180006F0E1
:103F0C0005F8031E01D0FFF7E1FC5423FB18002237
:103F1C001A605423FB1800229A605423FA18354B6C
:103F2C001100180007F08CFE031E01D0FFF7CEFC29
:103F3C003823FB1860221A603823FB187C225A6045
:103F4C003823FB1802229A603823FB180022DA600F
:103F5C003823FB1800221A613823FB1800225A61FF
:103F6C003823FB1800229A613823F918214B0022C0
:103F7C00180006F031FC031E01D0FFF7A7FC382314
:103F8C00FB1800225A603823F9181A4B0422180027
:103F9C0006F022FC031E01D0FFF798FC3B1D00220B
:103FAC001A603B1D00225A603B1D00229A603B1D8B
:103FBC000022DA603B1D00221A613B1D8022920117
:103FCC005A613B1D00229A613B1D00221A633A1D67
:103FDC00084B1100180007F073FF031E01D0FFF708
:103FEC0075FC044B180000F099F8C046BD461CB097
:103FFC0080BDC046CC0300200040014080B584B099
:10400C0000AF78607B681B68124A93421DD1124B3B
:10401C00114A126C802109010A431A640E4B1A6C66
:10402C0080231B011340FB60FB68002203210D2041
:10403C0002F02EF90D2002F04BF9002203210E2084
:10404C0002F026F90E2002F043F9C046BD4604B03A
:10405C0080BDC046002C01400010024080B586B0E7
:10406C0000AF78607B681B68284A934214D1284BB8
:10407C00274AD26B02210A43DA63254BDB6B0222FF
:10408C0013407B617B6900220321102002F000F9B0
:10409C00102002F01DF934E07B681B681D4A934226
:1040AC0014D11B4B1A4AD26B20210A43DA63184BEA
:1040BC00DB6B202213403B613B6900220021122064
:1040CC0002F0E6F8122002F003F91AE07B681B6894
:1040DC00114A934215D10E4B0D4A126C80214902A4
:1040EC000A431A640A4B1A6C80235B021340FB6070
:1040FC00FB6800220321142002F0CAF8142002F0FD
:10410C00E7F8C046BD4606B080BDC046000400407E
:10411C0000100240001400400040014080B58CB0FB
:10412C0000AF78601C23FB18180014231A00002120
:10413C0009F00EFD7B681B68594A934251D1594BCB
:10414C00584A526B04210A435A63564B5B6B042248
:10415C001340BB61BB69534B524A526B01210A435A
:10416C005A63504B5B6B012213407B617B691C23B0
:10417C00FB18802212011A601C23FB1802225A60C1
:10418C001C23FB1800229A601C23FB180022DA6007
:10419C001C23FB1802221A611C23FB18424A19002B
:1041AC00100002F061FA1C23FB18E022D2001A6006
:1041BC001C23FB1802225A601C23FB1800229A6055
:1041CC001C23FB180022DA601C23FB1802221A6144
:1041DC001C23FA18A023DB051100180002F044FA86
:1041EC0059E07B681B68314A934228D12D4B2D4AEC
:1041FC00526B04210A435A632A4B5B6B0422134013
:10420C003B613B691C23FB18E02252001A601C2303
:10421C00FB1802225A601C23FB1800229A601C23F4
:10422C00FB180022DA601C23FB1801221A611C23E4
:10423C00FB181D4A1900100002F016FA2BE07B68DF
:10424C001B681B4A934226D1164B164A526B04210B
:10425C000A435A63134B5B6B04221340FB60FB68ED
:10426C001C23FB1806221A601C23FB1802225A601E
:10427C001C23FB1800229A601C23FB180022DA6016
:10428C001C23FB1802221A611C23FB18064A190076
:10429C00100002F0E9F9C046BD460CB080BDC04626
:1042AC00002C0140001002400008005000040040A7
:1042BC000040014090B500AF1E4A002300249360DB
:1042CC00D4601C4A0023002413615461194A002352
:1042DC0000249361D461174A0023002413635463B0
:1042EC00144A002300249362D462124B3D22002115
:1042FC009954104B3C22002199540E4B3B22002127
:10430C0099540C4B3A22002199540A4B3922002122
:10431C009954084B382200219954074B00221A70EB
:10432C00064B00221A70064B01221A70C046BD467D
:10433C0090BDC04618010020A9020020BE0000203C
:10434C00B6020020B0B500AF874B1B89002B05D0FF
:10435C00854B1B89013B9AB2834B1A81834B98681E
:10436C00D9680022824BFCF75BF903000C007F4AF2
:10437C009360D4607D4B9868D96800227D4BFCF724
:10438C005BF8031E00D1ECE0784A00230024936014
:10439C00D460764B3D2201219954774BDB88002B5E
:1043AC0005D0754BDB88013B9AB2734BDA806E4BB0
:1043BC00DB8F002B05D06C4BDB8F013B9AB26A4B29
:1043CC00DA87694B5B88002B06D0674B5B88013B17
:1043DC009AB2654B5A8021E0684B1B78042213403B
:1043EC00DBB2002B1AD0654B5B7802221340DBB298
:1043FC00002B0ED00223012201210020FDF7C8F86A
:10440C0002210020FDF760F95C4B5A7802218A43A7
:10441C005A705A4B1A7804218A431A70524BDB8A11
:10442C00002B05D0504BDB8A013B9AB24E4BDA8203
:10443C004E4B1869596900224D4BFCF7F1F80300FB
:10444C000C004A4A13615461484B1869596900229F
:10445C00484BFBF7F1FF031E00D182E0434A0023D7
:10446C00002413615461414B3C22012199543E4B71
:10447C00DB88002B05D03C4BDB88013B9AB23A4BD6
:10448C00DA80394B5B89002B05D0374B5B89013BBC
:10449C009AB2354B5A81344B9B89002B05D0324B49
:1044AC009B89013B9AB2304B9A812F4B1B8A002B74
:1044BC0005D02D4B1B8A013B9AB22B4B1A822A4BEF
:1044CC009B8A002B05D0284B9B8A013B9AB2264B2A
:1044DC009A82254B9B88002B05D0234B9B88013B54
:1044EC009AB2214B9A80214B9869D9690022204BB2
:1044FC00FCF796F803000C001C4A9361D4611B4B2B
:10450C009869D96900221B4BFBF796FF031E00D15B
:10451C0027E0164A002300249361D461134B3B22FD
:10452C0001219954114B1B8C01339AB20F4B1A84F5
:10453C000E4B1B8C3B2B06D90C4B00221A840B4BBD
:10454C00382201219954094B1B8C05211800FBF7CB
:10455C0059FE0B009BB2002B03D1044B3A220121D4
:10456C009954C046BD46B0BD44020020180100203D
:10457C000000F03F000022400C0100202802002027
:10458C0080B500AF234B244A1A60224BE122520221
:10459C005A60204B00229A601E4B0022DA601D4BA1
:1045AC0000221A611B4B0C225A611A4B00229A6191
:1045BC00184B0022DA61174B00221A62154B0022AD
:1045CC005A62144B00229A62124B180007F03EFEFE
:1045DC00031E01D0FFF77AF90E4B0021180009F0E9
:1045EC00EBF8031E01D0FFF771F90A4B00211800FC
:1045FC0009F064F9031E01D0FFF768F9054B1800A8
:10460C0009F082F8031E01D0FFF760F9C046BD46E1
:10461C0080BDC046FC0400200044004080B58AB038
:10462C0000AF78601423FB18180014231A00002123
:10463C0009F08EFA7B681B68224A93423DD1224BCB
:10464C00214AD26B802189020A43DA631E4BDA6B52
:10465C0080239B0213403B613B691B4B1A4A526BF4
:10466C0001210A435A63184B5B6B01221340FB6018
:10467C00FB681423FB180C221A601423FB1802226B
:10468C005A601423FB1801229A601423FB18002291
:10469C00DA601423FB1801221A611423FA18A023E0
:1046AC00DB051100180001F0DFFF002201211C20A6
:1046BC0001F0EEFD1C2001F00BFEC046BD460AB019
:1046CC0080BDC046004400400010024080B582B05E
:1046DC0000AFFB1D00221A700B4B0B4A1268802195
:1046EC0049000A431A60002000F010F8031E03D0A2
:1046FC00FB1D01221A7001E0FFF7F6F8FB1D1B7879
:10470C001800BD4602B080BD0020024090B585B0B7
:10471C0000AF78600F23FB1800221A701D4B1B781A
:10472C00002B2BD01C4B1C681A4B1B781900FA233E
:10473C009800FBF7E1FC030019002000FBF7DCFC00
:10474C000300180001F0E0FD031E12D17B68032B5F
:10475C000AD8796801235B420022180001F098FD09
:10476C000E4B7A681A600DE00F23FB1801221A70A9
:10477C0008E00F23FB1801221A7003E00F23FB182B
:10478C0001221A700F23FB181B781800BD4605B0C8
:10479C0090BDC0460800002000000020040000204E
:1047AC0080B500AF054B1B781A00054B1B68D2185F
:1047BC00034B1A60C046BD4680BDC04608000020B1
:1047CC008C05002080B500AF024B1B681800BD465D
:1047DC0080BDC0468C05002080B582B000AF7860EB
:1047EC007A6880239B009A4210D07A688023DB0081
:1047FC009A420BD07A68C023DB009A4206D0B823C9
:10480C009A00084B11001800FFF764F8064B064A93
:10481C001268064911407A680A431A60C046BD46C0
:10482C0002B080BD64EA000800000140FFF9FFFF00
:10483C0080B582B000AF786039607B681B68054A30
:10484C001A403B681A437B681A60C046BD4602B0EA
:10485C0080BDC046FFFF3FFE80B582B000AF7860E0
:10486C007B681A68E0235B0413401800BD4602B055
:10487C0080BD80B584B000AFF860B9607A60FB6829
:10488C005B69BA6804210A40072191400A00D243AF
:10489C001A40BB6804210B40796899400B001A43FD
:1048AC00FB685A61C046BD4604B080BD80B582B07D
:1048BC0000AF78607B68DA68C0231B01134001D11C
:1048CC00012300E000231800BD4602B080BD80B576
:1048DC0084B000AFF860B9607A60FB689B6ABA6814
:1048EC001F210A400F2191400A00D2431A407B68D5
:1048FC009B0E0F211940BB681F20034099400B00F1
:10490C001A43FB689A62C046BD4604B080BD80B5B0
:10491C0082B000AF786039607B689A6A3B685B0351
:10492C005B0B1A437B689A62C046BD4602B080BDE1
:10493C0080B582B000AF786039607B689B6A3A685A
:10494C005203520BD2431A407B689A62C046BD4652
:10495C0002B080BD80B582B000AF78607B68DB6848
:10496C00032213401800BD4602B080BD80B584B050
:10497C0000AFF860B9607A60FB685B69BA681202D4
:10498C00D2431A40BB681B0279680B4004490B40A8
:10499C001A43FB685A61C046BD4604B080BDC04690
:1049AC0000FFFF0780B582B000AF78607B689B6822
:1049BC00054A1340802252051A437B689A60C04610
:1049CC00BD4602B080BDC046E8FFFF6F80B582B027
:1049DC0000AF78607B689A6880235B051A4080235F
:1049EC005B059A4201D1012300E000231800BD466B
:1049FC0002B080BD80B582B000AF78607B689B68E8
:104A0C00044A134001221A437B689A60C046BD4693
:104A1C0002B080BDE8FFFF7F80B582B000AF786048
:104A2C007B689B68044A134002221A437B689A6095
:104A3C00C046BD4602B080BDE8FFFF7F80B582B0A6
:104A4C0000AF78607B689B6801221340012B01D179
:104A5C00012300E000231800BD4602B080BD80B5E4
:104A6C0082B000AF78607B689B6802221340022BF7
:104A7C0001D1012300E000231800BD4602B080BD27
:104A8C0080B582B000AF78607B689B68044A1340A5
:104A9C0004221A437B689A60C046BD4602B080BDB2
:104AAC00E8FFFF7F80B582B000AF78607B689B68C1
:104ABC00044A134010221A437B689A60C046BD46D4
:104ACC0002B080BDE8FFFF7F80B582B000AF786098
:104ADC007B689B6804221340042B01D1012300E066
:104AEC0000231800BD4602B080BD000080B588B020
:104AFC0000AF78601F23FB1800221A700023BB61E3
:104B0C0000237B610023BB607B68002B02D1012357
:104B1C0000F0D7FB7B681B68C34A934206D0C923BD
:104B2C005A00C24B11001800FEF7D4FE7B685A687D
:104B3C00C0231B069A4259D07B685A688023DB0538
:104B4C009A4253D07B685A6880231B069A424DD0F8
:104B5C007B685B68002B49D07B685A688023DB023A
:104B6C009A4243D07B685A6880231B039A423DD0FB
:104B7C007B685A68C0231B039A4237D07B685A68FB
:104B8C0080235B039A4231D07B685A68A0235B0375
:104B9C009A422BD07B685A68C0235B039A4225D07B
:104BAC007B685A68E0235B039A421FD07B685A6883
:104BBC0080239B039A4219D07B685A6890239B03ED
:104BCC009A4213D07B685A68A0239B039A420DD05B
:104BDC007B685A68B0239B039A4207D09423FF3317
:104BEC001A00924B11001800FEF774FE7B689B684C
:104BFC00002B12D07B689B68082B0ED07B689B68BF
:104C0C00102B0AD07B689B68182B06D0CA235A003D
:104C1C00864B11001800FEF75DFE7B68DB68002BED
:104C2C000BD07B68DB68202B07D09623FF331A0050
:104C3C007E4B11001800FEF74DFE7B681B69002BA4
:104C4C0017D07B681A6980239B039A4211D07B682A
:104C5C001A6980231B069A420BD07B681B69744A25
:104C6C00934206D0CB235A00704B11001800FEF76C
:104C7C0031FE7B689B7E002B0BD07B689B7E012BCF
:104C8C0007D09823FF331A00684B11001800FEF769
:104C9C0021FE7B689B6A002B18D07B689A6A802364
:104CAC00DB009A4212D07B689A6A80231B019A42DD
:104CBC000CD07B689A6AC0231B019A4206D0CC2385
:104CCC005A005A4B11001800FEF704FE7B685A6A12
:104CDC008023DB009A422FD07B685A6A8823DB0042
:104CEC009A4229D07B685A6A9023DB009A4223D0DF
:104CFC007B685A6A9823DB009A421DD07B685A6AFB
:104D0C00A823DB009A4217D07B685A6AA023DB00E9
:104D1C009A4211D07B685A6AB823DB009A420BD0B6
:104D2C007B685B6A002B07D09A23FF331A003F4B3A
:104D3C0011001800FEF7CEFD7B682C229B5C002B2B
:104D4C000BD07B682C229B5C012B06D0CD235A0008
:104D5C00364B11001800FEF7BDFD7B685B69042B18
:104D6C000BD07B685B69082B07D09C23FF331A00A0
:104D7C002E4B11001800FEF7ADFD7B681B6B002B52
:104D8C000CD07B681A6B80235B019A4206D0CE2331
:104D9C005A00264B11001800FEF79CFD7B681B7E09
:104DAC00002B0BD07B681B7E012B07D09E23FF337F
:104DBC001A001E4B11001800FEF78CFD7B685B7E01
:104DCC00002B0AD07B685B7E012B06D0CF235A00C8
:104DDC00164B11001800FEF77DFD7B685B6B002BFA
:104DEC002AD07B685B6B012B26D07B685B6B022B1C
:104DFC0022D07B685B6B032B1ED07B685B6B042B18
:104E0C001AD07B685B6B052B16D07B685B6B062B13
:104E1C0012D07B685B6B072B0ED0A023FF331A00DC
:104E2C00024B1100180005E00024014098EA00082C
:104E3C0004000080FEF74EFD7B689B6B002B22D09C
:104E4C007B689B6B012B1ED07B689B6B022B1AD053
:104E5C007B689B6B032B16D07B689B6B042B12D04F
:104E6C007B689B6B052B0ED07B689B6B062B0AD04B
:104E7C007B689B6B072B06D0D0235A00D34B1100B9
:104E8C001800FEF727FD7B683C229B5C002B0CD0A6
:104E9C007B683C229B5C012B07D0A223FF331A00BA
:104EAC00CA4B11001800FEF715FD7B68DB6C002B5C
:104EBC000DD07B68DA6C80239B059A4207D0A42323
:104ECC00FF331A00C14B11001800FEF703FD7B687D
:104EDC001B69002B27D07B6820229B5C002B0CD0FD
:104EEC007B6820229B5C012B07D0A823FF331A0080
:104EFC00B64B11001800FEF7EDFC7B681A69802395
:104F0C009B039A420FD17B68DB69002B03D07B6833
:104F1C00DB69082B07D9AC23FF331A00AB4B11000C
:104F2C001800FEF7D7FC7B6820229B5C012B0BD171
:104F3C007B689B7E012B07D1B223FF331A00A34B56
:104F4C0011001800FEF7C6FC7B689B6D002B0AD184
:104F5C007B681800FCF71CF87B680022DA657B681C
:104F6C005422002199547B681B681800FFF72EFD12
:104F7C00031E14D17B681B681800FFF713FD944BBC
:104F8C001B6894491800FBF7B7F803005B00BB6083
:104F9C0002E0BB68013BBB60BB68002BF9D17B68AE
:104FAC001B681800FFF712FD031E0FD17B689B6D69
:104FBC0010221A437B689A657B68DB6D01221A43C9
:104FCC007B68DA651F23FB1801221A707B681B684B
:104FDC001800FFF779FD0300FB607B689B6D1022C6
:104FEC00134000D060E1FB68002B00D05CE17B68D3
:104FFC009B6D794A134002221A437B689A657B6841
:10500C001B681800FFF71AFD031E4FD17B681B6845
:10501C007A681268D26818218A4311007A689268FB
:10502C000A43DA607B685B689B0F9A077B681B6C92
:10503C001A437B685B6C1A437B689B6C1A437B68D6
:10504C00DB6C13437A6913437B617B683C229B5C6A
:10505C00012B03D17B69012213437B617B681B68A5
:10506C007A68126812695D4911407A690A431A61BB
:10507C007B685A68C0231B069A4217D07B685A6813
:10508C008023DB059A4211D07B685A6880231B066B
:10509C009A420BD0524A524B1B68524919407B68BA
:1050AC005868F0239B0303400B4313607B681B7E03
:1050BC009A037B685B7EDB031A437B689B7E5B03F6
:1050CC001A437B681B6B002B02D080235B0100E032
:1050DC0000231A437B68DB681A437B681B69002B2F
:1050EC0004DA7B681B695B005B0801E080239B038F
:1050FC001A437B682C215B5C5B001343BA69134336
:10510C00BB617B6820229B5C012B15D17B689B7E4D
:10511C00002B05D1BB69802252021343BB610BE00B
:10512C007B689B6D20221A437B689A657B68DB6DDC
:10513C0001221A437B68DA657B685B6A002B0AD014
:10514C007B685A6AE0235B001A407B689B6A1343B6
:10515C00BA691343BB617B681B687A681268D268B2
:10516C0021491140BA690A43DA607B681B687A6886
:10517C00126812691D4911407A690A431A617B68E9
:10518C0018687B685B6B1A000021FFF772FB7B6869
:10519C0018687B689B6B16491A00FFF76AFB7B68E3
:1051AC001B69002B09D17B681B687A681268926AAC
:1051BC00102149420A439A624FE07B681A698023A6
:1051CC009B039A4249D100233B6120E098EA0008F6
:1051DC0000000020400D0300FDFEFFFF02FCFF1F3E
:1051EC0008270140FFFFC3FF1902FEFF02FCFFDF8F
:1051FC0004FFFF077B681A6E3B699B00DA401300C3
:10520C000F2213400F2B06D03B6901333B613B69E6
:10521C00072BEFD900E0C0463B69012B09D17B6815
:10522C001B687A681268926A102149420A439A6292
:10523C0013E07B681B689B6A7B681B687A68D26981
:10524C0022498C46624492001C210A40102149429A
:10525C0091407A68126E0A439A627B681B68DB681D
:10526C001B4A1A40BB699A420BD17B680022DA6553
:10527C007B689B6D0322934301221A437B689A65DA
:10528C001CE07B689B6D1222934310221A437B68AF
:10529C009A657B68DB6D01221A437B68DA651F23F4
:1052AC00FB1801221A7009E07B689B6D10221A43CF
:1052BC007B689A651F23FB1801221A701F23FB18A9
:1052CC001B781800BD4608B080BDC046FFFFFF3FED
:1052DC00E7FF3F8390B585B000AF78607B681B68B3
:1052EC003D4A934205D03D4A3D4B11001800FEF754
:1052FC00F1FA7B681B681800FFF7E6FB031E60D110
:10530C007B6854229B5C012B01D1022360E07B68FB
:10531C005422012199540F23FC187B68180000F0CB
:10532C0061FD030023700F23FB181B78002B43D166
:10533C007B689B6D2B4A1340802252001A437B687A
:10534C009A657B680022DA657B681B681C221A60F0
:10535C007B685422002199547B681B687A68126818
:10536C0052681C218A435A607B685B69082B08D100
:10537C007B681B687A681268526808210A435A6075
:10538C0008E07B681B687A681268526804210A433B
:10539C005A60C0467B681B6B002B07D17B681B686F
:1053AC007A681268526810210A435A607B681B683D
:1053BC001800FFF765FB08E07B6854220021995424
:1053CC0003E00F23FB1802221A700F23FB181B7823
:1053DC001800BD4605B090BD002401401F0600001A
:1053EC0098EA0008FEF0FFFF90B585B000AF78603A
:1053FC007B681B68244A934205D0244A244B110035
:10540C001800FEF767FA7B6854229B5C012B01D1D4
:10541C00022334E07B685422012199540F23FC1899
:10542C007B68180000F092FC030023700F23FB181C
:10543C001B78002B1CD17B681B687A681268526839
:10544C001C218A435A600F23FC187B68180000F05B
:10545C0047FD030023700F23FB181B78002B07D18B
:10546C007B689B6D0B4A134001221A437B689A653B
:10547C007B685422002199540F23FB181B781800C9
:10548C00BD4605B090BDC046002401407D0600001D
:10549C0098EA0008FEFEFFFF80B582B000AF78608E
:1054AC007B681B68074A934205D0074A074B1100DB
:1054BC001800FEF70FFA7B681B681B6C1800BD46C2
:1054CC0002B080BD002401406307000098EA000888
:1054DC0080B586B000AF786000237B617B681B6869
:1054EC001B683B617B681B685B68FB607B681B68A7
:1054FC008F4A934206D0EF23DA008E4B110018002E
:10550C00FEF7E8F97B685B69042B09D07B685B6963
:10551C00082B05D0884A874B11001800FEF7DAF9E2
:10552C003B690222134017D0FB680222134013D0B0
:10553C007B689B6D1022134006D17B689B6D80228B
:10554C0012011A437B689A657B68180000F0E4FD31
:10555C007B681B6802221A603B690422134003D04B
:10556C00FB680422134007D13B69082213404DD03D
:10557C00FB680822134049D07B689B6D10221340B6
:10558C0006D17B689B6D802292001A437B689A65DA
:10559C007B681B681800FFF789F9031E2ED07B6807
:1055AC009B7E002B2AD17B681B681B68082213404A
:1055BC00082B23D17B681B681800FFF785FA031EA4
:1055CC0010D17B681B687A68126852680C218A4378
:1055DC005A607B689B6D594A134001221A437B68C1
:1055EC009A650BE07B689B6D20221A437B689A6559
:1055FC007B68DB6D01221A437B68DA657B681800D7
:10560C00FEF76EFA7B681B680C221A603B698022DD
:10561C00134012D0FB68802213400ED07B689B6D28
:10562C00802252021A437B689A657B68180000F04E
:10563C0087F87B681B6880221A603A6980235B00BC
:10564C00134014D0FA6880235B0013400FD07B68A2
:10565C009B6D802292021A437B689A657B681800C6
:10566C0000F04AFD7B681B68802252001A603A6980
:10567C0080239B00134014D0FA6880239B001340B6
:10568C000FD07B689B6D8022D2021A437B689A658F
:10569C007B68180000F038FD7B681B688022920044
:1056AC001A603B69102213402BD0FB681022134068
:1056BC0027D07B681B6B002B02D101237B6108E098
:1056CC007B681B681800FFF745F9031E01D0012306
:1056DC007B617B69012B10D17B689B6D8022D20092
:1056EC001A437B689A657B68DB6D02221A437B68E0
:1056FC00DA657B68180000F02BF87B681B681022B9
:10570C001A603A6980239B0113400DD0FA688023FC
:10571C009B01134008D07B68180000F005FD7B68E6
:10572C001B68802292011A60C046BD4606B080BD3F
:10573C000024014098EA000879070000FEFEFFFFF4
:10574C0080B582B000AF7860C046BD4602B080BD67
:10575C0080B582B000AF7860C046BD4602B080BD57
:10576C0080B586B000AF786039601723FB18002233
:10577C001A700023FB607B681B68914A934205D02A
:10578C00904A914B11001800FEF7A4F83B681B6877
:10579C00012B00D171E03B681B688C4A934200D10D
:1057AC006BE03B681B688A4A934200D165E03B681A
:1057BC001B68884A934200D15FE03B681B68864AAD
:1057CC0093425AD03B681B68844A934255D03B683D
:1057DC001B68834A934250D03B681B68814A9342B2
:1057EC004BD03B681B68804A934246D03B681B6891
:1057FC007E4A934241D03B681B687D4A93423CD021
:10580C003B681B687B4A934237D03B681B687A4ADB
:10581C00934232D03B681B68784A93422DD03B6848
:10582C001B68774A934228D03B681B68754A9342A1
:10583C0023D03B681B68744A93421ED03B681B689C
:10584C00724A934219D03B681B68714A934214D038
:10585C003B681B686F4A93420FD03B681B686E4ACB
:10586C0093420AD03B681B686C4A934205D06C4A41
:10587C00554B11001800FEF72DF83B689B68002B68
:10588C000AD03B689B68674A934205D0664A4E4BE8
:10589C0011001800FEF71EF87B681A6980231B069E
:1058AC009A4204D07B681B69604A93420ED13B68D4
:1058BC005B68012B3FD03B685B68022B3BD05C4A9A
:1058CC00414B11001800FEF705F834E07B68DB69EA
:1058DC00002B03D07B68DB69082B05D9554A3A4B62
:1058EC0011001800FDF7F6FF3B685B68002B23D016
:1058FC003B685B68042B1FD03B685B68082B1BD094
:10590C003B685B680C2B17D03B685B68102B13D083
:10591C003B685B68142B0FD03B685B68182B0BD073
:10592C003B685B681C2B07D0434A274B11001800BF
:10593C00FDF7D0FF00E0C0467B6854229B5C012B36
:10594C0001D10223EAE17B685422012199547B683E
:10595C001B681800FFF7B8F8031E00D0CDE13B68B8
:10596C005B68022B00D181E17B681A6980231B06DE
:10597C009A4204D07B681B692C4A934208D17B68FD
:10598C001A683B681B6819001000FEF7C0FF08E19D
:10599C007B681A6E3B685B681F210B400F21994096
:1059AC000B00DB43134019003B681B685B035B0B6C
:1059BC0044D13B681B689B0E1F221340D7E0C046A6
:1059CC0000240140AC08000098EA00080200000422
:1059DC00040000080800000C100000102000001447
:1059EC00400000188000001C000100200002002470
:1059FC00000400280008002C0010003000200034A7
:105A0C00004000380080003C0000014000000244CF
:105A1C0000000448001000B0002000B4004000B8A2
:105A2C00AD08000004FFFF07AE0800000400008072
:105A3C00B3080000B7080000B90800003B681B68F9
:105A4C000122134000D091E03B681B6802221340F6
:105A5C0000D089E03B681B680422134000D081E031
:105A6C003B681B680822134000D079E03B681B6838
:105A7C001022134000D071E03B681B6820221340B9
:105A8C0000D069E03B681B684022134000D061E005
:105A9C003B681B688022134000D059E03B681A68B1
:105AAC0080235B00134051D13B681A6880239B0014
:105ABC00134049D13B681A688023DB00134041D165
:105ACC003B681A6880231B01134039D13B681A6864
:105ADC0080235B01134031D13B681A6880239B0102
:105AEC00134029D13B681A688023DB01134021D174
:105AFC003B681A6880231B02134019D13B681A6853
:105B0C0080235B02134011D13B681A6880239B02EF
:105B1C00134009D13B681A688023DB02134001D083
:105B2C00122324E0002322E0112320E010231EE0A6
:105B3C000F231CE00E231AE00D2318E00C2316E0B3
:105B4C000B2314E00A2312E0092310E008230EE0D3
:105B5C0007230CE006230AE0052308E0042306E0F3
:105B6C00032304E0022302E0012300E000233A684F
:105B7C0052681F20024093400A001A437B681A6641
:105B8C003B685B689B085A1C7B68DB699A4208D8A7
:105B9C007B6818683B6859683B681B681A00FEF7FD
:105BAC0096FE7B6818683B6819683B689B681A000E
:105BBC00FEF7DCFE3B681B68002B00DBA7E0594BB3
:105BCC001800FEF749FE03003B613B681B68564A10
:105BDC00934223D13A6980231B0413401ED13B69A5
:105BEC008022120413434F4A19001000FEF720FEC6
:105BFC004E4B1B684E491800FAF77EFA03001A0048
:105C0C0013005B009B189B000133FB6002E0FB68F8
:105C1C00013BFB60FB68002BF9D178E03B681B680B
:105C2C00444A93420ED13A6980235B04134009D154
:105C3C003B698022520413433A4A19001000FEF7C4
:105C4C00F7FD64E03B681B683B4A93425FD13A69BD
:105C5C008023DB0313405AD13B698022D2031343C8
:105C6C00304A19001000FEF7E3FD50E07B681A691A
:105C7C0080231B069A4204D07B681B692F4A9342EF
:105C8C0007D17B681A683B681B6819001000FEF787
:105C9C004FFE3B681B68002B39DA224B1800FEF7CD
:105CAC00DBFD03003B613B681B681F4A934208D134
:105CBC003B69234A13401B4A19001000FEF7B8FD3C
:105CCC0025E03B681B681B4A934208D13B691D4A7F
:105CDC001340144A19001000FEF7AAFD17E03B68A8
:105CEC001B68154A934212D13B69174A13400D4A5F
:105CFC0019001000FEF79CFD09E07B689B6D2022CB
:105D0C001A437B689A651723FB1801221A707B686B
:105D1C005422002199541723FB181B781800BD46F8
:105D2C0006B080BD08270140001000B00000002024
:105D3C00400D0300004000B8002000B404000080B7
:105D4C00FFFF7FFFFFFFFFFEFFFFBFFF80B584B0AB
:105D5C0000AF78607B681B68204A934206D0A8236A
:105D6C001A011F4B11001800FDF7B4FD7B681B686E
:105D7C001800FEF7A9FE031E2BD07B681B681800C9
:105D8C00FEF76DFE031E04D17B681B681800FEF73E
:105D9C0089FEFEF717FD0300FB6014E0FEF712FD11
:105DAC000200FB68D31A022B0DD97B689B6D102265
:105DBC001A437B689A657B68DB6D01221A437B680A
:105DCC00DA65012306E07B681B689B68042213409C
:105DDC00E4D100231800BD4604B080BD002401406E
:105DEC0098EA000880B584B000AF78600023BB60EF
:105DFC007B681B681800FEF721FE031E62D17B68CE
:105E0C001B689B68324A13400DD07B689B6D102237
:105E1C001A437B689A657B68DB6D01221A437B68A9
:105E2C00DA6501234FE07B681B681800FEF7E2FD82
:105E3C00284B1800FEF710FD020080231B041340B2
:105E4C000FD0254B1B6825491800FAF755F90300AC
:105E5C000133BB6002E0BB68013BBB60BB68002B3D
:105E6C00F9D17B685B7E012B2CD0FEF7ABFC0300D9
:105E7C00FB6020E07B681B681800FEF7DFFD031E4B
:105E8C0004D17B681B681800FEF7B4FDFEF79AFC82
:105E9C000200FB68D31A022B0DD97B689B6D102274
:105EAC001A437B689A657B68DB6D01221A437B6819
:105EBC00DA65012307E07B681B681B68012213402D
:105ECC00012BD7D100231800BD4604B080BDC046BD
:105EDC00170000800827014000000020400D03003F
:105EEC0080B584B000AF78607B681B681800FEF743
:105EFC00B6FD0300FB607B681B681800FEF79EFD77
:105F0C00031E40D0FB68002B3DD17B681B689B684F
:105F1C0005221340012B0DD17B681B681800FEF77E
:105F2C007BFD7B681B6803221A60FEF74BFC0300A9
:105F3C00BB6022E07B689B6D10221A437B689A65DC
:105F4C007B68DB6D01221A437B68DA6501231BE059
:105F5C00FEF738FC0200BB68D31A022B0DD97B6804
:105F6C009B6D10221A437B689A657B68DB6D01225E
:105F7C001A437B68DA65012306E07B681B689B6823
:105F8C0001221340E4D100231800BD4604B080BDAB
:105F9C0080B582B000AF78607B689B6801221340AB
:105FAC00012B01D1012300E000231800BD4602B0F3
:105FBC0080BD80B582B000AF78607B689B68DB0FDA
:105FCC00DA0780231B069A4201D1012300E000234B
:105FDC001800BD4602B080BD90B587B000AF7860A8
:105FEC000023FB607B681B683F4A934204D03F4B05
:105FFC006F211800FDF76EFC7B6854229B5C012B13
:10600C0001D102236CE07B6854220121995417239F
:10601C00FC187B681800FFF763FF030023707B6894
:10602C001B681800FFF7B4FF031E4CD17B689B6DF7
:10603C002F4A134002221A437B689A657B681B68BF
:10604C00DB68032213403B617B681B687A6812682B
:10605C00D26803218A43DA607B681B687A6812680D
:10606C009268802109060A439A6014E0FB680133A8
:10607C00FB60FB681F4A93420DD97B689B6D122213
:10608C00934310221A437B689A657B685422002143
:10609C009954012324E07B681B681800FFF789FFE3
:1060AC00031EE3D17B681B687A681268D1683A6971
:1060BC000A43DA607B689B6D0322934301221A43E7
:1060CC007B689A6505E07B689B6D10221A437B68A0
:1060DC009A657B685422002199541723FB181B786E
:1060EC001800BD4607B090BD00240140D0EA00085E
:1060FC00FDFEFFFFFFF1020080B582B000AF7860BB
:10610C00C046BD4602B080BD80B582B000AF78609D
:10611C00C046BD4602B080BD80B582B000AF78608D
:10612C00C046BD4602B080BD80B582B000AF78607D
:10613C00C046BD4602B080BD80B582B000AF020043
:10614C00FB1D1A70FB1D1B787F2B09D8064BFA1D03
:10615C00127811001F220A40012191400A001A6096
:10616C00C046BD4602B080BD00E100E0B0B582B0D3
:10617C0000AF02003960FB1D1A70FB1D1B787F2BD2
:10618C0028D82F4CFB1D1B785BB29B082C49FA1DA1
:10619C00127852B29208C03292005258F91D097806
:1061AC00080003210140C900FF2088400100C943B9
:1061BC0011403A689201FF201040FA1D1278150028
:1061CC0003222A40D200904002000A43C0339B00B5
:1061DC001A5131E01B4CFB1D1B781A000F23134086
:1061EC00083B9908174AFB1D1B7818000F23034026
:1061FC00083B9B0806339B00D31804331B68FA1D1D
:10620C001278100003220240D200FF2090400200BE
:10621C00D2431A403B689B01FF201840FB1D1B78A2
:10622C001D0003232B40DB00984003001A438B1DF9
:10623C009B00E31804331A60C046BD4602B0B0BDE3
:10624C0000E100E000ED00E080B582B000AF7860C6
:10625C007B68013B0C4A934201D9012310E00B4BA4
:10626C007A68013A5A6001235B4203211800FFF758
:10627C007DFF064B00229A60044B07221A60002314
:10628C001800BD4602B080BDFFFFFF0010E000E02B
:10629C0080B584B000AFB9607A600F23FB18021C84
:1062AC001A70BB68032B04D9084B87211800FDF723
:1062BC0011FBBA680F23FB181B785BB21100180096
:1062CC00FFF754FFC046BD4604B080BD0CEB000880
:1062DC0080B582B000AF0200FB1D1A70FB1D1B784D
:1062EC007F2B04D9074B95211800FDF7F3FAFB1D02
:1062FC001B785BB21800FFF71FFFC046BD4602B00B
:10630C0080BDC0460CEB000880B582B000AF786051
:10631C007B681800FFF798FF03001800BD4602B019
:10632C0080BD000080B582B000AF78607B68002B28
:10633C0001D1012351E07B6825229B5CDBB2022B4F
:10634C0008D07B680422DA637B68242200219954EC
:10635C00012342E07B681B687A68126812680E2180
:10636C008A431A607B685B6C7A68526C12681D49B0
:10637C000A401A607B681B687A68126812680121EF
:10638C008A431A60184A184B59687B681B6C1C208E
:10639C0003400120984003000B4353607B689B6CC7
:1063AC007A68D26C5A607B681B6D002B0CD07B68B2
:1063BC001B6D7A68126D12680A490A401A607B6874
:1063CC005B6D7A68926D5A607B6825220121995425
:1063DC007B6824220021995400231800BD4602B08A
:1063EC0080BDC046FFFEFFFF0000024080B584B0B8
:1063FC0000AF78600F23FB1800221A707B682522EF
:10640C009B5CDBB2022B07D07B680422DA630F2380
:10641C00FB1801221A704AE07B681B687A681268C4
:10642C0012680E218A431A607B681B687A681268AE
:10643C00126801218A431A607B685B6C7A68526C23
:10644C0012681E490A401A601D4A1D4B59687B6828
:10645C001B6C1C2003400120984003000B4353602D
:10646C007B689B6C7A68D26C5A607B681B6D002BC6
:10647C000CD07B681B6D7A68126D12680F490A404C
:10648C001A607B685B6D7A68926D5A607B68252216
:10649C00012199547B682422002199547B689B6BC1
:1064AC00002B04D07B689B6B7A68100098470F23F5
:1064BC00FB181B781800BD4604B080BDFFFEFFFF23
:1064CC000000024080B582B000AF78607B68252266
:1064DC009B5CDBB21800BD4602B080BD80B582B0BB
:1064EC0000AF3A4B1B693A4A13403B60394B9B68EF
:1064FC000422134003D0374B1B697B6013E0334AF3
:10650C00324B5969334B9B68DB430B405361314B26
:10651C009B68314A134003D02E4BDB687B6002E052
:10652C002C4B5B697B603B68002B0FD0294B5A6866
:10653C003B681A43274B5A60244B254A1A61254B5A
:10654C0000229A607B68180000F052F81F4B1B6900
:10655C000122134028D01D4B01221A611D4B9B6850
:10656C00022B1AD11B4B9B695A1E1A4B9A61194B61
:10657C009B69002B0DD0174B5B695A1C154B5A614C
:10658C00144B1A69134B5B691900100000F038F8B2
:10659C0006E0104B00229A6002E00E4B00229A603B
:1065AC007B68180000F01CF80A4B9B68002B08D184
:1065BC00064B064A526909490A405A61054B0022AA
:1065CC001A70C046BD4602B080BDC04600200240D5
:1065DC00FAC300009000002001000400FFFFFFFC44
:1065EC0080B582B000AF7860C046BD4602B080BDB9
:1065FC0080B582B000AF7860C046BD4602B080BDA9
:10660C0080B584B000AF786039607B68042B05D00E
:10661C000F4A104B11001800FDF75CF93B683F2B3B
:10662C0005D90D4A0B4B11001800FDF753F90B4B14
:10663C005B690B4A1340FB60084B3A68D100FA685F
:10664C000A4308490A435A61C046BD4604B080BD9E
:10665C005102000048EB00085202000000200240EA
:10666C0007FEFFFF0200010080B586B000AF786026
:10667C00396000237B617A68A023DB059A4214D031
:10668C007B68C44A934210D07B68C34A93420CD0B7
:10669C007B68C24A934208D07B68C14A934204D0BB
:1066AC00C04BB1211800FDF715F93B681B681B04A2
:1066BC001B0C04D03B681B681B0C1B0404D0B94B8F
:1066CC00B2211800FDF706F93B685B68002B36D049
:1066DC003B685B68012B32D03B685B68112B2ED07A
:1066EC003B685B68022B2AD03B685B68122B26D078
:1066FC003B685B68AC4A934221D03B685B68AB4A11
:10670C0093421CD03B685B68A94A934217D03B6804
:10671C005B68A84A934212D03B685B68A64A9342D6
:10672C000DD03B685B68A54A934208D03B685B6818
:10673C00032B04D09B4BB3211800FDF7CBF83B681F
:10674C009B68002B00D1A8E13B689B68012B00D112
:10675C00A3E13B689B68022B00D19EE1914BB421D5
:10676C001800FDF7B7F898E13B681B6801217A69BE
:10677C0091400A001340FB60FB68002B00D189E1BB
:10678C003B685B68012B0BD03B685B68022B07D026
:10679C003B685B68112B03D03B685B68122B45D1BF
:1067AC003B68DB68002B10D03B68DB68012B0CD0FE
:1067BC003B68DB68022B08D03B68DB68032B04D0FA
:1067CC00784BC4211800FDF785F87B689B683B610A
:1067DC007B695B0003229A401300DA433B69134048
:1067EC003B613B68DA687B695B009A4013003A694D
:1067FC0013433B617B683A699A607B685B683B61D9
:10680C0001227B699A401300DA433B6913403B61D8
:10681C003B685B681B0901221A407B699A40130094
:10682C003A6913433B617B683A695A607B68DB6861
:10683C003B617B695B0003229A401300DA433B699E
:10684C0013403B613B689A687B695B009A4013007C
:10685C003A6913433B617B683A69DA603B685B6871
:10686C00022B03D03B685B68122B46D17A68A023BD
:10687C00DB059A4214D07B68464A934210D07B6861
:10688C00454A93420CD07B68444A934208D07B68BB
:10689C00434A934204D0434BDC211800FDF71AF80D
:1068AC003B681B69072B04D93E4BDD211800FDF713
:1068BC0011F87B69DA087B6808329200D3583B6187
:1068CC007B69072213409B000F229A401300DA4386
:1068DC003B6913403B613B681A697B6907210B409C
:1068EC009B009A4013003A6913433B617B69DA08B9
:1068FC007B68083292003969D1507B681B683B6118
:10690C007B695B0003229A401300DA433B69134016
:10691C003B613B685B6803221A407B695B009A40D1
:10692C0013003A6913433B617B683A691A603B6810
:10693C005A6880235B05134000D1ABE0204A7B6989
:10694C009B0818339B009B583B617B6903221340C7
:10695C00DB000F229A401300DA433B6913403B6182
:10696C007A68A023DB059A422CD07B68094A9342B3
:10697C000DD07B68084A934207D07B68074A934244
:10698C0001D103231FE005231DE002231BE001239B
:10699C0019E0C0460004005000080050000C0050E4
:1069AC000014005088EB00080000111000002110AA
:1069BC0000003110000012100000221000003210F4
:1069CC000018024000237A6903210A40D200934048
:1069DC003A6913433B6136497B699B0818339B002A
:1069EC003A695A50324A8023D3583B61FB68DA43E8
:1069FC003B6913403B613B685A6880235B02134040
:106A0C0003D03A69FB6813433B61294980223B69F7
:106A1C008B50274A8423D3583B61FB68DA433B698C
:106A2C0013403B613B685A6880239B02134003D0A0
:106A3C003A69FB6813433B611D4984223B698B50C7
:106A4C001B4B1B683B61FB68DA433B6913403B61A2
:106A5C003B685A6880235B03134003D03A69FB6898
:106A6C0013433B61124B3A691A60114B5B683B61F3
:106A7C00FB68DA433B6913403B613B685A688023EF
:106A8C009B03134003D03A69FB6813433B61084BEB
:106A9C003A695A607B6901337B613B681A687B6990
:106AAC00DA40131E00D05FE6C046BD4606B080BD7E
:106ABC000018024080B584B000AF78600A00BB1C9F
:106ACC001A80BB1C1B88002B04D0BB1C1B881B0C06
:106ADC001B0406D0BD235A000D4B11001800FCF707
:106AEC00F9FE7B681B69BA1C1288134004D00F2373
:106AFC00FB1801221A7003E00F23FB1800221A70F6
:106B0C000F23FB181B781800BD4604B080BDC0468F
:106B1C0088EB000880B582B000AF786008001100E7
:106B2C00BB1C021C1A807B1C0A1C1A70BB1C1B8809
:106B3C00002B04D0BB1C1B881B0C1B0406D0CD23C4
:106B4C005A00134B11001800FCF7C4FE7B1C1B7879
:106B5C00002B0BD07B1C1B78012B07D09C23FF3305
:106B6C001A000B4B11001800FCF7B4FE7B1C1B78B1
:106B7C00002B04D0BB1C1A887B689A6103E0BB1CF9
:106B8C001A887B689A62C046BD4602B080BDC0467A
:106B9C0088EB000880B582B000AF78607B68002B72
:106BAC0001D1012316E17B681B688C4A93420CD0FF
:106BBC007B681B688A4A934207D0E223FF331A0092
:106BCC00884B11001800FCF785FE7B689B68864A91
:106BDC00934206D9F1235A00824B11001800FCF79E
:106BEC0079FE7B68DB68012B0BD07B68DB68022BA2
:106BFC0007D0E423FF331A007A4B11001800FCF77E
:106C0C0069FE7B681B69002B0CD07B681A6980239A
:106C1C001B029A4206D0F2235A00724B1100180044
:106C2C00FCF758FE7B685B69FF2B07D9E623FF3323
:106C3C001A006C4B11001800FCF74CFE7B689B692A
:106C4C00002B22D07B689B69012B1ED07B689B6933
:106C5C00022B1AD07B689B69032B16D07B689B692F
:106C6C00042B12D07B689B69052B0ED07B689B692B
:106C7C00062B0AD07B689B69072B06D0F3235A009E
:106C8C00584B11001800FCF725FE7B68DB69002BC4
:106C9C000DD07B68DA6980231B039A4207D0E82366
:106CAC00FF331A004F4B11001800FCF713FE7B68E2
:106CBC001B6A002B0CD07B681A6A80239B029A42B9
:106CCC0006D0F4235A00474B11001800FCF702FEC3
:106CDC007B6841229B5CDBB2002B07D17B68402296
:106CEC00002199547B681800FAF7E2FE7B68412278
:106CFC00242199547B681B687A68126812680121F8
:106D0C008A431A607B681B687A68526837490A4064
:106D1C001A617B681B687A681268926834490A4069
:106D2C009A607B68DB68012B08D17B681B687A68EA
:106D3C009268802109020A439A6007E07B681B680D
:106D4C007A689268842109020A439A607B68DB683E
:106D5C00022B04D17B681B68802212015A607B686D
:106D6C001B687A681268526822490A435A607B6829
:106D7C001B687A681268D2681D490A40DA607B6821
:106D8C001B687A6811697A68526911437A6892694A
:106D9C0012020A43DA607B681B687A68D1697A68E8
:106DAC00126A0A431A607B681B687A681268126858
:106DBC0001210A431A607B6800225A647B684122D5
:106DCC00202199547B6800221A637B68422200219F
:106DDC00995400231800BD4602B080BD00540040F9
:106DEC0000580040C4EB0008FF030000FFFFFFF059
:106DFC00FF7FFFFF0080000290B589B002AFF86002
:106E0C000C00100019000A23FB18221C1A800823FE
:106E1C00FB18021C1A80BB1D0A1C1A80BB1D1B8888
:106E2C00012B0AD0BB1D1B88022B06D08F231A0105
:106E3C008E4B11001800FCF74DFDFB6841229B5C4A
:106E4C00DBB2202B00D00CE1BB6A002B04D02C232E
:106E5C00FB181B88002B05D1FB68802292005A641A
:106E6C000123FFE0FB6840229B5C012B01D1022334
:106E7C00F8E0FB68402201219954FDF7A3FC0300C4
:106E8C007B6180231902F8687B6900931923012226
:106E9C0001F080F8031E01D00123E3E0FB684122DE
:106EAC0021219954FB68422240219954FB6800220D
:106EBC005A64FB68BA6A5A62FB682C22BA181288A8
:106ECC005A85FB6800225A63BB1D1C880823FB18DB
:106EDC001A880A23FB181988F8687B6901933B6BA5
:106EEC000093230000F0B8FB031E05D0FB68402282
:106EFC00002199540123B5E0FB685B8D9BB2FF2BFD
:106F0C0011D9FB68FF221A85FB681B8DDAB280232E
:106F1C005C040A23FB181988F868002300932300EB
:106F2C0001F058F912E0FB685B8D9AB2FB681A8588
:106F3C00FB681B8DDAB280239C040A23FB1819888A
:106F4C00F86800230093230001F044F97A69396B47
:106F5C00FB68180001F05DF8031E01D0012381E0ED
:106F6C00FB681B68FA68526A12789A62FB685B6A63
:106F7C005A1CFB685A62FB685B8D9BB2013B9AB250
:106F8C00FB685A85FB681B8D013B9AB2FB681A851E
:106F9C00FB685B8D9BB2002B3AD0FB681B8D002BE2
:106FAC0036D13A6BF8687B6900931300002280217C
:106FBC0000F0F0FF031E01D0012353E0FB685B8D52
:106FCC009BB2FF2B11D9FB68FF221A85FB681B8D26
:106FDC00DAB280235C040A23FB181988F8680023B2
:106FEC000093230001F0F6F812E0FB685B8D9AB277
:106FFC00FB681A85FB681B8DDAB280239C040A237C
:10700C00FB181988F86800230093230001F0E2F8BC
:10701C00FB685B8D9BB2002B98D17A69396BFB684E
:10702C00180001F035F8031E01D001231AE0FB68AB
:10703C001B682022DA61FB681B68FA6812685268C8
:10704C000B490A405A60FB68412220219954FB6885
:10705C00422200219954FB684022002199540023BC
:10706C0000E002231800BD4607B090BDC4EB000839
:10707C0000E800FE90B589B002AFF8600C0010007B
:10708C0019000A23FB18221C1A800823FB18021C67
:10709C001A80BB1D0A1C1A80BB1D1B88012B09D032
:1070AC00BB1D1B88022B05D0914A924B1100180076
:1070BC00FCF710FCFB6841229B5CDBB2202B00D060
:1070CC0010E1BB6A002B04D02C23FB181B88002B6F
:1070DC0005D1FB68802292005A64012303E1FB680E
:1070EC0040229B5C012B01D10223FCE0FB68402277
:1070FC0001219954FDF766FB03007B618023190283
:10710C00F8687B6900931923012200F043FF031EEA
:10711C0001D00123E7E0FB68412222219954FB684E
:10712C00422240219954FB6800225A64FB68BA6AD7
:10713C005A62FB682C22BA1812885A85FB68002206
:10714C005A63BB1D1C880823FB181A880A23FB18DA
:10715C001988F8687B6901933B6B0093230000F05E
:10716C00DFFA031E05D0FB6840220021995401234D
:10717C00B9E0FB685B8D9BB2FF2B11D9FB68FF223A
:10718C001A85FB681B8DDAB280235C040A23FB187A
:10719C001988F868584B0093230001F01BF812E093
:1071AC00FB685B8D9AB2FB681A85FB681B8DDAB2A3
:1071BC0080239C040A23FB181988F8684E4B009313
:1071CC00230001F007F83A6BF8687B690093130011
:1071DC000022042100F0DEFE031E01D0012382E018
:1071EC00FB685A6AFB681B685B6ADBB21370FB684E
:1071FC005B6A5A1CFB685A62FB681B8D013B9AB296
:10720C00FB681A85FB685B8D9BB2013B9AB2FB68ED
:10721C005A85FB685B8D9BB2002B3AD0FB681B8DAB
:10722C00002B36D13A6BF8687B690093130000226F
:10723C00802100F0AFFE031E01D0012353E0FB6858
:10724C005B8D9BB2FF2B11D9FB68FF221A85FB6863
:10725C001B8DDAB280235C040A23FB181988F868AA
:10726C0000230093230000F0B5FF12E0FB685B8D58
:10727C009AB2FB681A85FB681B8DDAB280239C04DA
:10728C000A23FB181988F86800230093230000F0E8
:10729C00A1FFFB685B8D9BB2002B94D17A69396B93
:1072AC00FB68180000F0F4FE031E01D001231AE065
:1072BC00FB681B682022DA61FB681B68FA6812689D
:1072CC0052680E490A405A60FB68412220219954A9
:1072DC00FB68422200219954FB68402200219954FA
:1072EC00002300E002231800BD4607B090BDC04645
:1072FC0077090000C4EB00080024008000E800FEC1
:10730C0080B584B000AF78607B681B689B69FB60BC
:10731C007B681B681B68BB607B685B6B002B05D0B4
:10732C007B685B6BBA68F96878689847C046BD465D
:10733C0004B080BD80B586B000AF78607B681B68F8
:10734C009B697B617B681B681B683B617A69802346
:10735C005B0013400ED03B69802213400AD07B683F
:10736C005B6C01221A437B685A647B681B68802221
:10737C005200DA617A698023DB0013400ED03B693E
:10738C00802213400AD07B685B6C08221A437B680E
:10739C005A647B681B688022D200DA617A69802388
:1073AC009B0013400ED03B69802213400AD07B68AF
:1073BC005B6C02221A437B685A647B681B688022D0
:1073CC009200DA617B685B6CFB60FB680B221340FC
:1073DC0005D0FA687B681100180000F08BFCC046E1
:1073EC00BD4606B080BD80B582B000AF7860C046A7
:1073FC00BD4602B080BD80B582B000AF7860C0469B
:10740C00BD4602B080BD80B582B000AF7860080088
:10741C001100FB1C021C1A703B000A1C1A80C0468F
:10742C00BD4602B080BD80B582B000AF7860C0466A
:10743C00BD4602B080BD80B582B000AF7860C0465A
:10744C00BD4602B080BD80B582B000AF7860C0464A
:10745C00BD4602B080BD000080B586B000AFF860BC
:10746C00B9607A60FB68DB6A7B61BB683B61FB6877
:10747C0040229B5C012B01D10223E6E0FB684022F9
:10748C00012199543B692022134009D07B682022AA
:10749C00134005D03A69FB681100180000F0B0FAEF
:1074AC003B691022134052D07B68102213404ED0FF
:1074BC00FB685B8D9BB2002B2DD1FB6841229B5C42
:1074CC00DBB2282B0BD17A6980239B049A4206D11C
:1074DC003A69FB681100180000F0B4FB36E0FB6859
:1074EC0041229B5CDBB2292B10D17B69594A934218
:1074FC000CD0FB681B681022DA61FB68180000F0E6
:10750C0008FDFB68180000F017FA1FE0FB681B6809
:10751C001022DA6191E0FB681B681022DA61FB68CB
:10752C005B6C04221A43FB685A647B69002B05D000
:10753C007A6980235B049A4200D07EE0FB685A6C27
:10754C00FB681100180000F0D5FB76E075E03B6994
:10755C00042213402FD07B68042213402BD0FB68ED
:10756C005B8D9BB2002B18D0FB685A6AFB681B68BA
:10757C005B6ADBB21370FB685B6A5A1CFB685A626D
:10758C00FB681B8D013B9AB2FB681A85FB685B8D0F
:10759C009BB2013B9AB2FB685A85FB685B8D9BB230
:1075AC00002B4CD17B692B4A934248D0FB681800C6
:1075BC0000F0C2F943E03B69082213400AD07B6813
:1075CC000822134006D03A69FB681100180000F03D
:1075DC0009F935E03B690222134031D07B68022265
:1075EC0013402DD0FB685B8D9BB2002B18D0FB6831
:1075FC001B68FA68526A12789A62FB685B6A5A1CBA
:10760C00FB685A62FB685B8D9BB2013B9AB2FB68CC
:10761C005A85FB681B8D013B9AB2FB681A850FE0FB
:10762C007A6980235B049A4202D07B69002B07D1D4
:10763C00FB68180000F080F902E0C04600E0C0468C
:10764C00FB6840220021995400231800BD4606B067
:10765C0080BDC0460000FFFF90B587B002AFF86058
:10766C000C00100019000A23FB18221C1A80082396
:10767C00FB18021C1A80BB1D0A1C1A80BB1D1B8820
:10768C00DAB280235C040A23FB181988F868234BB0
:10769C000093230000F09EFD7A6A396AFB6818009B
:1076AC0000F0B7FC031E01D0012333E0BB1D1B8887
:1076BC00012B07D1FB681B680822BA181288D2B2BA
:1076CC009A6219E0FB681B680822BA181288120A21
:1076DC0092B2D2B29A627A6A396AFB68180000F0E8
:1076EC0098FC031E01D0012314E0FB681B680822E0
:1076FC00BA181288D2B29A623A6AF8687B6A009316
:10770C0013000022802100F045FC031E01D0012350
:10771C0000E000231800BD4605B090BD002000809D
:10772C0090B587B002AFF8600C00100019000A2366
:10773C00FB18221C1A800823FB18021C1A80BB1D84
:10774C000A1C1A80BB1D1B88DAB20A23FB18198885
:10775C00F868234B0093002300F03CFD7A6A396AE9
:10776C00FB68180000F055FC031E01D0012333E028
:10777C00BB1D1B88012B07D1FB681B680822BA189C
:10778C001288D2B29A6219E0FB681B680822BA18F8
:10779C001288120A92B2D2B29A627A6A396AFB6879
:1077AC00180000F036FC031E01D0012314E0FB6826
:1077BC001B680822BA181288D2B29A623A6AF86820
:1077CC007B6A009313000022402100F0E3FB031EB0
:1077DC0001D0012300E000231800BD4605B090BD88
:1077EC000020008080B584B000AF786039607B6881
:1077FC0041229B5CDBB21A0028231340282B00D0BB
:10780C008EE07B681B689B691B0CDAB20F23FB189C
:10781C0001210A401A707B681B689B691B0C9AB289
:10782C000C23FB18FE210A401A807B681B689B689E
:10783C009AB20A23FB189205920D1A807B681B687A
:10784C00DB689AB20823FB18FE210A401A807B6879
:10785C00DB68022B4ED10A23FB181B88DB099AB27A
:10786C000C23FB181B8853409BB21A0006231340B1
:10787C0024D10C23FB180A22BA1812881A807B68B0
:10788C009B6C5A1C7B689A647B689B6C022B4FD157
:10789C007B6800229A647B681B680822DA617B682B
:1078AC004022002199540C23FB181A880F23FB1833
:1078BC0019787B681800FFF7A6FD39E00C23FB183C
:1078CC000822BA1812881A8080231A027B681100C9
:1078DC00180000F0FFFC7B684022002199540C2317
:1078EC00FB181A880F23FB1819787B681800FFF710
:1078FC008AFD1DE080231A027B681100180000F03D
:10790C00E9FC7B684022002199540C23FB181A884F
:10791C000F23FB1819787B681800FFF774FD07E03C
:10792C007B681B680822DA617B684022002199542D
:10793C00C046BD4604B080BD80B584B000AF786051
:10794C007B681B681B68FB607B6842220021995492
:10795C00FA688023DB01134008D07B681B687A68C7
:10796C001268126824490A401A600CE0FA688023F5
:10797C001B02134007D07B681B687A681268126878
:10798C001E490A401A607B6841229B5CDBB2292BA2
:10799C0014D17B684122282199547B6821221A63D7
:1079AC007B680121180000F095FC7B6840220021C7
:1079BC0099547B681800FFF716FD19E07B6841228B
:1079CC009B5CDBB22A2B13D17B6841222821995472
:1079DC007B6822221A637B680221180000F07AFC73
:1079EC007B684022002199547B681800FFF703FD47
:1079FC00C046BD4604B080BDFFBFFFFFFF7FFFFF49
:107A0C0080B586B000AF786039607B681B681B68F6
:107A1C003B613B687B610F23FB187A684121525C08
:107A2C001A707B681B682022DA610F23FB181B7805
:107A3C00212B04D00F23FB181B78292B09D17B4A4F
:107A4C007B681100180000F045FC7B6821221A634A
:107A5C0012E00F23FB181B78222B04D00F23FB18EA
:107A6C001B782A2B08D1724A7B681100180000F091
:107A7C0031FC7B6822221A637B681B687A68126867
:107A8C005268802109020A435A607B681B687A6835
:107A9C001268526867490A405A607B68180000F007
:107AAC0038FA3A698023DB01134013D07B681B68DA
:107ABC007A681268126860490A401A607B689B6B8E
:107ACC00002B1FD07B689B6B1B685B689AB27B6832
:107ADC005A8517E03A6980231B02134012D07B6849
:107AEC001B687A681268126854490A401A607B68ED
:107AFC00DB6B002B06D07B68DB6B1B685B689AB278
:107B0C007B685A857B690422134020D07B69042250
:107B1C0093437B617B685A6A7B681B685B6ADBB248
:107B2C0013707B685B6A5A1C7B685A627B681B8D7E
:107B3C00002B0CD07B681B8D013B9AB27B681A859D
:107B4C007B685B8D9BB2013B9AB27B685A857B68E4
:107B5C005B8D9BB2002B05D07B685B6C04221A43B7
:107B6C007B685A647B684222002199547B6800220E
:107B7C005A637B685B6C002B13D07B685A6C7B68F8
:107B8C001100180000F0B6F87B6841229B5CDBB258
:107B9C00282B47D17A697B681100180000F052F845
:107BAC0040E07B68DB6A264A934216D07B6818005B
:107BBC00FFF7C2FE7B68224ADA627B6841222021F1
:107BCC0099547B6800221A637B68402200219954E7
:107BDC007B681800FFF727FC24E07B6841229B5C44
:107BEC00DBB2222B0FD17B684122202199547B6878
:107BFC0000221A637B684022002199547B6818008C
:107C0C00FFF7F9FB0EE07B684122202199547B6839
:107C1C0000221A637B684022002199547B6818006B
:107C2C00FFF7E1FBC046BD4606B080BD01800000F9
:107C3C000280000000E800FEFFBFFFFFFF7FFFFF98
:107C4C000000FFFF80B582B000AF786039607B68C0
:107C5C00264ADA627B6800221A637B684122202163
:107C6C0099547B684222002199547B6800225A6304
:107C7C003B680422134022D07B685A6A7B681B68DD
:107C8C005B6ADBB213707B685B6A5A1C7B685A6256
:107C9C007B681B8D002B12D07B681B8D013B9AB22D
:107CAC007B681A857B685B8D9BB2013B9AB27B68C3
:107CBC005A857B685B6C04221A437B685A640C4AB5
:107CCC007B681100180000F005FB7B681B68102214
:107CDC00DA617B684022002199547B681800FFF719
:107CEC00A2FBC046BD4602B080BDC0460000FFFFEF
:107CFC000380000080B584B000AF786039600F233A
:107D0C00FB187A684121525C1A707B684222002170
:107D1C0099547B68644ADA627B6800225A857B68D6
:107D2C005A6C3B681A437B685A640F23FB181B7808
:107D3C00282B09D00F23FB181B78292B04D00F23D9
:107D4C00FB181B782A2B0CD17B680321180000F040
:107D5C00C1FA7B684122282199547B68534A5A63A3
:107D6C0012E0534A7B681100180000F0B3FA7B68EC
:107D7C0041229B5CDBB2602B03D07B68412220212B
:107D8C0099547B6800225A637B681B6BBB607B68D1
:107D9C009B6B002B3BD0BB68112B02D0BB68212BFB
:107DAC0035D17B681B681A688023DB011A4080235D
:107DBC00DB019A4207D17B681B687A6812681268EB
:107DCC003C490A401A607B689B6B1800FEF77AFBF3
:107DDC000300012B16D07B689B6B374A9A637B6838
:107DEC004022002199547B689B6B1800FEF7FEFA29
:107DFC00031E51D07B689B6B9A6B7B689B6B180046
:107E0C00904749E07B68180000F05AF844E07B6822
:107E1C00DB6B002B3BD0BB68122B02D0BB68222B38
:107E2C0035D17B681B681A6880231B021A4080239B
:107E3C001B029A4207D17B681B687A681268126829
:107E4C001E490A401A607B68DB6B1800FEF73AFB90
:107E5C000300012B16D07B68DB6B174A9A637B6897
:107E6C004022002199547B68DB6B1800FEF7BEFAA8
:107E7C00031E13D07B68DB6B9A6B7B68DB6B180083
:107E8C0090470BE07B68180000F01AF806E07B685E
:107E9C00180000F015F802E0C04600E0C046C046ED
:107EAC00BD4604B080BDC0460000FFFF65740008ED
:107EBC0003800000FFBFFFFF637F0008FF7FFFFF11
:107ECC0080B582B000AF78607B6841229B5CDBB2EE
:107EDC00602B0FD17B684122202199547B680022B2
:107EEC001A637B684022002199547B681800FFF7C5
:107EFC00AAFA0AE07B6800221A637B684022002100
:107F0C0099547B681800FFF796FAC046BD4602B03C
:107F1C0080BD80B582B000AF78607B681B689B69C0
:107F2C0002221340022B03D17B681B6800229A6249
:107F3C007B681B689B6901221340012B07D07B686F
:107F4C001B687A681268926901210A439A61C046DB
:107F5C00BD4602B080BD80B584B000AF78607B6850
:107F6C009B6AFB60FB689B6B002B03D0FB689B6BD5
:107F7C0000229A63FB68DB6B002B03D0FB68DB6B86
:107F8C0000229A63FB681800FFF79AFFC046BD46B3
:107F9C0004B080BD80B584B000AFF860B9603B60C0
:107FAC00FB1D1A7021E03B6801331ED0FCF70AFC64
:107FBC000200BB69D21A3B689A4202D83B68002B7C
:107FCC0013D1FB685B6C20221A43FB685A64FB6874
:107FDC00412220219954FB68422200219954FB68CC
:107FEC0040220021995401230FE0FB681B689B6918
:107FFC00BA681A40BB68D31A5A425341DBB21A0012
:10800C00FB1D1B789A42CED000231800BD4604B04D
:10801C0080BD80B584B000AFF860B9607A602BE0A9
:10802C007A68B968FB68180000F06EF8031E01D07E
:10803C00012329E0BB6801331ED0FCF7C3FB02000F
:10804C007B68D21ABB689A4202D8BB68002B13D14A
:10805C00FB685B6C20221A43FB685A64FB68412264
:10806C0020219954FB68422200219954FB6840223C
:10807C0000219954012307E0FB681B689B690222CD
:10808C001340022BCCD100231800BD4604B080BD98
:10809C0080B584B000AFF860B9607A6028E07A6887
:1080AC00B968FB68180000F02FF8031E01D00123FB
:1080BC0026E0FCF787FB02007B68D21ABB689A4269
:1080CC0002D8BB68002B13D1FB685B6C20221A43CF
:1080DC00FB685A64FB68412220219954FB684222B8
:1080EC0000219954FB68402200219954012307E098
:1080FC00FB681B689B6920221340202BCFD10023E7
:10810C001800BD4604B080BD80B584B000AFF860E7
:10811C00B9607A60FB681B689B6910221340102BB6
:10812C0051D121E0BB6801331ED0FCF74BFB0200A0
:10813C007B68D21ABB689A4202D8BB68002B13D159
:10814C00FB685B6C20221A43FB685A64FB68412273
:10815C0020219954FB68422200219954FB6840224B
:10816C000021995401232FE0FB681B689B69202296
:10817C001340202BD6D1FB681B681022DA61FB68F8
:10818C001B682022DA61FB681800FFF7C2FEFB684F
:10819C001B68FA68126852680D490A405A60FB68FD
:1081AC005B6C04221A43FB685A64FB684122202151
:1081BC009954FB68422200219954FB68402200210B
:1081CC009954012300E000231800BD4604B080BD83
:1081DC0000E800FE90B585B000AFF8600800110013
:1081EC007B600A23FB18021C1A800923FB180A1C4B
:1081FC001A70FB681B682D4A93420AD0FB681B68F7
:10820C002B4A934205D02B4A2B4B11001800FBF73D
:10821C0061FB7A6880235B049A420DD07A688023D4
:10822C009B049A4208D07B68002B05D0234A224B32
:10823C0011001800FBF74EFB3B6A214A934210D009
:10824C003B6A204A93420CD03B6A1F4A934208D0A7
:10825C003B6A002B05D01D4A174B11001800FBF789
:10826C0039FBFB681B68FA6812685268396A480D5A
:10827C008021C900014016480143C94311400A221C
:10828C00BA1812889205900D0922BA1812781404A3
:10829C00FF221204224010437A6810433A6A0243C8
:1082AC000A435A60C046BD4605B090BD005400401C
:1082BC00005800401B190000C4EB00081C190000FA
:1082CC000040008000240080002000801D19000068
:1082DC00FF63FF0380B584B000AF78600A00BB1C5D
:1082EC001A800023FB60BB1C1B880122134010D09A
:1082FC00FB6842221343FB607B6841229B5CDBB230
:10830C001A0028231340282B03D0FB68B0221343F8
:10831C00FB60BB1C1B880222134010D0FB6844225C
:10832C001343FB607B6841229B5CDBB21A00282361
:10833C001340282B03D0FB68B0221343FB60BB1CFB
:10834C0000229B5E002B03DAFB68B8221343FB6010
:10835C00BB1C1B88102B03D1FB6890221343FB60C2
:10836C00BB1C1B88202B03D1FB6820221343FB6012
:10837C00BB1C1B88402B03D1FB6840221343FB60C2
:10838C007B681B687A6812681268F968C9430A40EE
:10839C001A60C046BD4604B080BD000080B582B0F6
:1083AC0000AF786039607B681B682F4A934209D014
:1083BC007B681B682D4A934204D02D4B6421180016
:1083CC00FBF788FA3B68002B09D03A6880235B01E5
:1083DC009A4204D0264B65211800FBF77BFA7B6888
:1083EC0041229B5CDBB2202B38D17B6840229B5C0A
:1083FC00012B01D1022332E07B68402201219954E8
:10840C007B684122242199547B681B687A68126826
:10841C00126801218A431A607B681B687A681268AB
:10842C00126814490A401A607B681B687A681268E3
:10843C0011683A680A431A607B681B687A6812688C
:10844C00126801210A431A607B6841222021995449
:10845C007B68402200219954002300E0022318007D
:10846C00BD4602B080BDC0460054004000580040DC
:10847C00FCEB0008FFEFFFFF80B584B000AF786025
:10848C0039607B681B682D4A934209D07B681B6856
:10849C002B4A934204D02B4B92211800FBF71AFA6B
:1084AC003B680F2B04D9274B93211800FBF712FACA
:1084BC007B6841229B5CDBB2202B39D17B6840224C
:1084CC009B5C012B01D1022333E07B68402201210C
:1084DC0099547B684122242199547B681B687A68E3
:1084EC001268126801218A431A607B681B681B683A
:1084FC00FB60FB68144A1340FB603B681B02FA6884
:10850C001343FB607B681B68FA681A607B681B6806
:10851C007A681268126801210A431A607B6841224A
:10852C00202199547B68402200219954002300E0BB
:10853C0002231800BD4604B080BDC0460054004064
:10854C0000580040FCEB0008FFF0FFFF80B582B044
:10855C0000AF78607B681B68034A1A600023180020
:10856C00BD4602B080BDC046AAAA000080B584B04A
:10857C0000AF78607A6880239B009A420AD07A68B0
:10858C008023DB009A4205D01B4A1C4B11001800BB
:10859C00FBF7A0F91A4B1A4A12681A4911407A686B
:1085AC000A431A607A6880239B009A421FD1164BAB
:1085BC001A6813005B009B185B0014491800F7F74E
:1085CC009BFD03000133FB6008E0FB68002B03D02C
:1085DC00FB68013BFB6001E0032309E0084B5A698F
:1085EC008023DB001A408023DB009A42EDD000236D
:1085FC001800BD4604B080BDFF02000038EC000836
:10860C0000700040FFF9FFFF0000002040420F0007
:10861C0080B500AF0D4BDA6880235B02134005D0A8
:10862C000A4B80225202DA6000F012F8074B1A69EA
:10863C0080235B02134005D0044B802252021A6146
:10864C0000F00BF8C046BD4680BDC0460018024085
:10865C0080B500AFC046BD4680BD80B500AFC046FA
:10866C00BD4680BD80B500AF034B9A68E023DB01AB
:10867C0013401800BD4680BD0010024080B588B084
:10868C0000AF78607B68002B02D1012300F02FFC37
:10869C007B681B68002B1BD07B681B680122134076
:1086AC0016D17B681B680222134011D17B681B68B2
:1086BC00082213400CD17B681B680422134007D19D
:1086CC004623FF331A00C84B11001800FBF702F9C0
:1086DC007B681B680122134000D197E07B685B68C4
:1086EC00002B13D07B685A6880235B029A420DD012
:1086FC007B685A68A023DB029A4207D04C23FF33D5
:10870C001A00B94B11001800FBF7E4F8B74B9B6843
:10871C0038221340BB61B54BDB68032213407B61ED
:10872C00BB69102B02D17B69032B02D0BB69082BD0
:10873C000CD1AE4B1A6880239B02134065D07B682A
:10874C005B68002B61D1012300F0D1FB7B685A6878
:10875C0080235B029A4207D1A44BA44A1268802161
:10876C0049020A431A6020E07B685A68A023DB02A6
:10877C009A420ED19D4B9D4A12688021C9020A4330
:10878C001A609A4B994A1268802149020A431A606E
:10879C000BE0964B954A126895490A401A60934B28
:1087AC00924A126893490A401A607B685B68002BF6
:1087BC0015D0FCF707F803003B6109E0FCF702F861
:1087CC0002003B69D31A642B02D9032300F08FFB00
:1087DC00864B1A6880239B021340EFD016E0FBF700
:1087EC00F1FF03003B6109E0FBF7ECFF02003B6982
:1087FC00D31A642B02D9032300F079FB7B4B1A6844
:10880C0080239B021340EFD100E0C0467B681B68BD
:10881C000222134000D1FCE07B68DB68002B0CD0FB
:10882C007B68DA6880235B009A4206D0C0235A002A
:10883C006D4B11001800FBF74DF87B685B697F2BC3
:10884C0007D98223FF331A00674B11001800FBF77E
:10885C0041F87B681B69002B30D07B681A69802338
:10886C001B019A422AD07B681A6980235B019A42C9
:10887C0024D07B681A69C0235B019A421ED07B68A6
:10888C001A6980239B019A4218D07B681A69A0232D
:10889C009B019A4212D07B681A69C0239B019A42B1
:1088AC000CD07B681A69E0239B019A4206D0C12345
:1088BC005A004D4B11001800FBF70CF84B4B9B6802
:1088CC0038221340BB61494BDB68032213407B61A8
:1088DC00BB69102B02D17B69022B02D0BB69002B28
:1088EC0033D1424B1A688023DB00134005D07B68E0
:1088FC00DB68002B01D10123F9E23C4A3B4B5B685E
:10890C003D4919407B685B691B020B435360BB6993
:10891C00002B11D1354A354B1B68384919407B68FF
:10892C001B690B431360314B1B68DB0A0722134096
:10893C00334ADA40334B1A60334B1B681800FBF791
:10894C00E5FE031E64D00123D1E27B68DB68002BBB
:10895C002ED0264A254B1B68284919407B681B6979
:10896C000B431360214B214A1268802149000A43B2
:10897C001A60FBF727FF03003B6108E0FBF722FFBF
:10898C0002003B69D31A022B01D90323AFE2174B28
:10899C001A688023DB001340F0D0144A134B5B6839
:1089AC00154919407B685B691B020B43536030E02F
:1089BC000E4B0E4A126815490A401A60FBF702FF6B
:1089CC0003003B6108E0FBF7FDFE02003B69D31A94
:1089DC00022B01D903238AE2044B1A688023DB00A3
:1089EC001340F0D115E0C04674EC000800100240B2
:1089FC00FFFFFEFFFFFFFBFFFF80FFFFFFC7FFFF37
:108A0C000024F4000000002004000020FFFEFFFF03
:108A1C00C0467B681B680822134057D07B689B6953
:108A2C00002B0BD07B689B69012B07D0D623FF331F
:108A3C001A00854B11001800FAF74CFF834B9B680A
:108A4C0038221340182B0AD1804B1B6E0222134084
:108A5C003CD07B689B69002B38D1012347E27B68B3
:108A6C009B69002B19D0794B784A126E01210A436D
:108A7C001A66FBF7A7FE03003B6108E0FBF7A2FEBA
:108A8C0002003B69D31A022B01D903232FE26F4B4F
:108A9C001B6E02221340F1D018E06C4B6B4A126E25
:108AAC0001218A431A66FBF78DFE03003B6108E047
:108ABC00FBF788FE02003B69D31A022B01D9032372
:108ACC0015E2624B1B6E02221340F1D17B681B68CE
:108ADC000422134000D1D1E01F23FB1800221A708E
:108AEC007B689B68002B0DD07B689B68012B09D0A1
:108AFC007B689B68052B05D0554A534B1100180019
:108B0C00FAF7E8FE514B9B6838221340202B0CD10E
:108B1C004E4BDB6D0222134000D1AFE07B689B68AB
:108B2C00002B00D0AAE00123E1E1484BDA6B802353
:108B3C005B05134001D1012300E00023002B11D071
:108B4C00424B424AD26B802149050A43DA633F4BC0
:108B5C00DA6B80235B051340FB60FB681F23FB185B
:108B6C0001221A703B4B1A6880235B0013401AD108
:108B7C00384B384A1268802149000A431A60FBF7C7
:108B8C0021FE03003B6108E0FBF71CFE02003B6981
:108B9C00D31A022B01D90323A9E12E4B1A68802387
:108BAC005B001340F0D07B689B68012B06D1274BF0
:108BBC00264AD26D01210A43DA651CE07B689B686A
:108BCC00052B0CD1214B214AD26D04210A43DA65C5
:108BDC001E4B1E4AD26D01210A43DA650BE01B4B7A
:108BEC001A4AD26D01218A43DA65184B174AD26DA5
:108BFC0004218A43DA657B689B68002B14D0FBF751
:108C0C00E1FD03003B6109E0FBF7DCFD02003B6981
:108C1C00D31A114A934201D9032368E10B4BDB6D44
:108C2C0002221340F0D01EE0FBF7CCFD03003B61A9
:108C3C0014E0FBF7C7FD02003B69D31A064A9342C6
:108C4C000CD9032353E1C04674EC00080010024019
:108C5C000D0200000070004088130000A64BDB6D75
:108C6C0002221340E5D11F23FB181B78012B05D1E1
:108C7C00A14BA14AD26BA1490A40DA637B68DB693C
:108C8C00002B0ED07B68DB69012B0AD07B68DB697B
:108C9C00022B06D0A2239A00994B11001800FAF768
:108CAC0019FE7B68DB69002B00D11FE1924B9B689E
:108CBC0038221340102B00D1DFE07B68DB69022BDC
:108CCC0000D0B3E07B681B6A002B0DD07B681B6A5D
:108CDC00022B09D07B681B6A032B05D0894A884B71
:108CEC0011001800FAF7F6FD7B685B6A702B05D94A
:108CFC00854A834B11001800FAF7ECFD7B689B6AE0
:108D0C00072B03D97B689B6A562B06D9A5239A009F
:108D1C007B4B11001800FAF7DDFD7B68DB6A7B4AA0
:108D2C00934205D97B68DA6AF8239B039A4205D9EA
:108D3C00774A734B11001800FAF7CCFD7B681B6B5C
:108D4C00744A934205D97B681A6BE0231B059A423F
:108D5C0005D9714A6A4B11001800FAF7BBFD7B6804
:108D6C005B6B6E4A934205D97B685A6BE0231B06FA
:108D7C009A4205D96A4A624B11001800FAF7AAFD0B
:108D8C005D4B5D4A126867490A401A60FBF71AFD91
:108D9C0003003B6108E0FBF715FD02003B69D31AA9
:108DAC00022B01D90323A2E0534B1A6880239B04A6
:108DBC001340F0D1504A504BDB685B4919407B683B
:108DCC00186A7B685B6A18437B689B6A1B021843B2
:108DDC007B68DB6A18437B681B6B18437B685B6B97
:108DEC0003430B43D360444B434A1268802149042C
:108DFC000A431A60404B404AD268802149050A4315
:108E0C00DA60FBF7DFFC03003B6108E0FBF7DAFC00
:108E1C0002003B69D31A022B01D9032367E0364BBE
:108E2C001A6880239B041340F0D05FE0324B324A27
:108E3C0012683C490A401A602F4B2F4AD268032112
:108E4C008A43DA602C4B2C4AD26838490A40DA60E3
:108E5C00FBF7B8FC03003B6108E0FBF7B3FC020036
:108E6C003B69D31A022B01D9032340E0224B1A6829
:108E7C0080239B041340F0D138E07B68DB69012B25
:108E8C0001D1012333E01C4BDB687B617B6903223E
:108E9C001A407B681B6A9A4226D17B6970221A4061
:108EAC007B685B6A9A421FD17A69FE23DB011A4008
:108EBC007B689B6A1B029A4216D17A69F8239B0342
:108ECC001A407B68DB6A9A420ED17A69E0231B0553
:108EDC001A407B681B6B9A4206D17B695B0F5A0761
:108EEC007B685B6B9A4201D0012300E000231800E1
:108EFC00BD4608B080BDC04600100240FFFFFFEF2A
:108F0C0074EC00089202000093020000FFFF0100C5
:108F1C0095020000FFFFFF0197020000FFFFFF1FFB
:108F2C0099020000FFFFFFFE8C80C111FFFFFEEED7
:108F3C0080B584B000AF786039607B68002B01D1BC
:108F4C0001237DE17B681B680722134004D07B68FA
:108F5C001B680722934305D0BB4ABC4B1100180079
:108F6C00FAF7B8FC3B68002B0BD03B68012B08D000
:108F7C003B68022B05D0B64AB44B11001800FAF727
:108F8C00A9FCB44B1B6807221A403B689A421ED2BC
:108F9C00B04BB04A126807218A4311003A680A4361
:108FAC001A60FBF70FFC0300FB6009E0FBF70AFCFF
:108FBC000200FB68D31AA84A934201D903233FE16C
:108FCC00A44B1B6807221A403B689A42EED17B687F
:108FDC001B68022213404ED07B681B68042213408E
:108FEC0006D09E4B9D4A9268E021C9010A439A60C3
:108FFC007B689B68002B35D07B689A6880231B01AB
:10900C009A422FD07B689A6890231B019A4229D0F0
:10901C007B689A68A0231B019A4223D07B689A68CC
:10902C00B0231B019A421DD07B689A68C0231B0198
:10903C009A4217D07B689A68D0231B019A4211D0B0
:10904C007B689A68E0231B019A420BD07B689A6874
:10905C00F0231B019A4205D0814A7C4B1100180069
:10906C00FAF738FC7D4A7D4B9B687E4919407B683A
:10907C009B680B4393607B681B680122134000D1F3
:10908C0071E07B685B68002B15D07B685B68012BFB
:10909C0011D07B685B68042B0DD07B685B68032B5D
:1090AC0009D07B685B68022B05D06F4A674B1100B7
:1090BC001800FAF70FFC7B685B68012B07D1674B34
:1090CC001A6880239B0213402BD10123B8E07B68E4
:1090DC005B68022B07D1614B1A6880239B041340F9
:1090EC001FD10123ACE07B685B68002B07D15B4B85
:1090FC001A688023DB00134013D10123A0E07B68A6
:10910C005B68032B06D1554B1B6E0222134008D112
:10911C00012395E0514BDB6D0222134001D1012359
:10912C008EE04E4A4D4B9B6807218B4319007B68A0
:10913C005B680B439360FBF745FB0300FB6009E0A6
:10914C00FBF740FB0200FB68D31A434A934201D958
:10915C00032375E0414B9B6838221A407B685B689F
:10916C00DB009A42ECD13B4B1B6807221A403B6850
:10917C009A421ED9374B374A126807218A4311008D
:10918C003A680A431A60FBF71DFB0300FB6009E019
:10919C00FBF718FB0200FB68D31A2F4A934201D944
:1091AC0003234DE02B4B1B6807221A403B689A4265
:1091BC00EED17B681B68042213402AD07B68DB68E5
:1091CC00002B1DD07B68DA688023DB019A4217D014
:1091DC007B68DA68A023DB019A4211D07B68DA68DD
:1091EC00C023DB019A420BD07B68DA68E023DB01F9
:1091FC009A4205D01D4A154B11001800FAF76AFB6C
:10920C00164A164B9B681A4919407B68DB680B435E
:10921C00936000F035F80100104B9B681B0A0F227D
:10922C001A40144B9200D3581F2213400A00DA4004
:10923C00114B1A60114B1B681800FBF767FA0300FF
:10924C001800BD4604B080BD2E03000074EC00086D
:10925C002F03000000200240881300000010024081
:10926C0053030000FFF0FFFF5A030000AD030000A2
:10927C00FF8FFFFF60EE00080000002004000020BC
:10928C0080B586B000AF3C4B9B68382213400FD1A1
:10929C00394B1B68DB0A0722134001229A4013004A
:1092AC00FB60F9683548F6F727FF03003B615DE08A
:1092BC00314B9B6838221340082B02D1304B3B6159
:1092CC0054E02D4B9B6838221340102B38D12A4B7D
:1092DC00DB6803221340BB60274BDB681B090722AA
:1092EC00134001337B60BB68032B0DD17968244894
:1092FC00F6F702FF030019001F4BDB681B0A7F22E5
:10930C0013404B437B610DE079681C48F6F7F4FE83
:10931C0003001900184BDB681B0A7F2213404B43D8
:10932C007B61C046144BDB685B0F07221340013393
:10933C003B6039687869F6F7DFFE03003B6115E0A6
:10934C000D4B9B6838221340202B03D180231B022A
:10935C003B610BE0084B9B6838221340182B03D160
:10936C00FA23DB013B6101E000233B613B69180000
:10937C00BD4606B080BDC046001002400024F4007B
:10938C0000127A0080B500AF024B1B681800BD4676
:10939C0080BDC04600000020B0B500AFFFF7F2FF63
:1093AC000400FFF75FF903001A0B054B9200D3582A
:1093BC001F221340DC4023001800BD46B0BDC04640
:1093CC00A0EE000880B586B000AF78601323FB18C0
:1093DC0000221A701223FB1800221A707B681B687B
:1093EC000122134043D17B681B68022213403ED1FB
:1093FC007B681B681022134039D17B681B682022C4
:10940C00134034D17B681A6880231B0113402ED182
:10941C007B681A6880239B00134028D17B681A68EC
:10942C008023DB00134022D17B681A688023DB0188
:10943C0013401CD17B681A6880239B02134016D101
:10944C007B681A6880231B03134010D17B681A6851
:10945C0080239B0313400AD17B681A688023DB03AB
:10946C00134004D15C4B7A211800FAF733FA7B686D
:10947C001A6880239B02134000D1CAE01123FB1809
:10948C0000221A707B681B6B002B16D07B681A6B42
:10949C0080235B009A4210D07B681A6B80239B0060
:1094AC009A420AD07B681A6BC0239B009A4204D064
:1094BC00494B82211800FAF70DFA484BDA6B8023DE
:1094CC005B05134011D1454B444AD26B80214905B1
:1094DC000A43DA63414BDA6B80235B051340BB60B4
:1094EC00BB681123FB1801221A703D4B3C4A1268D1
:1094FC00802149000A431A60FBF764F90300FB6002
:10950C000BE0FBF75FF90200FB68D31A022B04D9BE
:10951C001323FB1803221A7005E0314B1A688023C1
:10952C005B001340EDD01323FB181B78002B5FD18D
:10953C002A4BDA6DC0239B0013407B617B69002BA7
:10954C0019D07B681A6B7B699A4214D0234BDB6D64
:10955C00244A13407B61214B204AD26D8021490261
:10956C000A43DA651D4B1D4AD26D1F490A40DA6564
:10957C001A4B7A69DA657B690122134016D0FBF726
:10958C0021F90300FB600CE0FBF71CF90200FB68FF
:10959C00D31A164A934204D91323FB1803221A70C8
:1095AC0004E00E4BDB6D02221340EDD01323FB18AD
:1095BC001B78002B09D1094A084BDB6D094919406E
:1095CC007B681B6B0B43D36518E01223FB1813222B
:1095DC00BA1812781A7011E0ACEC000800100240B6
:1095EC0000700040FFFCFFFFFFFFFEFF8813000030
:1095FC001223FB181322BA1812781A701123FB18B5
:10960C001B78012B05D1CD4BCC4AD26BCC490A40EF
:10961C00DA637B681B68012213401ED07B685B6891
:10962C00002B10D07B685B68012B0CD07B685B68CF
:10963C00032B08D07B685B68022B04D0C14BD8216C
:10964C001800FAF747F9BD4ABC4B5B6D03218B43FD
:10965C0019007B685B680B4353657B681B680222AF
:10966C0013401ED07B689B68002B10D07B689B68D6
:10967C00042B0CD07B689B680C2B08D07B689B68F8
:10968C00082B04D0AF4BE3211800FAF723F9AB4AAF
:10969C00AA4B5B6D0C218B4319007B689B680B43B9
:1096AC0053657B681B681022134023D07B68DB68F2
:1096BC00002B16D07B68DA688023DB009A4210D02E
:1096CC007B68DA68C0231B019A420AD07B68DA688F
:1096DC0080231B019A4204D09A4BFB211800FAF705
:1096EC00F9F8964A954B5B6D974919407B68DB6896
:1096FC000B4353657B681A6880239B00134025D06D
:10970C007B689B69002B18D07B689A698023DB02ED
:10971C009A4212D07B689A6980231B039A420CD020
:10972C007B689A69C0231B039A4206D089235A008E
:10973C00844B11001800FAF7CDF8804A7F4B5B6D13
:10974C00824919407B689B690B4353657B681A6897
:10975C008023DB00134026D07B68DB69002B19D0FB
:10976C007B68DA6980235B039A4213D07B68DA69E1
:10977C0080239B039A420DD07B68DA69C0239B033C
:10978C009A4207D01C23FF331A006E4B11001800AD
:10979C00FAF7A0F8694A694B5B6D6D4919407B6813
:1097AC00DB690B4353657B681B68202213401FD079
:1097BC007B681B69002B12D07B681A6980235B01C4
:1097CC009A420CD07B681A6980239B019A4206D07E
:1097DC0092235A005B4B11001800FAF77BF8574A9A
:1097EC00564B5B6D5B4919407B681B690B4353659A
:1097FC007B681A688023DB0113402CD07B681A6AC3
:10980C008023DB059A4210D07B681B6A002B0CD09E
:10981C007B681A6A80231B069A4206D0A4235A003E
:10982C00484B11001800FAF755F8444A434B5B6D4E
:10983C009B0099087B681B6A0B4353657B681A6A0B
:10984C008023DB059A4206D13C4B3C4AD2688021EE
:10985C0049020A43DA607B681A6880231B031340B1
:10986C0019D07B685B6A002B0BD07B685B6A402B42
:10987C0007D05A23FF331A00324B11001800FAF7A5
:10988C0029F82E4A2D4B5B6D40218B4319007B68C8
:10989C005B6A0B4353657B681A6880239B031340F8
:1098AC0027D07B689A6A8023DB039A420BD07B68B3
:1098BC009B6A002B07D06623FF331A00214B110043
:1098CC001800FAF707F81D4A1C4B5B6D224919402A
:1098DC007B689B6A0B4353657B689A6A8023DB0326
:1098EC009A4206D1154B154AD268802149040A4385
:1098FC00DA607B681A688023DB0313403AD07B68FC
:10990C00DA6A80235B049A420BD07B68DB6A002BFB
:10991C0007D07823FF331A000A4B11001800F9F70F
:10992C00D9FF064A054B5B6D0C4919407B68DB6A15
:10993C000B4353657B68DA6A802311E00010024008
:10994C00FFFFFFEFACEC0008FFF3FFFFFFFFF3FF9F
:10995C00FFFFCFFFFFCFFFFFFFFFBFFFFFFFFFFEAC
:10996C005B049A4206D1234B224AD26880214904D7
:10997C000A43DA607B681A6880231B01134032D0DB
:10998C007B685B69002B18D07B685A698023DB01EC
:10999C009A4212D07B685A6980231B029A420CD0DF
:1099AC007B685A69C0231B029A4206D0C4235A0012
:1099BC00114B11001800F9F78DFF0E4A0D4B5B6D22
:1099CC000E4919407B685B690B4353657B685A6988
:1099DC008023DB019A4206D1064B064AD2688021CD
:1099EC0049020A43DA601223FB181B781800BD46A3
:1099FC0006B080BD00100240ACEC0008FF3FFFFF3A
:109A0C0080B588B000AF78607B681B685B68FB61D1
:109A1C007B681B689B68BB61BB69402213400DD1FE
:109A2C00BB690122134009D0FB694022134005D0C9
:109A3C007B68DB6C7A6810009847C6E0BB69022231
:109A4C00134009D0FB698022134005D07B681B6D45
:109A5C007A6810009847B8E0BB692022134009D1FE
:109A6C00BB694022134005D1BA6980235B001340C7
:109A7C0000D1AAE0FB692022134000D1A5E0BB690C
:109A8C004022134023D07B685D229B5CDBB2032B0E
:109A9C0011D07B681B6E04221A437B681A66002364
:109AAC007B617B681B68DB687B617B681B689B68E0
:109ABC007B617B690BE000233B617B681B68DB6887
:109ACC003B617B681B689B683B613B697DE0BB69C4
:109ADC002022134014D07B681B6E01221A437B6832
:109AEC001A660023FB607B681B689B68FB607B68C5
:109AFC001B687A681268126840218A431A60FB68F6
:109B0C00BA6980235B0013400CD07B681B6E082263
:109B1C001A437B681A660023BB607B681B689B68D2
:109B2C00BB60BB687B681B6E002B4DD07B681B68D1
:109B3C007A6812685268E0218A435A607B685D2219
:109B4C0001219954FB690222134003D1FB690122C4
:109B5C00134032D07B681B687A6812685268032104
:109B6C008A435A607B689B6D002B10D07B689B6D81
:109B7C00174A9A637B689B6D1800FCF737FC031E31
:109B8C0005D07B681B6E40221A437B681A667B6883
:109B9C005B6D002B16D07B685B6D0D4A9A637B68FE
:109BAC005B6D1800FCF722FC031E0BD07B681B6E50
:109BBC0040221A437B681A6604E07B68180000F0A8
:109BCC0009F800E0C046C046C046BD4608B080BD9E
:109BDC00F19B000880B582B000AF7860C046BD46EE
:109BEC0002B080BD80B584B000AF78607B689B6AA2
:109BFC00FB60FB68462200219952FB680022DA8741
:109C0C00FB681800FFF7E6FFC046BD4604B080BDF8
:109C1C0080B582B000AF78607B68002B01D1012346
:109C2C00C2E07B681B68624A93422FD07B681A683B
:109C3C008023DB059A4229D07B681B685D4A9342DE
:109C4C0024D07B681B685C4A93421FD07B681B68DE
:109C5C005A4A93421AD07B681B68594A934215D0D2
:109C6C007B681B68574A934210D07B681B68564A26
:109C7C0093420BD07B681B68544A934206D08F23C7
:109C8C005A00534B11001800F9F724FE7B689B68AF
:109C9C00002B17D07B689B68102B13D07B689B68BC
:109CAC00202B0FD07B689B68402B0BD07B689B686C
:109CBC00602B07D02023FF331A00454B11001800EE
:109CCC00F9F708FE7B681B69002B12D07B681A69B8
:109CDC0080235B009A420CD07B681A6980239B001E
:109CEC009A4206D090235A00394B11001800F9F70C
:109CFC00F1FD7B689B69002B0BD07B689B69802BEB
:109D0C0007D02223FF331A00314B11001800F9F74A
:109D1C00E1FD7B683D229B5CDBB2002B07D17B68AD
:109D2C003C22002199547B681800FAF797F97B685C
:109D3C003D22022199547B681A687B680433190010
:109D4C00100001F073FA7B684822012199547B685A
:109D5C003E22012199547B683F22012199547B6852
:109D6C004022012199547B684122012199547B683E
:109D7C004222012199547B684322012199547B682A
:109D8C004422012199547B684522012199547B6816
:109D9C004622012199547B684722012199547B6802
:109DAC003D220121995400231800BD4602B080BD0C
:109DBC00002C014000040040001000400014004042
:109DCC000020004000400140004401400048014098
:109DDC00E8EC000880B584B000AF78607B681B6845
:109DEC00404A93422FD07B681A688023DB059A4245
:109DFC0029D07B681B683C4A934224D07B681B6843
:109E0C003A4A93421FD07B681B68394A93421AD056
:109E1C007B681B68374A934215D07B681B68364AAF
:109E2C00934210D07B681B68344A93420BD07B68FA
:109E3C001B68334A934206D0ED235A00314B110074
:109E4C001800F9F747FD7B683D229B5CDBB2012BC8
:109E5C0001D0012342E07B683D22022199547B68AA
:109E6C001B687A681268D26801210A43DA607B6841
:109E7C001B681C4A93420FD07B681A688023DB0551
:109E8C009A4209D07B681B68174A934204D07B68BE
:109E9C001B68194A934216D17B681B689B681A4A47
:109EAC001340FB60FB68062B16D0FA6880235B021C
:109EBC009A4211D07B681B687A681268126801217B
:109ECC000A431A6008E07B681B687A68126812689B
:109EDC0001210A431A6000E0C04600231800BD4669
:109EEC0004B080BD002C0140000400400010004074
:109EFC00001400400020004000400140004401409C
:109F0C0000480140E8EC00080700010080B582B071
:109F1C0000AF78607B68002B01D10123BDE07B682A
:109F2C001B68604A93422ED07B681A688023DB053D
:109F3C009A4228D07B681B685B4A934223D07B688B
:109F4C001B685A4A93421ED07B681B68584A93423E
:109F5C0019D07B681B68574A934214D07B681B68E6
:109F6C00554A93420FD07B681B68544A93420AD0DF
:109F7C007B681B68524A934205D0524A524B1100DF
:109F8C001800F9F7A7FC7B689B68002B15D07B6841
:109F9C009B68102B11D07B689B68202B0DD07B68A5
:109FAC009B68402B09D07B689B68602B05D0474A87
:109FBC00454B11001800F9F78DFC7B681B69002BD1
:109FCC0011D07B681A6980235B009A420BD07B68A6
:109FDC001A6980239B009A4205D03D4A3A4B1100E6
:109FEC001800F9F777FC7B689B69002B0AD07B681B
:109FFC009B69802B06D0A423DA00334B1100180088
:10A00C00F9F768FC7B683D229B5CDBB2002B07D127
:10A01C007B683C22002199547B681800F9F7EEFF0D
:10A02C007B683D22022199547B681A687B68043353
:10A03C001900100001F0FAF87B68482201219954AC
:10A04C007B683E22012199547B683F22012199545F
:10A05C007B684022012199547B684122012199544B
:10A06C007B684222012199547B6843220121995437
:10A07C007B684422012199547B6845220121995423
:10A08C007B684622012199547B684722012199540F
:10A09C007B683D220121995400231800BD4602B073
:10A0AC0080BDC046002C0140000400400010004060
:10A0BC0000140040002000400040014000440140DA
:10A0CC00004801401D050000E8EC00081E050000DA
:10A0DC001F05000080B584B000AF786039607B68E4
:10A0EC001B689E4A934214D13B68002B00D15CE064
:10A0FC003B68042B00D158E03B68082B00D154E09E
:10A10C003B680C2B51D03B68102B4ED03B68142B6A
:10A11C004BD07B681A688023DB059A420BD13B68D5
:10A12C00002B42D03B68042B3FD03B68082B3CD023
:10A13C003B680C2B39D07B681B68894A93420BD146
:10A14C003B68002B31D03B68042B2ED03B68082B8E
:10A15C002BD03B680C2B28D07B681B68814A934220
:10A16C0002D13B68002B20D07B681B687E4A93424F
:10A17C0005D13B68002B18D03B68042B15D07B68AD
:10A18C001B687A4A934202D13B68002B0DD07B6846
:10A19C001B68774A934202D13B68002B05D0754A65
:10A1AC00754B11001800F9F795FB3B68002B08D193
:10A1BC007B683E229B5CDBB2013B5A1E9341DBB2B7
:10A1CC0037E03B68042B08D17B683F229B5CDBB2F9
:10A1DC00013B5A1E9341DBB22BE03B68082B08D1A4
:10A1EC007B6840229B5CDBB2013B5A1E9341DBB285
:10A1FC001FE03B680C2B08D17B6841229B5CDBB2D7
:10A20C00013B5A1E9341DBB213E03B68102B08D183
:10A21C007B6842229B5CDBB2013B5A1E9341DBB252
:10A22C0007E07B6843229B5CDBB2013B5A1E9341E7
:10A23C00DBB2002B01D001238BE03B68002B04D157
:10A24C007B683E220221995423E03B68042B04D105
:10A25C007B683F22022199541BE03B68082B04D1F8
:10A26C007B6840220221995413E03B680C2B04D1EB
:10A27C007B684122022199540BE03B68102B04D1DE
:10A28C007B6842220221995403E07B68432202211D
:10A29C0099547B681B6839680122180001F05CFC3A
:10A2AC007B681B682D4A93420ED07B681B682E4A34
:10A2BC00934209D07B681B682C4A934204D07B687C
:10A2CC001B682B4A934201D1012300E00023002B91
:10A2DC0008D07B681B687A681268526C802109026E
:10A2EC000A435A647B681B681C4A93420FD07B68F4
:10A2FC001A688023DB059A4209D07B681B68184AD0
:10A30C00934204D07B681B68174A934216D17B6832
:10A31C001B689B68194A1340FB60FB68062B16D020
:10A32C00FA6880235B029A4211D07B681B687A68BA
:10A33C001268126801210A431A6008E07B681B68E6
:10A34C007A681268126801210A431A6000E0C0465C
:10A35C0000231800BD4604B080BDC046002C01404F
:10A36C000004004000200040004001400044014037
:10A37C0000480140A5050000E8EC000807000100BA
:10A38C0080B582B000AF786039607B681B686E4A1C
:10A39C00934214D13B68002B00D15CE03B68042B4A
:10A3AC0000D158E03B68082B00D154E03B680C2BE3
:10A3BC0051D03B68102B4ED03B68142B4BD07B6894
:10A3CC001A688023DB059A420BD13B68002B42D0E4
:10A3DC003B68042B3FD03B68082B3CD03B680C2BD4
:10A3EC0039D07B681B68594A93420BD13B68002BD0
:10A3FC0031D03B68042B2ED03B68082B2BD03B680C
:10A40C000C2B28D07B681B68514A934202D13B68C5
:10A41C00002B20D07B681B684E4A934205D13B68C9
:10A42C00002B18D03B68042B15D07B681B684A4A5C
:10A43C00934202D13B68002B0DD07B681B68474AC6
:10A44C00934202D13B68002B05D0454A454B110085
:10A45C001800F9F73FFA7B681B683968002218006E
:10A46C0001F07AFB7B681B68374A93420ED07B68FD
:10A47C001B68384A934209D07B681B68364A934262
:10A48C0004D07B681B68354A934201D1012300E05C
:10A49C000023002B13D07B681B681B6A324A1340C5
:10A4AC000DD17B681B681B6A304A134007D17B684F
:10A4BC001B687A681268526C2D490A405A647B6892
:10A4CC001B681B6A284A13400DD17B681B681B6AEA
:10A4DC00264A134007D17B681B687A681268126899
:10A4EC0001218A431A603B68002B04D17B683E2211
:10A4FC000121995423E03B68042B04D17B683F2253
:10A50C00012199541BE03B68082B04D17B68402245
:10A51C000121995413E03B680C2B04D17B68412238
:10A52C00012199540BE03B68102B04D17B6842222B
:10A53C000121995403E07B684322012199540023A3
:10A54C001800BD4602B080BD002C01400004004044
:10A55C000020004000400140004401400048014000
:10A56C00DB050000E8EC00081111000044040000B9
:10A57C00FF7FFFFF80B582B000AF78607B681B68FF
:10A58C001B6902221340022B24D17B681B68DB68F9
:10A59C0002221340022B1DD17B681B6803225242FE
:10A5AC001A617B6801221A777B681B689B690322FE
:10A5BC00134004D07B68180000F020FE07E07B6895
:10A5CC00180000F013FE7B68180000F01FFE7B687B
:10A5DC0000221A777B681B681B6904221340042B2A
:10A5EC0025D17B681B68DB6804221340042B1ED129
:10A5FC007B681B68052252421A617B6802221A771B
:10A60C007B681B689A69C0239B00134004D07B684D
:10A61C00180000F0F3FD07E07B68180000F0E6FD81
:10A62C007B68180000F0F2FD7B6800221A777B68CB
:10A63C001B681B6908221340082B24D17B681B68FC
:10A64C00DB6808221340082B1DD17B681B6809228C
:10A65C0052421A617B6804221A777B681B68DB699B
:10A66C000322134004D07B68180000F0C7FD07E0FC
:10A67C007B68180000F0BAFD7B68180000F0C6FD7E
:10A68C007B6800221A777B681B681B6910221340B9
:10A69C00102B25D17B681B68DB6810221340102B14
:10A6AC001ED17B681B68112252421A617B680822FA
:10A6BC001A777B681B68DA69C0239B00134004D0AF
:10A6CC007B68180000F09AFD07E07B68180000F02A
:10A6DC008DFD7B68180000F099FD7B6800221A77CD
:10A6EC007B681B681B6901221340012B0FD17B680F
:10A6FC001B68DB6801221340012B08D17B681B68A7
:10A70C00022252421A617B68180000F067FD7B68D8
:10A71C001B681B6980221340802B0FD17B681B6840
:10A72C00DB6880221340802B08D17B681B68812258
:10A73C0052421A617B68180001F078FD7B681B6837
:10A74C001A6980235B001A4080235B009A420ED169
:10A75C007B681B68DB6880221340802B07D17B68E9
:10A76C001B681C4A1A617B68180001F067FD7B6846
:10A77C001B681B6940221340402B0FD17B681B6860
:10A78C00DB6840221340402B08D17B681B684122B8
:10A79C0052421A617B68180000F040FD7B681B6810
:10A7AC001B6920221340202B0FD17B681B68DB68B0
:10A7BC0020221340202B08D17B681B682122524297
:10A7CC001A617B68180001F029FDC046BD4602B035
:10A7DC0080BDC046FFFEFFFF80B584B000AFF860BF
:10A7EC00B9607A607B68002B17D07B68042B14D07F
:10A7FC007B68082B11D07B680C2B0ED07B68102B40
:10A80C000BD07B68142B08D07B683C2B05D0D64A28
:10A81C00D64B11001800F9F75DF8BB681B68602B6C
:10A82C001DD0BB681B68702B19D0BB681B68D04A45
:10A83C00934214D0BB681B68CE4A93420FD0BB68BE
:10A84C001B68CD4A93420AD0BB681B68CB4A934223
:10A85C0005D0CB4AC54B11001800F9F73BF8BB6883
:10A86C009B68002B09D0BB689B68022B05D0C54A9E
:10A87C00BE4B11001800F9F72DF8BB681B69002BB3
:10A88C0009D0BB681B69042B05D0BF4AB74B11001C
:10A89C001800F9F71FF8FB683C229B5C012B01D1D7
:10A8AC00022395E1FB683C22012199547B68142B0F
:10A8BC0000D987E17B689A00B44BD3181B689F467C
:10A8CC00FB681B68B24A934224D0FB681A68802349
:10A8DC00DB059A421ED0FB681B68AE4A934219D026
:10A8EC00FB681B68AC4A934214D0FB681B68AB4AEC
:10A8FC0093420FD0FB681B68A94A93420AD0FB68AD
:10A90C001B68A84A934205D0A74A984B110018001F
:10A91C00F8F7E0FFFB681B68BA681100180000F03C
:10A92C0005FDFB681B68FA681268926908210A43E6
:10A93C009A61FB681B68FA681268926904218A4361
:10A94C009A61FB681B68FA6812689169BA681269A7
:10A95C000A439A6137E1FB681B688D4A934215D014
:10A96C00FB681A688023DB059A420FD0FB681B68D2
:10A97C00884A93420AD0FB681B68884A934205D0E8
:10A98C008A4A7A4B11001800F8F7A4FFFB681B6881
:10A99C00BA681100180000F089FDFB681B68FA68A2
:10A9AC0012689269802109010A439A61FB681B684D
:10A9BC00FA68126892697E490A409A61FB681B68C2
:10A9CC00FA6812689169BA68126912020A439A61AC
:10A9DC00F9E0FB681B686E4A934210D0FB681A685A
:10A9EC008023DB059A420AD0FB681B68694A9342B4
:10A9FC0005D0704A5D4B11001800F8F76BFFFB682F
:10AA0C001B68BA681100180000F00AFEFB681B688E
:10AA1C00FA681268D26908210A43DA61FB681B687C
:10AA2C00FA681268D26904218A43DA61FB681B68F0
:10AA3C00FA681268D169BA6812690A43DA61C2E02D
:10AA4C00FB681B68524A934210D0FB681A6880233B
:10AA5C00DB059A420AD0FB681B684E4A934205D02C
:10AA6C00554A424B11001800F8F734FFFB681B687D
:10AA7C00BA681100180000F091FEFB681B68FA68B8
:10AA8C001268D269802109010A43DA61FB681B68EC
:10AA9C00FA681268D26946490A40DA61FB681B6899
:10AAAC00FA681268D169BA68126912020A43DA614B
:10AABC0089E0FB681B68364A934205D03F4A2B4B12
:10AACC0011001800F8F706FFFB681B68BA68110044
:10AADC00180000F0E1FEFB681B68FA681268526D02
:10AAEC0008210A435A65FB681B68FA681268526DA4
:10AAFC0004218A435A65FB681B68FA681268516D19
:10AB0C00BA6812690A435A655DE0FB681B68204A03
:10AB1C00934205D02A4A154B11001800F8F7DAFEBB
:10AB2C00FB681B68BA681100180000F015FFFB6881
:10AB3C001B68FA681268526D802109010A435A6534
:10AB4C00FB681B68FA681268526D19490A405A650D
:10AB5C00FB681B68FA681268516DBA6812691202B8
:10AB6C000A435A652FE0C0464B100000E8EC000881
:10AB7C004000010050000100600001007000010065
:10AB8C004C1000004D1000004E100000C0EE0008EC
:10AB9C00002C014000040040002000400040014017
:10ABAC0000440140004801405810000069100000AA
:10ABBC00FFFBFFFF7A1000008B1000009C100000C0
:10ABCC00AD100000C046FB683C22002199540023C4
:10ABDC001800BD4604B080BD80B584B000AF78606D
:10ABEC0039607B683C229B5C012B01D10223D7E2AC
:10ABFC007B683C22012199547B683D2202219954A7
:10AC0C003B681A6880235B019A422BD03B681A6818
:10AC1C0080239B019A4225D03B681B68002B21D0D6
:10AC2C003B681B68102B1DD03B681B68202B19D070
:10AC3C003B681B68302B15D03B681B68402B11D030
:10AC4C003B681B68502B0DD03B681B68602B09D0F0
:10AC5C003B681B68702B05D0AC4AAD4B110018003B
:10AC6C00F8F738FE7B681B689B68FB60FB68A94A99
:10AC7C001340FB60FB68A84A1340FB607B681B68B1
:10AC8C00FA689A603B681B68402B00D109E20ED829
:10AC9C00102B00D156E203D8002B00D152E276E201
:10ACAC00202B00D14EE2302B00D14BE26FE2702B07
:10ACBC004FD006D8502B00D150E1602B00D19EE133
:10ACCC0065E280225201934205D080229201934288
:10ACDC0000D1AEE05BE27B681B68904A934200D1E6
:10ACEC0054E27B681A688023DB059A4200D14DE25E
:10ACFC007B681B688A4A934200D147E27B681B68D9
:10AD0C00884A934200D141E27B681B68864A934291
:10AD1C0000D13BE27B681B68844A934200D135E248
:10AD2C007B681B68824A934200D12FE27B681B68C8
:10AD3C00804A934200D129E27B681B687E4A934289
:10AD4C0000D123E27D4A724B11001800F8F7C2FDC6
:10AD5C001CE27B681B68714A934211D07B681A68AD
:10AD6C008023DB059A420BD07B681B686C4A9342AC
:10AD7C0006D0A7235A01664B11001800F8F7AAFD5C
:10AD8C003B689B68002B17D03B689A6880235B015B
:10AD9C009A4211D03B689A6880239B019A420BD04F
:10ADAC003B689A68C0239B019A4205D0644A584B71
:10ADBC0011001800F8F78EFD3B685A6880231B02BF
:10ADCC009A4215D03B685B68002B11D03B685B68DE
:10ADDC00002B0DD03B685B68022B09D03B685B688D
:10ADEC000A2B05D0574A4A4B11001800F8F772FD90
:10ADFC003B68DB680F2B05D9534A454B11001800F3
:10AE0C00F8F768FD7B6818683B6899683B685A6876
:10AE1C003B68DB6800F080FE7B681B689B68FB600E
:10AE2C00FB6877221343FB607B681B68FA689A60A7
:10AE3C00ADE17B681B68394A934210D07B681A6875
:10AE4C008023DB059A420AD07B681B68344A934204
:10AE5C0005D03E4A2E4B11001800F8F73BFD3B681D
:10AE6C009B68002B17D03B689A6880235B019A4241
:10AE7C0011D03B689A6880239B019A420BD03B68A7
:10AE8C009A68C0239B019A4205D0314A204B11008D
:10AE9C001800F8F71FFD3B685A6880231B029A4282
:10AEAC0015D03B685B68002B11D03B685B68002BAE
:10AEBC000DD03B685B68022B09D03B685B680A2BA2
:10AECC0005D0244A124B11001800F8F703FD3B681B
:10AEDC00DB680F2B05D9204A0D4B11001800F8F731
:10AEEC00F9FC7B6818683B6899683B685A683B6852
:10AEFC00DB6800F011FE7B681B687A681268926848
:10AF0C008021C9010A439A6041E1C046CD1400007A
:10AF1C00E8EC000888FFCEFFFF00FFFF002C01408B
:10AF2C0000040040001000400014004000200040CD
:10AF3C00004001400044014000480140D914000089
:10AF4C00E3140000E4140000E5140000F814000001
:10AF5C00FB140000FC140000FD1400007B681B684F
:10AF6C00914A934215D07B681A688023DB059A427C
:10AF7C000FD07B681B688D4A93420AD07B681B6894
:10AF8C008B4A934205D08B4A8B4B11001800F8F773
:10AF9C00A1FC3B685A6880231B029A4215D03B687F
:10AFAC005B68002B11D03B685B68002B0DD03B68B5
:10AFBC005B68022B09D03B685B680A2B05D07F4A83
:10AFCC007D4B11001800F8F785FC3B68DB680F2BF4
:10AFDC0005D97B4A784B11001800F8F77BFC7B688D
:10AFEC0018683B6859683B68DB681A0000F018FD6C
:10AFFC007B681B685021180000F072FDC7E07B686D
:10B00C001B68694A934215D07B681A688023DB055C
:10B01C009A420FD07B681B68644A93420AD07B68C3
:10B02C001B68634A934205D0664A634B11001800B3
:10B03C00F8F750FC3B685A6880231B029A4215D0E3
:10B04C003B685B68002B11D03B685B68002B0DD014
:10B05C003B685B68022B09D03B685B680A2B05D008
:10B06C00594A554B11001800F8F734FC3B68DB6863
:10B07C000F2B06D9A9235A014F4B11001800F8F7D2
:10B08C0029FC7B6818683B6859683B68DB681A00C8
:10B09C0000F0F4FC7B681B686021180000F020FDB8
:10B0AC0075E07B681B68404A934215D07B681A6830
:10B0BC008023DB059A420FD07B681B683B4A934286
:10B0CC000AD07B681B683A4A934205D03F4A3A4BF8
:10B0DC0011001800F8F7FEFB3B685A6880231B022E
:10B0EC009A4215D03B685B68002B11D03B685B68BB
:10B0FC00002B0DD03B685B68022B09D03B685B686A
:10B10C000A2B05D0324A2C4B11001800F8F7E2FB41
:10B11C003B68DB680F2B05D92E4A274B1100180012
:10B12C00F8F7D8FB7B6818683B6859683B68DB68A4
:10B13C001A0000F075FC7B681B684021180000F0B9
:10B14C00CFFC24E07B681B68174A934215D07B68C0
:10B15C001A688023DB059A420FD07B681B68134A60
:10B16C0093420AD07B681B68114A934205D01A4A55
:10B17C00114B11001800F8F7ADFB7B681A683B689F
:10B18C001B681900100000F0ABFC00E0C0467B68A7
:10B19C003D22012199547B683C22002199540023C3
:10B1AC001800BD4604B080BD002C014000040040D6
:10B1BC00004001400C150000E8EC00080F150000E1
:10B1CC00101500001C1500001F1500002C150000A8
:10B1DC002F150000301500003F15000080B582B01F
:10B1EC0000AF7860C046BD4602B080BD80B582B06D
:10B1FC0000AF7860C046BD4602B080BD80B582B05D
:10B20C0000AF7860C046BD4602B080BD80B582B04C
:10B21C0000AF7860C046BD4602B080BD80B582B03C
:10B22C0000AF7860C046BD4602B080BD80B584B02A
:10B23C0000AF786039607B681B68FB607B68344AC0
:10B24C00934208D07A688023DB059A4203D07B684E
:10B25C00304A934208D1FB6870229343FB603B68F1
:10B26C005B68FA681343FB607B68294A934218D0E9
:10B27C007A688023DB059A4213D07B68254A934277
:10B28C000FD07B68244A93420BD07B68234A9342AD
:10B29C0007D07B68224A934203D07B68214A9342B1
:10B2AC0008D1FB68204A1340FB603B68DB68FA68F6
:10B2BC001343FB60FB68802293431A003B685B6975
:10B2CC001343FB607B68FA681A603B689A687B687A
:10B2DC00DA623B681A687B689A627B680C4A934214
:10B2EC000BD07B680D4A934207D07B680C4A934283
:10B2FC0003D07B680B4A934203D13B681A697B6885
:10B30C001A637B6801225A61C046BD4604B080BDF9
:10B31C00002C01400004004000200040004001408F
:10B32C000044014000480140FFFCFFFF80B586B09F
:10B33C0000AF786039607B681B6A012293431A0066
:10B34C007B681A627B681B6A7B617B685B683B610C
:10B35C007B689B69FB60FB68494A1340FB60FB6898
:10B36C0003229343FB603B681B68FA681343FB6042
:10B37C007B69022293437B613B689B687A69134328
:10B38C007B617B683F4A93420BD07B683E4A934279
:10B39C0007D07B683D4A934203D07B683C4A93427A
:10B3AC001AD13B68DB68002B09D03B68DB68082BA3
:10B3BC0005D0384A384B11001800F8F78BFA7B6926
:10B3CC00082293437B613B68DB687A6913437B619A
:10B3DC007B69042293437B617B682A4A93420BD09E
:10B3EC007B68294A934207D07B68284A934203D052
:10B3FC007B68274A934231D13B689A6980239B0032
:10B40C009A4209D03B689B69002B05D0234A224BFA
:10B41C0011001800F8F75EFA3B685A6980235B004C
:10B42C009A4209D03B685B69002B05D01C4A1A4B29
:10B43C0011001800F8F74EFA3B691A4A13403B61A9
:10B44C003B69194A13403B613B685B693A6913439A
:10B45C003B613B689B693A6913433B617B683A6982
:10B46C005A607B68FA689A613B685A687B685A63D1
:10B47C007B687A691A62C046BD4606B080BDC0467C
:10B48C008FFFFEFF002C01400040014000440140B2
:10B49C0000480140BD1A0000E8EC0008CA1A000080
:10B4AC00CB1A0000FFFEFFFFFFFDFFFF80B586B04B
:10B4BC0000AF786039607B681B6A102293431A00D6
:10B4CC007B681A627B681B6A7B617B685B683B618B
:10B4DC007B689B69FB60FB68454A1340FB60FB681B
:10B4EC00444A1340FB603B681B681B02FA68134319
:10B4FC00FB607B69202293437B613B689B681B014B
:10B50C007A6913437B617B683B4A93421BD13B684E
:10B51C00DB68002B09D03B68DB68082B05D0374A69
:10B52C00374B11001800F8F7D5F97B69802293434B
:10B53C007B613B68DB681B017A6913437B617B6928
:10B54C00402293437B617B682B4A93420BD07B68F0
:10B55C002C4A934207D07B682B4A934203D07B68DA
:10B56C002A4A934233D13B689A6980239B009A42C2
:10B57C0009D03B689B69002B05D0254A204B110054
:10B58C001800F8F7A7F93B685A6980235B009A42C8
:10B59C0009D03B685B69002B05D01E4A184B110083
:10B5AC001800F8F797F93B691B4A13403B613B695C
:10B5BC001A4A13403B613B685B699B003A69134331
:10B5CC003B613B689B699B003A6913433B617B6819
:10B5DC003A695A607B68FA689A613B685A687B687A
:10B5EC009A637B687A691A62C046BD4606B080BD14
:10B5FC00FF8FFFFEFFFCFFFF002C0140081B00002B
:10B60C00E8EC0008004001400044014000480140C3
:10B61C00161B0000171B0000FFFBFFFFFFF7FFFFCF
:10B62C0080B586B000AF786039607B681B6A4D4A84
:10B63C001A407B681A627B681B6A7B617B685B685B
:10B64C003B617B68DB69FB60FB68474A1340FB602E
:10B65C00FB6803229343FB603B681B68FA68134347
:10B66C00FB607B69414A13407B613B689B681B0212
:10B67C007A6913437B617B683D4A93421BD13B68DB
:10B68C00DB68002B09D03B68DB68082B05D0394AF6
:10B69C00394B11001800F8F71DF97B69374A134034
:10B6AC007B613B68DB681B027A6913437B617B69B6
:10B6BC00334A13407B617B682D4A93420BD07B68E5
:10B6CC00304A934207D07B682F4A934203D07B6861
:10B6DC002E4A934234D13B689A6980239B009A424C
:10B6EC000AD03B689B69002B06D0DB235A01224B06
:10B6FC0011001800F8F7EEF83B685A6980235B00DC
:10B70C009A4209D03B685B69002B05D0204A1A4B42
:10B71C0011001800F8F7DEF83B691E4A13403B6134
:10B72C003B691D4A13403B613B685B691B013A69ED
:10B73C0013433B613B689B691B013A6913433B61B3
:10B74C007B683A695A607B68FA68DA613B685A68C8
:10B75C007B68DA637B687A691A62C046BD4606B0BC
:10B76C0080BDC046FFFEFFFF8FFFFEFFFFFDFFFF0A
:10B77C00002C0140531B0000E8EC0008FFF7FFFF12
:10B78C00FFFBFFFF00400140004401400048014026
:10B79C00611B0000FFEFFFFFFFDFFFFF80B586B0EE
:10B7AC0000AF786039607B681B6A304A1A407B684E
:10B7BC001A627B681B6A3B617B685B687B617B6898
:10B7CC00DB69FB60FB682A4A1340FB60FB68294A73
:10B7DC001340FB603B681B681B02FA681343FB6059
:10B7EC003B69254A13403B613B689B681B033A69E4
:10B7FC0013433B617B68214A93420BD07B68204A00
:10B80C00934207D07B681F4A934203D07B681E4A41
:10B81C00934219D13B685A6980235B009A4209D044
:10B82C003B685B69002B05D0184A194B11001800B6
:10B83C00F8F750F87B69174A13407B613B685B69EA
:10B84C009B017A6913437B617B687A695A607B68D8
:10B85C00FA68DA613B685A687B681A647B683A69F3
:10B86C001A62C046BD4606B080BDC046FFEFFFFF62
:10B87C00FF8FFFFEFFFCFFFFFFDFFFFF002C0140EF
:10B88C000040014000440140004801409F1B000063
:10B89C00E8EC0008FFBFFFFF80B586B000AF786012
:10B8AC0039607B681B6A254A1A407B681A627B6880
:10B8BC001B6A3B617B685B687B617B685B6DFB60D3
:10B8CC00FB681F4A1340FB603B681B68FA68134314
:10B8DC00FB603B691B4A13403B613B689B681B0444
:10B8EC003A6913433B617B68174A93420BD07B68E0
:10B8FC00164A934207D07B68154A934203D07B6863
:10B90C00144A934209D17B690C4A13407B613B6812
:10B91C005B691B027A6913437B617B687A695A60A5
:10B92C007B68FA685A653B685A687B689A657B68DD
:10B93C003A691A62C046BD4606B080BDFFFFFEFFE5
:10B94C008FFFFEFFFFFFFDFF002C01400040014078
:10B95C00004401400048014080B586B000AF7860DB
:10B96C0039607B681B6A264A1A407B681A627B68BE
:10B97C001B6A3B617B685B687B617B685B6DFB6012
:10B98C00FB68204A1340FB603B681B681B02FA688B
:10B99C001343FB603B691C4A13403B613B689B684B
:10B9AC001B053A6913433B617B68184A93420BD0E1
:10B9BC007B68174A934207D07B68164A934203D0A0
:10B9CC007B68154A934209D17B69144A13407B6109
:10B9DC003B685B699B027A6913437B617B687A697C
:10B9EC005A607B68FA685A653B685A687B68DA6506
:10B9FC007B683A691A62C046BD4606B080BDC04637
:10BA0C00FFFFEFFFFF8FFFFEFFFFDFFF002C01406A
:10BA1C00004001400044014000480140FFFFFBFF93
:10BA2C0080B586B000AFF860B9607A60FB681B6ABD
:10BA3C007B61FB681B6A012293431A00FB681A6244
:10BA4C00FB689B693B613B69F02293433B617B68DC
:10BA5C001B013A6913433B617B690A2293437B6167
:10BA6C007A69BB6813437B61FB683A699A61FB682E
:10BA7C007A691A62C046BD4606B080BD80B586B0F4
:10BA8C0000AFF860B9607A60FB681B6A10229343C0
:10BA9C001A00FB681A62FB689B697B61FB681B6A76
:10BAAC003B617B690D4A13407B617B681B037A69A0
:10BABC0013437B613B69A02293433B61BB681B0131
:10BACC003A6913433B61FB687A699A61FB683A698E
:10BADC001A62C046BD4606B080BDC046FF0FFFFFD0
:10BAEC0080B584B000AF786039607B689B68FB6080
:10BAFC00FB68084A1340FB603A68FB681343072253
:10BB0C001343FB607B68FA689A60C046BD4604B07C
:10BB1C0080BDC0468FFFCFFF80B586B000AFF86008
:10BB2C00B9607A603B60FB689B687B617B69094A02
:10BB3C0013407B613B681A027B681A43BB68134352
:10BB4C007A6913437B61FB687A699A60C046BD468B
:10BB5C0006B080BDFF00FFFF80B586B000AFF86077
:10BB6C00B9607A60FB682D4A93421ED0FA68802334
:10BB7C00DB059A4219D0FB68294A934215D0FB6821
:10BB8C00284A934211D0FB68274A93420DD0FB6898
:10BB9C00264A934209D0FB68254A934205D0254A90
:10BBAC00254B11001800F7F795FEBB68002B17D03A
:10BBBC00BB68042B14D0BB68082B11D0BB680C2BB2
:10BBCC000ED0BB68102B0BD0BB68142B08D0BB68F5
:10BBDC003C2B05D0194A184B11001800F7F77AFEC8
:10BBEC00BB681F22134001229A4013007B61FB6843
:10BBFC001B6A7A69D2431A40FB681A62FB681A6A9C
:10BC0C00BB681F210B40796899400B001A43FB68F5
:10BC1C001A62C046BD4606B080BDC046002C01402D
:10BC2C00000400400020004000400140004401405E
:10BC3C0000480140F41D0000E8EC0008F51D000070
:10BC4C0080B584B000AF786039607B681B68924A1D
:10BC5C0093421FD07B681A688023DB059A4219D067
:10BC6C007B681B688D4A934214D07B681B688C4A96
:10BC7C0093420FD07B681B688A4A93420AD07B6838
:10BC8C001B68894A934205D0884A894B11001800D9
:10BC9C00F7F720FE3B681B68002B21D03B681B6824
:10BCAC00102B1DD03B681B68202B19D03B681B68E0
:10BCBC00302B15D03B681B68402B11D03B681B68A0
:10BCCC00502B0DD03B681B68602B09D03B681B6860
:10BCDC00702B05D0774A764B11001800F7F7FAFD58
:10BCEC003B689B68802B0AD03B689B68002B06D076
:10BCFC00EE23DA006E4B11001800F7F7EBFD7B68B2
:10BD0C003C229B5C012B01D10223C1E07B683C22CD
:10BD1C00012199547B683D22022199547B681B6850
:10BD2C005B68FB607B681B689B68BB607B681B68FF
:10BD3C00594A934200D073E03B685B68002B00D1FA
:10BD4C0065E03B685A6880235B039A425FD03B688E
:10BD5C005A6880239B039A4259D03B685A68C02387
:10BD6C009B039A4253D03B685A688023DB039A4268
:10BD7C004DD03B685A68A023DB039A4247D03B68FE
:10BD8C005A68C023DB039A4241D03B685A68C023EF
:10BD9C00DB039A423BD03B685A68E023DB039A42B0
:10BDAC0035D03B685A6880231B049A422FD03B68DD
:10BDBC005A6890231B049A4229D03B685A68A023E6
:10BDCC001B049A4223D03B685A68B0231B049A4246
:10BDDC001DD03B685A68C0231B049A4217D03B689D
:10BDEC005A68D0231B049A4211D03B685A68E0234E
:10BDFC001B049A420BD03B685A68F0231B049A42EE
:10BE0C0005D02D4A2A4B11001800F7F763FDFB688B
:10BE1C002A4A1340FB603B685B68FA681343FB607B
:10BE2C00FB6870229343FB603B681B68FA68134302
:10BE3C00FB607B681B68FA685A607B681B68164A53
:10BE4C0093420FD07B681A688023DB059A4209D095
:10BE5C007B681B68114A934204D07B681B68124AAA
:10BE6C0093420CD1BB6880229343BB603B689B68B8
:10BE7C00BA681343BB607B681B68BA689A607B68BE
:10BE8C003D22012199547B683C22002199540023C6
:10BE9C001800BD4604B080BD002C014000040040D9
:10BEAC000010004000140040004001406E070000EC
:10BEBC0020ED00086F07000082070000FFFF0FFF56
:10BECC0080B584B000AF786039600023FB607B687C
:10BEDC001B68B44A934214D07B681B68B24A9342E5
:10BEEC000FD07B681B68B14A93420AD07B681B68F1
:10BEFC00AF4A934205D0AF4AAF4B11001800F7F789
:10BF0C00E9FC3B681A6880231B019A420AD03B6803
:10BF1C001B68002B06D0F723DA00A74B1100180082
:10BF2C00F7F7D8FC3B685A688023DB009A4209D0AB
:10BF3C003B685B68002B05D0A04A9F4B1100180092
:10BF4C00F7F7C8FC3B689B68002B17D03B689A68D6
:10BF5C0080235B009A4211D03B689A6880239B0037
:10BF6C009A420BD03B689A68C0239B009A4205D03A
:10BF7C00934A914B11001800F7F7ACFC3B68DB6857
:10BF8C00FF2B05D98F4A8C4B11001800F7F7A2FC38
:10BF9C003B681A6980235B019A4209D03B681B6994
:10BFAC00002B05D0884A844B11001800F7F792FC3F
:10BFBC003B685B69002B0BD03B685A6980239B0163
:10BFCC009A4205D0814A7C4B11001800F7F782FC8D
:10BFDC003B689B690F2B05D97D4A774B11001800E4
:10BFEC00F7F778FC3B681A6B8023DB019A4209D087
:10BFFC003B681B6B002B05D0764A6F4B1100180069
:10C00C00F7F768FC7B683C229B5C012B01D1022377
:10C01C00C3E07B683C2201219954FB68FF229343C7
:10C02C001A003B68DB681343FB60FB686A4A1A40E2
:10C03C003B689B681343FB60FB68684A1A403B688B
:10C04C005B681343FB60FB68654A1A403B681B68DE
:10C05C001343FB60FB68634A1A403B681B6913433C
:10C06C00FB60FB68604A1A403B685B691343FB60EA
:10C07C00FB685E4A1A403B681B6B1343FB60FB6812
:10C08C005B4A1A403B689B691B041343FB607B684B
:10C09C001B68444A934216D13B68DB69002B0BD0DA
:10C0AC003B68DA6980235B059A4205D0514A424BC2
:10C0BC0011001800F7F70EFCFB684F4A1A403B685A
:10C0CC00DB691343FB607B681B68364A93425BD188
:10C0DC003B681A6A80235B049A4209D03B681B6A4E
:10C0EC00002B05D0454A344B11001800F7F7F2FB32
:10C0FC003B685B6A002B0BD03B685A6A80239B041D
:10C10C009A4205D03E4A2C4B11001800F7F7E2FB7F
:10C11C003B689B6A0F2B05D93A4A274B1100180034
:10C12C00F7F7D8FBFB68384A1A403B689B6A1B053B
:10C13C001343FB60FB68354A1A403B681B6A134388
:10C14C00FB60FB68324A1A403B685B6A1343FB6036
:10C15C007B681B68134A934216D13B68DB6A002B41
:10C16C000BD03B68DA6A80239B059A4205D0294A9A
:10C17C00114B11001800F7F7ADFBFB68264A1A406B
:10C18C003B68DB6A1343FB607B681B68FA685A6484
:10C19C007B683C220021995400231800BD4604B052
:10C1AC0080BDC046002C01400040014000440140CD
:10C1BC0000480140B707000020ED0008B907000057
:10C1CC00BA070000BB070000BC070000BD07000059
:10C1DC00BE070000BF070000FFFCFFFFFFFBFFFFD7
:10C1EC00FFF7FFFFFFEFFFFFFFDFFFFFFFBFFFFFCB
:10C1FC00FFFFF0FFD4070000FFFFFFEFDD0700009B
:10C20C00DE070000DF070000FFFF0FFFFFFFFFFE50
:10C21C00FFFFFFFDE9070000FFFFFFDF80B582B0E5
:10C22C0000AF7860C046BD4602B080BD80B582B01C
:10C23C0000AF7860C046BD4602B080BD80B582B00C
:10C24C0000AF7860C046BD4602B080BD80B582B0FC
:10C25C0000AF78607B68002B01D101238CE07B68F8
:10C26C009B69002B21D07B681B68454A93423CD0CC
:10C27C007B681B68434A934237D07B681B68424AF1
:10C28C00934232D07B681B68404A93422DD07B6826
:10C29C001B683F4A934228D03A23FF331A003D4B88
:10C2AC0011001800F7F716FB1FE07B681B68344A77
:10C2BC0093421AD07B681B68324A934215D07B6834
:10C2CC001B68314A934210D07B681B682F4A9342FB
:10C2DC000BD07B681B682E4A934206D09F235A00D2
:10C2EC002C4B11001800F7F7F5FA7B6884229B5849
:10C2FC00002B07D17B688022002199547B681800A1
:10C30C00F8F78CF97B688422242199507B681B6890
:10C31C007A681268126801218A431A607B681800D7
:10C32C0000F03EFB0300012B01D1012324E07B68CC
:10C33C009B6A002B03D07B68180000F01FFF7B6802
:10C34C001B687A681268526813490A405A607B6805
:10C35C001B687A68126892682A218A439A607B6803
:10C36C001B687A681268126801210A431A607B689C
:10C37C00180001F07FF803001800BD4602B080BD24
:10C38C00003801400044004000480040004C004090
:10C39C00008000405CED0008FFB7FFFF80B58AB05D
:10C3AC0002AFF860B9603B60BB1D1A80FB68842249
:10C3BC009B58202B00D096E0BB68002B03D0BB1DF4
:10C3CC001B88002B01D101238EE0FB689A68802327
:10C3DC005B019A4209D1FB681B69002B05D1BB6834
:10C3EC000122134001D001237EE0FB6880229B5C7C
:10C3FC00012B01D1022377E0FB68802201219954A3
:10C40C00FB688C2200219950FB68842221219950D1
:10C41C00F8F7D8F903007B61FB68BA1D5421128828
:10C42C005A52FB68BA1D562112885A52FB689A68F8
:10C43C0080235B019A4208D1FB681B69002B04D155
:10C44C000023FB61BB68BB6103E0BB68FB6100239D
:10C45C00BB61FB688022002199542BE07A69F86853
:10C46C003B68009313000022802101F04FF8031E5B
:10C47C0001D0032338E0FB69002B0AD1FB681B6851
:10C48C00BA691288D205D20D9A62BB690233BB61BC
:10C49C0007E0FB681B68FA6912789A62FB69013342
:10C4AC00FB61FB6856229B5A9BB2013B99B2FB681D
:10C4BC0056229952FB6856229B5A9BB2002BCDD127
:10C4CC007A69F8683B68009313000022402101F060
:10C4DC001DF8031E01D0032306E0FB6884222021F3
:10C4EC009950002300E002231800BD4608B080BD1F
:10C4FC0080B588B000AF78607B681B68DB69FB6136
:10C50C007B681B681B68BB617B681B689B687B61D5
:10C51C00FB69BC4A13403B613B69002B17D1FB699B
:10C52C002022134013D0BB692022134004D17A6916
:10C53C0080235B0513400AD07B681B6F002B00D156
:10C54C0002E27B681B6F7A6810009847FCE13B693C
:10C55C00002B00D1DEE07B69AB4A134004D1BB69F0
:10C56C00AA4A134000D1D5E0FB690122134010D038
:10C57C00BA6980235B0013400BD07B681B680122D7
:10C58C001A627B688C229B5801221A437B688C218F
:10C59C005A50FB69022213400FD07B6901221340D1
:10C5AC000BD07B681B6802221A627B688C229B581A
:10C5BC0004221A437B688C215A50FB6904221340D5
:10C5CC000FD07B69012213400BD07B681B680422BF
:10C5DC001A627B688C229B5802221A437B688C213E
:10C5EC005A50FB690822134013D0BB692022134018
:10C5FC0003D17B69844A13400BD07B681B680822EB
:10C60C001A627B688C229B5808221A437B688C2107
:10C61C005A50FA6980231B01134011D0BA69802348
:10C62C00DB0413400CD07B681B68802212011A6259
:10C63C007B688C229B5820221A437B688C215A5091
:10C64C007B688C229B58002B00D17FE1FB69202258
:10C65C00134011D0BB692022134004D17A69802386
:10C66C005B05134008D07B681B6F002B04D07B68E4
:10C67C001B6F7A68100098477B688C229B58FB6074
:10C68C007B681B689B6840221340402B03D0FB68DF
:10C69C002822134033D07B68180000F0B9FF7B6868
:10C6AC001B689B6840221340402B23D17B681B687E
:10C6BC007A681268926840218A439A607B68DB6FC3
:10C6CC00002B12D07B68DB6F514A9A637B68DB6F5F
:10C6DC001800F9F78BFE031E1AD07B68DB6F9A6B80
:10C6EC007B68DB6F1800904712E07B68180000F045
:10C6FC0043F90DE07B68180000F03EF908E07B6818
:10C70C00180000F039F97B688C22002199501DE14A
:10C71C00C0461BE17B68DB6E012B00D0BFE0FB69E0
:10C72C001022134000D1BAE0BB691022134000D193
:10C73C00B5E07B681B6810221A627B681B689B68DB
:10C74C0040221340402B67D17B68DB6F1B685A6813
:10C75C000A23FB181A800A23FB181B88002B00D114
:10C76C00F6E07B685C229B5A0A22BA1812889A421D
:10C77C0000D3EDE07B680A22BA185E2112885A5267
:10C78C007B68DB6F1B681B68202213402BD17B68F6
:10C79C001B687A68126812681E490A401A607B6826
:10C7AC001B687A681268926801218A439A607B68D8
:10C7BC001B687A681268926840218A439A607B6889
:10C7CC008822202199507B680022DA667B681B68DE
:10C7DC007A681268126810218A431A607B68DB6FD2
:10C7EC001800F9F79FFD7B685C229A5A7B685E21E2
:10C7FC005B5A9BB2D31A9AB27B681100180000F0F6
:10C80C00C3F8A5E00F08000001000010200100048F
:10C81C0081D60008FFFEFFFF7B685C22995A7B687B
:10C82C005E229B5A9AB20823FB188A1A1A807B68DC
:10C83C005E229B5A9BB2002B00D18BE00823FB1885
:10C84C001B88002B00D185E07B681B687A68126816
:10C85C00126843490A401A607B681B687A68126840
:10C86C00926840490A409A607B688822202199503E
:10C87C007B680022DA667B6800221A677B681B687B
:10C88C007A681268126810218A431A600823FB1810
:10C89C001A887B681100180000F076F85AE0FA69E3
:10C8AC0080235B0313400ED07A698023DB03134093
:10C8BC0009D07B681B68802252031A627B681800BF
:10C8CC0000F00AFF49E0FB698022134012D0BB69DB
:10C8DC008022134004D17A6980231B04134009D0B1
:10C8EC007B685B6F002B37D07B685B6F7A681000BE
:10C8FC00984731E0FB694022134008D0BB694022C5
:10C90C00134004D07B68180000F0CBFE25E0FA69D8
:10C91C0080231B04134009D0BA698023DB05134024
:10C92C0004D07B68180000F0E7FE16E0FA6980235B
:10C93C005B04134011D0BB69002B0EDA7B68180026
:10C94C0000F0D2FEC04608E0C04606E0C04604E057
:10C95C00C04602E0C04600E0C046BD4608B080BDFF
:10C96C00DFFEFFFFFEFFFFEF80B582B000AF786007
:10C97C00C046BD4602B080BD80B582B000AF7860C5
:10C98C00C046BD4602B080BD80B582B000AF7860B5
:10C99C000A00BB1C1A80C046BD4602B080BD000018
:10C9AC00F0B591B000AF78621A2320229446BC44B3
:10C9BC00634400221A707B6A5B68C34A934205D9B0
:10C9CC00C24AC34B11001800F6F784FF7B6A9A68C1
:10C9DC0080235B059A420FD07B6A9B68002B0BD09F
:10C9EC007B6A9A6880235B019A4205D0B94AB84B9E
:10C9FC0011001800F6F76EFF7B6A1B68B64A93426B
:10CA0C0010D17B6ADB68002B38D07B6ADA68802314
:10CA1C009B019A4232D0B14AAD4B11001800F6F787
:10CA2C0059FF2BE07B6ADA6880235B019A4215D0B0
:10CA3C007B6ADB68002B11D07B6ADA68C0239B0110
:10CA4C009A420BD07B6ADA6880239B019A4205D00C
:10CA5C00A34A9F4B11001800F6F73CFF7B6A1B6A38
:10CA6C00002B0BD07B6A1A6A80231B019A4205D0DB
:10CA7C009C4A974B11001800F6F72CFF7B6A1B6938
:10CA8C00002B11D07B6A1A698023DB009A420BD0F1
:10CA9C007B6A1A69C023DB009A4205D0924A8C4B00
:10CAAC0011001800F6F716FF7B6A5B690C229343A2
:10CABC0003D17B6A5B69002B05D18C4A844B110036
:10CACC001800F6F707FF7B6A9B69002B17D07B6A6F
:10CADC009A6980235B009A4211D07B6A9A69802301
:10CAEC009B009A420BD07B6A9A69C0239B009A42A6
:10CAFC0005D07F4A764B11001800F6F7EBFE7B6AE7
:10CB0C00DB69002B0BD07B6ADA6980231B029A420B
:10CB1C0005D0784A6E4B11001800F6F7DBFE7B6AE5
:10CB2C005B6A002B31D07B6A5B6A012B2DD07B6A50
:10CB3C005B6A022B29D07B6A5B6A032B25D07B6A4C
:10CB4C005B6A042B21D07B6A5B6A052B1DD07B6A48
:10CB5C005B6A062B19D07B6A5B6A072B15D07B6A44
:10CB6C005B6A082B11D07B6A5B6A092B0DD07B6A40
:10CB7C005B6A0A2B09D07B6A5B6A0B2B05D05E4A79
:10CB8C00534B11001800F6F7A5FE7B6A9A687B6A76
:10CB9C001B691A437B6A5B691A437B6ADB69134323
:10CBAC00FB637B6A5B6EFA6B1343FB637B6A1968EE
:10CBBC007B6A1B681B68514A1A40FB6B13430B6062
:10CBCC007B6A19687B6A1B685B684D4A1A407B6AF2
:10CBDC00DB6813434B607B6A9B69FB637B6A1B6856
:10CBEC003D4A934204D07B6A1B6AFA6B1343FB6386
:10CBFC007B6A19687B6A1B689B68424A1A40FB6B0C
:10CC0C0013438B607B6A19687B6A1B68DB6A0F2293
:10CC1C0093431A007B6A5B6A1343CB627B6A1B6883
:10CC2C00394A934234D1394B5B6D03221340012BAB
:10CC3C0015D004D3022B0AD0032B18D01FE01B23D2
:10CC4C0020229446BC44634400221A70EBE01B2360
:10CC5C0020229446BC44634402221A70E3E01B2356
:10CC6C0020229446BC44634404221A70DBE01B234C
:10CC7C0020229446BC44634408221A70D3E01B2340
:10CC8C0020229446BC44634410221A70C046CAE069
:10CC9C007B6A1B681E4A93425DD11C4B5B6D0C2258
:10CCAC001340042B3ED002D8002B05D04AE0082BB1
:10CCBC0030D00C2B3ED045E01B2320229446BC44A4
:10CCCC00634400221A70AEE000127A00150C0000CA
:10CCDC005CED0008160C000000800040190C0000F0
:10CCEC001D0C00001E0C0000210C0000220C00008A
:10CCFC00230C0000240C0000250C0000F369FFCF6E
:10CD0C00FFCFFFFFFFF4FF1100380140001002407D
:10CD1C00004400401B2320229446BC44634402225E
:10CD2C001A7080E01B2320229446BC4463440422E6
:10CD3C001A7078E01B2320229446BC4463440822DA
:10CD4C001A7070E01B2320229446BC4463441022CA
:10CD5C001A70C04667E07B6A1B68CB4A934207D1C6
:10CD6C001B2320229446BC44634400221A705AE0D0
:10CD7C007B6A1B68C54A934207D11B232022944629
:10CD8C00BC44634400221A704DE07B6A1B68C04AA5
:10CD9C00934241D1BF4B5A6DC0231B0113408022DB
:10CDAC00D20093421FD08022D200934202D8002B93
:10CDBC0009D028E08022120193420CD0C02212012B
:10CDCC00934218D01FE01B2320229446BC4463449A
:10CDDC0000221A7027E01B2320229446BC44634493
:10CDEC0002221A701FE01B2320229446BC44634489
:10CDFC0004221A7017E01B2320229446BC4463447F
:10CE0C0008221A700FE01B2320229446BC44634472
:10CE1C0010221A70C04606E01B2320229446BC4404
:10CE2C00634410221A707B6A1B68994A934200D0A3
:10CE3C0093E01B2320229446BC4463441B78022BB2
:10CE4C000DD002DC002B05D015E0042B0AD0082BEA
:10CE5C000DD010E0FCF7A0FA03007B6315E08E4BBD
:10CE6C007B6312E0FCF70CFA03007B630DE080237C
:10CE7C001B027B6309E000237B631A232022944668
:10CE8C00BC44634401221A70C0467B6B002B00D15A
:10CE9C0055E17B6A5A6A814B5200D35A1900786B60
:10CEAC00F3F72AF903003B637B6A5A6813005B00B3
:10CEBC009A183B6B9A4205D87B6A5B681A033B6BEA
:10CECC009A4207D21A2320229446BC44634401227E
:10CEDC001A7034E17B6BBB610023FB617B6A5A6A7D
:10CEEC006E4B5200D35A3B6100237B613A697B69DC
:10CEFC00B869F969F3F7B4FA03000C001A0E2602AC
:10CF0C0016431D027B6A5B685B08BB600023FB60F9
:10CF1C00B868F968401971417B6A5B683B60002313
:10CF2C007B603A687B68F3F79BFA03000C00FB62AA
:10CF3C00FB6A5B4A934208D9FB6A5A4A934204D86B
:10CF4C007B6A1B68FA6ADA60F9E01A23202294469D
:10CF5C00BC44634401221A70F1E07B6ADA698023D5
:10CF6C001B029A4200D07DE01B2320229446BC4435
:10CF7C0063441B78022B0DD002DC002B05D015E08E
:10CF8C00042B0AD0082B0DD010E0FCF705FA030097
:10CF9C007B6315E0404B7B6312E0FCF771F90300F7
:10CFAC007B630DE080231B027B6309E000237B6322
:10CFBC001A2320229446BC44634401221A70C046B2
:10CFCC007B6B002B00D1BAE07B6A5A6A334B520060
:10CFDC00D35A1900786BF3F78FF803005A007B6A69
:10CFEC005B685B08D2187B6A5B6819001000F3F76A
:10CFFC0083F803009BB2FB62FB6A0F2B2AD9FB6AF6
:10D00C00294A934226D8FB6A9AB20A2320218C46DD
:10D01C00BC4463440F218A431A80FB6A5B089BB2B1
:10D02C000722134099B20A2320229446BC4463443D
:10D03C000A2220208446BC44624412880A431A8087
:10D04C007B6A1B680A2220218C46BC4462441288ED
:10D05C00DA6074E01A2320229446BC446344012213
:10D06C001A706CE01B2320229446BC4463441B784A
:10D07C00022B20D002DC002B18D028E0042B1DD072
:10D08C00082B20D023E0C04600480040004C004054
:10D09C0000800040001002400024F40014EF00084F
:10D0AC00FF020000FFFF0F00FFFF0000FCF774F908
:10D0BC0003007B6315E02E4B7B6312E0FCF7E0F87A
:10D0CC0003007B630DE080231B027B6309E00023DC
:10D0DC007B631A2320229446BC44634401221A70B9
:10D0EC00C0467B6B002B2AD07B6A5A6A214B5200BC
:10D0FC00D35A1900786BF2F7FFFF03001A007B6A12
:10D10C005B685B08D2187B6A5B6819001000F2F749
:10D11C00F3FF03009BB2FB62FB6A0F2B08D9FB6A7F
:10D12C00154A934204D87B6A1B68FA6ADA6006E0F7
:10D13C001A2320229446BC44634401221A707B6A51
:10D14C006A22012199527B6A6822012199527B6AD9
:10D15C0000221A677B6A00225A671A2320229446FF
:10D16C00BC4463441B781800BD4611B0F0BDC046EA
:10D17C000024F40014EF0008FFFF000080B582B01B
:10D18C0000AF78607B689B6AFF2B05D9A34AA44B40
:10D19C0011001800F6F79EFB7B689B6A0122134076
:10D1AC001AD07B68DB6A002B0BD07B68DA6A802391
:10D1BC009B029A4205D09B4A994B11001800F6F736
:10D1CC0089FB7B681B687A68126852689649114023
:10D1DC007A68D26A0A435A607B689B6A02221340BF
:10D1EC001AD07B681B6B002B0BD07B681A6B8023CF
:10D1FC005B029A4205D08D4A894B11001800F6F754
:10D20C0069FB7B681B687A68126852688849114010
:10D21C007A68126B0A435A607B689B6A042213403B
:10D22C001AD07B685B6B002B0BD07B685A6B80230E
:10D23C00DB029A4205D07F4A794B11001800F6F7B1
:10D24C0049FB7B681B687A68126852687A491140FE
:10D25C007A68526B0A435A607B689B6A08221340B7
:10D26C001AD07B689B6B002B0BD07B689A6B80234E
:10D27C001B029A4205D0714A694B11001800F6F74F
:10D28C0029FB7B681B687A68126852686C491140EC
:10D29C007A68926B0A435A607B689B6A102213402F
:10D2AC001AD07B68DB6B002B0BD07B68DA6B80238E
:10D2BC005B019A4205D0634A594B11001800F6F7EE
:10D2CC0009FB7B681B687A68126892685E4911409A
:10D2DC007A68D26B0A439A607B689B6A202213405F
:10D2EC001AD07B681B6C002B0BD07B681A6C8023CC
:10D2FC009B019A4205D0554A494B11001800F6F78C
:10D30C00E9FA7B681B687A68126892685049114088
:10D31C007A68126C0A439A607B689B6A40221340BD
:10D32C0058D07B681B684B4A93420BD07B681B68B8
:10D33C00494A934206D0D1231A01394B11001800E7
:10D34C00F6F7C8FA7B685B6C002B0BD07B685A6CC9
:10D35C0080235B039A4205D0404A314B11001800E0
:10D36C00F6F7B8FA7B681B687A68126852683C4911
:10D37C0011407A68526C0A435A607B685A6C80235D
:10D38C005B039A4226D17B689B6C002B17D07B6881
:10D39C009A6C80239B039A4211D07B689A6C8023F1
:10D3AC00DB039A420BD07B689A6CC023DB039A4256
:10D3BC0005D02C4A1A4B11001800F6F78BFA7B6833
:10D3CC001B687A6812685268274911407A68926C17
:10D3DC000A435A607B689B6A802213401AD07B6890
:10D3EC00DB6C002B0BD07B68DA6C80231B039A421E
:10D3FC0005D01E4A0A4B11001800F6F76BFA7B6831
:10D40C001B687A6812685268194911407A68D26CA4
:10D41C000A435A60C046BD4602B080BDE10C000014
:10D42C005CED0008E60C0000FFFFFDFFED0C0000BA
:10D43C00FFFFFEFFF40C0000FFFFFBFFFB0C0000E6
:10D44C00FF7FFFFF020D0000FFEFFFFF090D000043
:10D45C00FFDFFFFF0038014000440040110D0000C9
:10D46C00FFFFEFFF160D0000FFFF9FFF1E0D0000DA
:10D47C00FFFFF7FF80B586B002AF78607B688C2227
:10D48C0000219950F7F79EF90300FB607B681B683D
:10D49C001B6808221340082B0DD1FA6880239903CE
:10D4AC007868194B00931300002200F02FF8031E2C
:10D4BC0001D0032324E07B681B681B680422134003
:10D4CC00042B0DD1FA688023D90378680E4B009396
:10D4DC001300002200F01AF8031E01D003230FE002
:10D4EC007B688422202199507B68882220219950C6
:10D4FC007B680022DA667B68802200219954002325
:10D50C001800BD4604B080BDFFFFFF0180B584B09C
:10D51C0000AFF860B9603B60FB1D1A7062E0BB693C
:10D52C0001335FD0F7F74EF902003B68D21ABB69A2
:10D53C009A4202D8BB69002B1DD1FB681B68FA68A4
:10D54C001268126831490A401A60FB681B68FA6855
:10D55C001268926801218A439A60FB688422202118
:10D56C009950FB68882220219950FB688022002169
:10D57C009954032346E0FB681B681B680422134084
:10D58C0030D0FB681B68DA6980231B011A408023AA
:10D59C001B019A4226D1FB681B68802212011A6279
:10D5AC00FB681B68FA681268126818490A401A600E
:10D5BC00FB681B68FA681268926801218A439A60BA
:10D5CC00FB68842220219950FB68882220219950E5
:10D5DC00FB688C2220219950FB68802200219954F1
:10D5EC0003230FE0FB681B68DB69BA681A40BB6851
:10D5FC00D31A5A425341DBB21A00FB1D1B789A42D4
:10D60C008DD000231800BD4604B080BD5FFEFFFF27
:10D61C0080B582B000AF78607B681B687A6812684E
:10D62C00126812490A401A607B681B687A68126893
:10D63C0092680F490A409A607B68DB6E012B07D118
:10D64C007B681B687A681268126810218A431A601A
:10D65C007B688822202199507B680022DA667B68DF
:10D66C0000221A67C046BD4602B080BDDFFEFFFF38
:10D67C00FEFFFFEF80B584B000AF78607B689B6ADB
:10D68C00FB60FB685E2200219952FB685622002148
:10D69C009952FB681800FFF76FF9C046BD4604B0FD
:10D6AC0080BD80B582B000AF78607B681B687A68FB
:10D6BC001268126840218A431A607B6884222021F8
:10D6CC0099507B6800225A677B681800FFF74CF969
:10D6DC00C046BD4602B080BD80B582B000AF786058
:10D6EC00C046BD4602B080BD80B582B000AF786048
:10D6FC00C046BD4602B080BD80B582B000AF786038
:10D70C00C046BD4602B080BD80B584B000AF786025
:10D71C007B681B68234A934210D07B681B68224AA3
:10D72C0093420BD07B681B68204A934206D08D2312
:10D73C009A001F4B11001800F6F7CCF87B6880227A
:10D74C009B5C012B01D1022327E07B688022012105
:10D75C0099547B688422242199507B681B681B6830
:10D76C00FB607B681B687A681268126801218A4327
:10D77C001A60FB680F4A1340FB607B6800225A66F4
:10D78C007B681B68FA681A607B6884222021995098
:10D79C007B6880220021995400231800BD4604B0F8
:10D7AC0080BDC0460038014000440040008000406D
:10D7BC0098ED0008FFFFFFDF80B584B000AF786004
:10D7CC0039607B681B68374A93420FD07B681B68B3
:10D7DC00354A93420AD07B681B68344A934205D081
:10D7EC00334A344B11001800F6F774F83B68002BE1
:10D7FC001ED03A6880239B059A4219D03A68802340
:10D80C00DB059A4214D03A68C023DB059A420FD04C
:10D81C003A6880231B069A420AD03A68A0231B065A
:10D82C009A4205D0244A234B11001800F6F752F8FF
:10D83C007B6880229B5C012B01D102232EE07B684C
:10D84C008022012199547B688422242199507B6881
:10D85C001B681B68FB607B681B687A68126812681F
:10D86C0001218A431A607B681B687A681268926887
:10D87C00D200D1083A680A439A607B68180000F01D
:10D88C00A1F87B681B68FA681A607B6884222021E7
:10D89C0099507B6880220021995400231800BD46C2
:10D8AC0004B080BD003801400044004000800040BE
:10D8BC006202000098ED00086302000080B584B09D
:10D8CC0000AF786039607B681B68384A93420FD090
:10D8DC007B681B68364A93420AD07B681B68354AC2
:10D8EC00934205D0344A354B11001800F5F7F2FF7E
:10D8FC003B68002B1FD03A6880239B049A421AD0B5
:10D90C003A688023DB049A4215D03A68C023DB04C2
:10D91C009A4210D03A6880231B059A420BD03A6881
:10D92C00A0231B059A4206D0A5239A00234B110075
:10D93C001800F5F7CFFF7B6880229B5C012B01D18F
:10D94C0002232EE07B688022012199547B6884227B
:10D95C00242199507B681B681B68FB607B681B68E3
:10D96C007A681268126801218A431A607B681B6806
:10D97C007A6812689268124911403A680A439A60B0
:10D98C007B68180000F01EF87B681B68FA681A6048
:10D99C007B688422202199507B6880220021995435
:10D9AC0000231800BD4604B080BDC04600380140BD
:10D9BC0000440040008000409302000098ED0008F5
:10D9CC00FFFFFFF180B588B000AF78601423FB181F
:10D9DC00334A03CA03C30C23FB18324A03CA03C3DA
:10D9EC007B685B6E002B08D17B686A2201219952FF
:10D9FC007B686822012199524DE01F23FB180822F5
:10DA0C001A701E23FB1808221A707B681B689B680F
:10DA1C005B0EDAB21D23FB1807210A401A707B68D3
:10DA2C001B689B685B0FDAB21C23FB1807210A40AA
:10DA3C001A701E23FB181B781C22BA18127814219A
:10DA4C0079188A5C5A4310001C23FB181B780C2293
:10DA5C00BA18D35C1900F2F7D9FB030099B27B68B2
:10DA6C006A2299521F23FB181B781D22BA181278B0
:10DA7C00142179188A5C5A4310001D23FB181B785B
:10DA8C000C22BA18D35C1900F2F7C0FB030099B250
:10DA9C007B6868229952C046BD4608B080BDC0461E
:10DAAC00D4ED0008DCED00080D488546F6F7B8F813
:10DABC000C480D490D4A002302E0D458C4500433DD
:10DACC00C4188C42F9D30A4A0A4C002301E01360B3
:10DADC000432A242FBD300F017F8F5F785FDFEE700
:10DAEC00009000200000002070000020D4EF0008FF
:10DAFC007000002094050020FEE70000014B186820
:10DB0C007047C0460C00002070B500260C4D0D4C23
:10DB1C00641BA410A64209D1002600F053FF0A4D45
:10DB2C000A4C641BA410A64205D170BDB300EB587F
:10DB3C0098470136EEE7B300EB5898470136F2E709
:10DB4C00CCEF0008CCEF0008CCEF0008D0EF0008B9
:10DB5C0003008218934200D1704719700133F9E722
:10DB6C000FB40B4B13B51C68002C05D0A369002B0C
:10DB7C0002D1200000F050F805AB049AA1682000F7
:10DB8C00019300F065F916BC08BC04B01847C046F8
:10DB9C000C00002010B5024900F0B2F810BDC046D0
:10DBAC0059E70008002310B504000360436083604C
:10DBBC0081814366C281036143618361190008223C
:10DBCC005C30FFF7C5FF054B24626362044BA36214
:10DBDC00044BE362044B236310BDC046C9E3000849
:10DBEC00F1E3000829E4000855E4000870B5682545
:10DBFC004A1E55430E002900743100F0A3F8041E90
:10DC0C0008D000212A00016046600C30A060683208
:10DC1C00FFF79EFF200070BD836913B50400002B35
:10DC2C0028D18364C3640365134B144A1B68826256
:10DC3C000193984201D101238361200000F020F868
:10DC4C006060200000F01CF8A060200000F018F8C4
:10DC5C000022E06004216068FFF7A4FF0122092183
:10DC6C00A068FFF79FFF02221221E068FFF79AFFDE
:10DC7C000123A36113BDC0462CEF0008A1DB0008F3
:10DC8C00F8B51E4B07001E68B369002B02D130009B
:10DC9C00FFF7C2FF4836B4687368013B04D533689C
:10DCAC00002B07D03668F6E70C22A55E002D0DD0B0
:10DCBC006834F2E704213800FFF798FF3060002841
:10DCCC00F0D10C2304003B602000F8BD01232000A0
:10DCDC005B42E3810233A38165662560A5606560C4
:10DCEC0025616561A561082229005C30FFF730FFD2
:10DCFC006563A563A564E564E6E7C0462CEF000800
:10DD0C00F7B504000700002601914834002C01D11E
:10DD1C003000FEBD6368A5680093009B013B009337
:10DD2C0001D52468F2E7AB89012B08D90E22AB5E32
:10DD3C00013304D029003800019B9847064368350D
:10DD4C00EBE70000032370B5CD1C9D43083506009E
:10DD5C000C2D1ED20C25A9421DD8300000F0ADFDB3
:10DD6C00254A14682100002919D1244C2368002B62
:10DD7C0003D1300000F010FB20602900300000F0CF
:10DD8C000BFB431C2CD10C233000336000F096FDB0
:10DD9C0003E0002DDFDA0C233360002070BD0B682C
:10DDAC005B1B1AD40B2B03D90B60CC18256003E03A
:10DDBC008C420ED163681360300000F07FFD2000B0
:10DDCC0007220B30231D9043C31AE7D05A42E2506E
:10DDDC00E4E74B6863600C00EEE70C004968C2E7AF
:10DDEC000323C41C9C43A042E0D0211A300000F055
:10DDFC00D3FA431CDAD1C6E7AC000020B0000020F7
:10DE0C00936810B5013B9360002B05DA9469A3422B
:10DE1C0008DBCBB20A2B05D01368581C10601970A4
:10DE2C00C8B210BD00F016FBFBE7F8B506000F00FA
:10DE3C001400D518AC4201D1002007E021783A003B
:10DE4C003000FFF7DDFF0134431CF3D1F8BD0000B7
:10DE5C00F0B59FB006000F0014000593002804D005
:10DE6C008369002B01D1FFF7D7FE7F4B9F425CD11A
:10DE7C007768BB891B0762D53B69002B5FD00023F9
:10DE8C0006AD6B6120336B761033AB760294029C3B
:10DE9C002378002B5DD1029BE31A04930DD0049BD5
:10DEAC00029A39003000FFF7C0FF431C00D1CCE0D0
:10DEBC006A69049B944663446B612378002B00D100
:10DECC00C3E00122002352426A6002A95432521864
:10DEDC0001342B60EB60AB601370AB6521780522CD
:10DEEC00624800F0DFFC631C9C46002835D1296891
:10DEFC00CB0604D5532302AA20309B1818700B07AD
:10DF0C0004D553232B2002AA9B18187023782A2B94
:10DF1C002CD000200A21099B2278303A092A00D8FB
:10DF2C006BE000282AD0099328E0514B9F4201D185
:10DF3C00B7689EE74F4B9F429BD1F76899E7390032
:10DF4C00300000F0F1FA002899D0012040421FB0B7
:10DF5C00F0BD252B9FD001349AE7444B2968C01A99
:10DF6C00012383400B432B606446B7E7059B181DC8
:10DF7C001B680590002B3ADB0993644623782E2B03
:10DF8C000BD16378621C2A2B3FD1059B02341A1DDE
:10DF9C001B680592002B35DB07932178032236484A
:10DFAC0000F080FC002807D0334B2A68C01A4023AD
:10DFBC00834013432B6001342178631C06222F48C5
:10DFCC000293297600F06EFC002844D02C4B002BD9
:10DFDC002FD12968059B0722C90528D59B18934387
:10DFEC00083305936B69039A9B186B614FE75B428F
:10DFFC00EB6002230B432B60BFE74B4301349B18B0
:10E00C00012089E701235B42C6E7002314000A20A4
:10E01C001A006B6021783039092903D9002BBCD048
:10E02C000792BAE74243013452180123F2E707334F
:10E03C00D5E705AB00933A00124B2900300000E005
:10E04C0000BF0390039B0133CCD1BB895B0600D589
:10E05C007BE70B987BE705AB00933A00094B290053
:10E06C00300000F07FF8ECE750EF000890EF00086C
:10E07C0070EF000830EF000896EF00089AEF0008E8
:10E08C000000000037DE0008F7B5150001938A6820
:10E09C000B6900900C00934200DA130022002B60F5
:10E0AC0043321278002A01D001332B6023689B067F
:10E0BC0002D52B6802332B60062723681F4027D01C
:10E0CC00230043331B785A1E93412268920630D4A6
:10E0DC002200019943320098089EB047431C25D07A
:10E0EC00062320682A68E16803400025042B03D12D
:10E0FC008D1AEB43DB171D40A3682269934201DDA7
:10E10C009B1AED180027BD4220D1002010E00137EA
:10E11C00E3682A689B1A9F42D2DA22000123193243
:10E12C0001990098089EB047431CF0D10120404251
:10E13C00FEBD3020E1184331087021005A1C4531D6
:10E14C000978A218433202331170C1E7220001236F
:10E15C001A3201990098089EB047431CE6D001374B
:10E16C00D1E70000F0B58BB006920A00433207935A
:10E17C00059004920A7E0C00109B6E2A00D18FE051
:10E18C0017D8632A2CD008D8002A00D199E0582A35
:10E19C0054D026004236327029E0642A01D0692A14
:10E1AC00F7D121681A68080623D5111D1960156866
:10E1BC0025E0732A00D188E008D86F2A29D0702A6C
:10E1CC00E7D1202209680A43226003E0752A20D097
:10E1DC00782ADED122007821453211706C4A30E069
:10E1EC000E001A684236111D196013683370012332
:10E1FC0079E04906D9D5111D19600023D55E002D93
:10E20C0003DA2D23049A6D421370624B0A27039391
:10E21C002FE020681968050603D5081D18600D68E5
:10E22C0005E04006F9D50D68081D1860ADB2594BD4
:10E23C00082703936F2A18D00A2716E045310A7075
:10E24C00544A03921A682168101D18601568080654
:10E25C0022D5CB0702D52023194321601027002D8E
:10E26C0003D1202322689A432260230000224333E7
:10E27C001A706368A360002B5CDB04222168914355
:10E28C002160002D58D1049E002B64D02600039BE6
:10E29C0042361B7833705EE04806DAD5ADB2D8E76B
:10E2AC0009681A68080605D5111D1960136862699A
:10E2BC001A6006E04906F7D5111D19601368A28A89
:10E2CC001A800023049E236154E01A68111D196002
:10E2DC00166800216268300000F0E4FA002801D0D2
:10E2EC00801B6060636823610023049A137041E013
:10E2FC002369320006990598079DA847431C43D013
:10E30C00236800259B070FD4099BE06898423DDAEF
:10E31C0018003BE022000123193206990598079E4C
:10E32C00B047431C30D00135E368099A9B1A9D42D3
:10E33C00F0DBE9E7002DA9D0049E28003900F1F7A5
:10E34C0061FF039B013E5B5C280033703900F1F7E1
:10E35C00D3FE051EF1D1082F09D12368DB0706D5A2
:10E36C0063682269934202DC3023013E3370049BC4
:10E37C009B1B2361079B09AA00932100069B059810
:10E38C00FFF782FE431CB3D1012040420BB0F0BD1D
:10E39C00B2EF0008A1EF0008002370B5064C050091
:10E3AC0008002360F5F7E4FB431C03D12368002B22
:10E3BC0000D02B6070BDC0469005002070B50C00DD
:10E3CC000E25495F00F0C6FA002803DB636D1B18AD
:10E3DC00636570BDA389024A1340A381F9E7C04667
:10E3EC00FFEFFFFFF8B51F008B8905000C0016002E
:10E3FC00DB0505D50E23C95E0022022300F0D2F9FD
:10E40C00A389054A28001340A38132000E23E15E44
:10E41C003B0000F075F8F8BDFFEFFFFF70B50C0086
:10E42C000E25495F00F0BEF9A389421C03D1054AB1
:10E43C001340A38170BD802252011343A3816065F8
:10E44C00F8E7C046FFEFFFFF10B50E23C95E00F0E2
:10E45C00E1F810BDF8B505000E001400002804D03A
:10E46C008369002B01D1FFF7D7FB224B9C422DD1A6
:10E47C006C68A369A360A3891B0731D52369002BA2
:10E48C002ED023682269F7B2981A6369F6B29842C3
:10E49C0005DB2100280000F059F9002826D1A368DB
:10E4AC000130013BA36023685A1C22601F70636912
:10E4BC00984204D0A389DB071AD50A2E18D1210063
:10E4CC00280000F043F9002812D00FE00A4B9C42C0
:10E4DC0001D1AC68CDE7094B9C42CAD1EC68C8E7C6
:10E4EC002100280000F020F80028CAD0012676422E
:10E4FC003000F8BD50EF000870EF000830EF000856
:10E50C0070B50500080011000022064C22601A00AC
:10E51C00F5F711FB431C03D12368002B00D02B60B3
:10E52C0070BDC04690050020364B70B51D680600C6
:10E53C000C00002D05D0AB69002B02D12800FFF791
:10E54C006BFB314B9C420FD16C680C23E25E93B297
:10E55C0019072DD4D90611D4092301203360373380
:10E56C001343A381404270BD284B9C4201D1AC683F
:10E57C00EBE7274B9C42E8D1EC68E6E75B0713D549
:10E58C00616B002908D023004433994202D030003B
:10E59C0000F096F9002363632422A3899343A3819B
:10E5AC0000236360236923600823A2891343A3819A
:10E5BC002369002B0BD1A0218022A3898900920012
:10E5CC000B40934203D02100300000F027F90123C7
:10E5DC00A289134011D00023A36063695B42A3613D
:10E5EC00002023698342BED10C23E25E1306BAD508
:10E5FC0040231343A3810138B5E7920700D4636924
:10E60C00A360EDE70C00002050EF000870EF00084D
:10E61C0030EF0008002370B5064C0500080023609D
:10E62C00F5F7D2FA431C03D12368002B00D02B60E2
:10E63C0070BDC04690050020F7B58A8905000C0016
:10E64C00130760D44B68002B04DC0B6C002B01DC33
:10E65C000020FEBDE76A002FFAD000232E682B6045
:10E66C0080235B011A4034D0606DA3895B0706D50B
:10E67C006368C01A636B002B01D0236CC01A0200B4
:10E68C00216A00232800E76AB847A189431C06D1F8
:10E69C002B681D2B31D82C4ADA40D3072DD50023FB
:10E6AC00636023692360CB0405D5431C02D12B681E
:10E6BC00002B00D16065616B2E600029C8D023004F
:10E6CC004433994202D0280000F0FAF8002060632D
:10E6DC00BFE70123216A2800B847431CC5D12B682A
:10E6EC00002BC2D01D2B01D0162B01D12E60AFE711
:10E6FC004023A2891343A381ABE740230B430120A2
:10E70C00A3814042A5E70F69002FA1D00B680F60D1
:10E71C00DB1B01930023920700D14B69A360019B83
:10E72C00002B00DC94E7019B3A00216A2800A66AC2
:10E73C00B047002803DC4023A2891343DFE7019B89
:10E74C003F181B1A0193EAE7010040200B6970B5D2
:10E75C0005000C00002B01D1002070BD002804D056
:10E76C008369002B01D1FFF757FA0B4B9C4209D15F
:10E77C006C680C22A35E002BEED021002800FFF762
:10E78C005BFFEAE7054B9C4201D1AC68F1E7044B17
:10E79C009C42EED1EC68ECE750EF000870EF0008FB
:10E7AC0030EF000870B50500080011000022064C7F
:10E7BC0022601A00F5F729FA431C03D12368002BB9
:10E7CC0000D02B6070BDC0469005002070B50E00C7
:10E7DC001D000E23C95E90B01400002907DA002337
:10E7EC002B60B3891B0611D48023DB000FE001AA38
:10E7FC0000F0C4F80028F2DBF022029B1202134056
:10E80C00054A9B185A4253412B60EDE740230020E8
:10E81C00236010B070BDC04600E0FFFFF7B50226C4
:10E82C008B8905000C00334206D02300473323604C
:10E83C00236101236361F7BD01AB6A46FFF7C6FF95
:10E84C00009907002800FFF77DFA002808D10C2258
:10E85C00A35E9A05EFD4032293431E43A681E4E7FB
:10E86C000F4BAB628023A28920601343A381009BD2
:10E87C0020616361019B002B0DD00E23E15E28000B
:10E88C0000F08EF8002806D00322A38993431A00C7
:10E89C0001231343A381A0893843A081CBE7C04651
:10E8AC00A1DB0008C9B28218904201D10020704748
:10E8BC0003788B42FBD00130F6E7704770470000BD
:10E8CC0070B50500002910D00C1F2368002B00DA4E
:10E8DC00E4182800FFF7F1FF1D4A1368002B05D13F
:10E8EC00636014602800FFF7E9FF70BDA34209D9EB
:10E8FC00216860188342F3D118685B684118216065
:10E90C00EEE713005A68002A01D0A242F9D919681F
:10E91C005818A0420BD12068091858181960824267
:10E92C00E0D110685268411819605A60DAE7A042C9
:10E93C0002D90C232B60D5E721686018824203D1E1
:10E94C00106852684118216062605C60CAE7C0467A
:10E95C00AC00002070B50500080011000022064C28
:10E96C0022601A00F5F7CAF8431C03D12368002B68
:10E97C0000D02B6070BDC04690050020002370B500
:10E98C00064C0500080011002360F5F727F9431C1D
:10E99C0003D12368002B00D02B6070BD90050020A4
:10E9AC00002370B5064C050008002360F5F724F928
:10E9BC00431C03D12368002B00D02B6070BDC046D4
:10E9CC0090050020F8B5C046F8BC08BC9E467047C0
:0CE9DC00F8B5C046F8BC08BC9E46704769
:10E9E8004572726F7220736176696E673A63686503
:10E9F800636B73756D200000726561643A2030782E
:10EA0800256C78200A0D00004572726F72207361C0
:10EA180076696E673A20616472206D656D0A0D0033
:10EA28004572726F7220736176696E673A207265FB
:10EA38006164696E670A0D000A0D202A2A2A204699
:10EA4800572056657273696F6E3A202533642E25F8
:10EA58003364202A2A2A0A0D000000002E2E5C4466
:10EA68007269766572735C53544D333247307878E7
:10EA78005F48414C5F4472697665725C5372635CAF
:10EA880073746D3332673078785F68616C2E630019
:10EA98002E2E5C447269766572735C53544D333222
:10EAA800473078785F48414C5F4472697665725C9C
:10EAB8005372635C73746D3332673078785F686162
:10EAC8006C5F6164632E63002E2E5C447269766508
:10EAD80072735C53544D3332473078785F48414CF9
:10EAE8005F4472697665725C5372635C73746D33EC
:10EAF80032673078785F68616C5F6164635F6578FE
:10EB08002E6300002E2E5C447269766572735C5326
:10EB1800544D3332473078785F48414C5F447269CE
:10EB28007665725C5372635C73746D3332673078E8
:10EB3800785F68616C5F636F727465782E6300003C
:10EB48002E2E5C447269766572735C53544D333271
:10EB5800473078785F48414C5F4472697665725CEB
:10EB68005372635C73746D3332673078785F6861B1
:10EB78006C5F666C6173685F65782E6300000000E7
:10EB88002E2E5C447269766572735C53544D333231
:10EB9800473078785F48414C5F4472697665725CAB
:10EBA8005372635C73746D3332673078785F686171
:10EBB8006C5F6770696F2E63000000002E2E5C4446
:10EBC8007269766572735C53544D33324730787886
:10EBD8005F48414C5F4472697665725C5372635C4E
:10EBE80073746D3332673078785F68616C5F69324F
:10EBF800632E63002E2E5C447269766572735C53D3
:10EC0800544D3332473078785F48414C5F447269DD
:10EC18007665725C5372635C73746D3332673078F7
:10EC2800785F68616C5F6932635F65782E630000A6
:10EC38002E2E5C447269766572735C53544D333280
:10EC4800473078785F48414C5F4472697665725CFA
:10EC58005372635C73746D3332673078785F6861C0
:10EC68006C5F7077725F65782E6300002E2E5C44AF
:10EC78007269766572735C53544D333247307878D5
:10EC88005F48414C5F4472697665725C5372635C9D
:10EC980073746D3332673078785F68616C5F726364
:10ECA800632E63002E2E5C447269766572735C5322
:10ECB800544D3332473078785F48414C5F4472692D
:10ECC8007665725C5372635C73746D333267307847
:10ECD800785F68616C5F7263635F65782E630000BC
:10ECE8002E2E5C447269766572735C53544D3332D0
:10ECF800473078785F48414C5F4472697665725C4A
:10ED08005372635C73746D3332673078785F68610F
:10ED18006C5F74696D2E63002E2E5C447269766593
:10ED280072735C53544D3332473078785F48414CA6
:10ED38005F4472697665725C5372635C73746D3399
:10ED480032673078785F68616C5F74696D5F657889
:10ED58002E6300002E2E5C447269766572735C53D4
:10ED6800544D3332473078785F48414C5F4472697C
:10ED78007665725C5372635C73746D333267307896
:10ED8800785F68616C5F756172742E6300000000C3
:10ED98002E2E5C447269766572735C53544D33321F
:10EDA800473078785F48414C5F4472697665725C99
:10EDB8005372635C73746D3332673078785F68615F
:10EDC8006C5F756172745F65782E630001010103E1
:10EDD8000701000008040204080101011C150008CD
:10EDE8002E15000840150008501500086015000889
:10EDF800701500080102030405060708090A000B3C
:10EE0800F4200008B62100082C2200083C22000843
:10EE1800AC22000860230008702400088C24000835
:10EE2800AA240008C8240008E82400088A25000845
:10EE380098250008A6250008B4250008C225000862
:10EE4800EE26000802270008162700082A270008CF
:10EE58003E270008562700080000000000000000B8
:10EE6800000000000000000000000000000000009A
:10EE78000000000000000000010000000200000087
:10EE88000300000004000000060000000700000066
:10EE98000800000009000000000000000000000059
:10EEA8000000000000000000010000000200000057
:10EEB8000300000004000000CCA80008D0AB000844
:10EEC800D0AB0008D0AB000862A90008D0AB00089E
:10EED800D0AB0008D0AB0008DEA90008D0AB000812
:10EEE800D0AB0008D0AB00084CAA0008D0AB000893
:10EEF800D0AB0008D0AB0008BEAA0008D0AB000811
:10EF0800D0AB0008D0AB000816AB00080100020027
:10EF18000400060008000A000C0010002000400051
:10EF28008000000110000020000000000000000028
:10EF380000000000000000000000000000000000C9
:10EF480000000000000000000000000000000000B9
:10EF580000000000000000000000000000000000A9
:10EF68000000000000000000000000000000000099
:10EF78000000000000000000000000000000000089
:10EF88000000000000000000232D302B2000686CDA
:10EF98004C006566674546470030313233343536B4
:10EFA80037383941424344454600303132333435ED
:0CEFB8003637383961626364656600001A
:08EFC400E814FF7F01000000CA
:04EFCC00E500000854
:04EFD000BD00000878
:10EFD4000024F400040000000100000010000020E0
:10EFE4000000000050EF000870EF000830EF000848
:10EFF400000000000000000000000000000000000D
:10F0040000000000000000000000000000000000FC
:10F0140000000000000000000000000000000000EC
:10F0240000000000000000000000000000000000DC
:10F0340000000000000000000000000000000000CC
:040000050800DAB560
:00000001FF
